{
  "contractName": "Declare",
  "abi": [
    {
      "inputs": [
        {
          "internalType": "string",
          "name": "",
          "type": "string"
        },
        {
          "internalType": "address",
          "name": "",
          "type": "address"
        }
      ],
      "name": "allExamEnrollment",
      "outputs": [
        {
          "internalType": "bool",
          "name": "",
          "type": "bool"
        }
      ],
      "stateMutability": "view",
      "type": "function",
      "constant": true
    },
    {
      "inputs": [
        {
          "internalType": "string",
          "name": "",
          "type": "string"
        }
      ],
      "name": "declarations",
      "outputs": [
        {
          "internalType": "string",
          "name": "examName",
          "type": "string"
        },
        {
          "internalType": "string",
          "name": "examDate",
          "type": "string"
        },
        {
          "internalType": "uint256",
          "name": "examStartTime",
          "type": "uint256"
        },
        {
          "internalType": "uint256",
          "name": "examDuration",
          "type": "uint256"
        },
        {
          "internalType": "string",
          "name": "examHash",
          "type": "string"
        },
        {
          "internalType": "address",
          "name": "examContractAddress",
          "type": "address"
        },
        {
          "internalType": "uint256",
          "name": "creationTime",
          "type": "uint256"
        },
        {
          "internalType": "uint256",
          "name": "enrollmentDuration",
          "type": "uint256"
        }
      ],
      "stateMutability": "view",
      "type": "function",
      "constant": true
    },
    {
      "inputs": [
        {
          "internalType": "uint256",
          "name": "",
          "type": "uint256"
        }
      ],
      "name": "examHashes",
      "outputs": [
        {
          "internalType": "string",
          "name": "",
          "type": "string"
        }
      ],
      "stateMutability": "view",
      "type": "function",
      "constant": true
    },
    {
      "inputs": [
        {
          "internalType": "address",
          "name": "",
          "type": "address"
        },
        {
          "internalType": "uint256",
          "name": "",
          "type": "uint256"
        }
      ],
      "name": "ownerToExamDeclaration",
      "outputs": [
        {
          "internalType": "string",
          "name": "examName",
          "type": "string"
        },
        {
          "internalType": "string",
          "name": "examDate",
          "type": "string"
        },
        {
          "internalType": "uint256",
          "name": "examStartTime",
          "type": "uint256"
        },
        {
          "internalType": "uint256",
          "name": "examDuration",
          "type": "uint256"
        },
        {
          "internalType": "string",
          "name": "examHash",
          "type": "string"
        },
        {
          "internalType": "address",
          "name": "examContractAddress",
          "type": "address"
        },
        {
          "internalType": "uint256",
          "name": "creationTime",
          "type": "uint256"
        },
        {
          "internalType": "uint256",
          "name": "enrollmentDuration",
          "type": "uint256"
        }
      ],
      "stateMutability": "view",
      "type": "function",
      "constant": true
    },
    {
      "inputs": [
        {
          "internalType": "string",
          "name": "_name",
          "type": "string"
        },
        {
          "internalType": "string",
          "name": "_date",
          "type": "string"
        },
        {
          "internalType": "string",
          "name": "_lastEnrollmentDate",
          "type": "string"
        },
        {
          "internalType": "uint256",
          "name": "_start_time",
          "type": "uint256"
        },
        {
          "internalType": "uint256",
          "name": "_duration",
          "type": "uint256"
        },
        {
          "internalType": "string",
          "name": "_exam_hash",
          "type": "string"
        },
        {
          "internalType": "uint256",
          "name": "_enrollment_duration",
          "type": "uint256"
        }
      ],
      "name": "declareExam",
      "outputs": [],
      "stateMutability": "nonpayable",
      "type": "function"
    },
    {
      "inputs": [],
      "name": "getExamsDeclaredByOwner",
      "outputs": [
        {
          "components": [
            {
              "internalType": "string",
              "name": "examName",
              "type": "string"
            },
            {
              "internalType": "string",
              "name": "examDate",
              "type": "string"
            },
            {
              "internalType": "uint256",
              "name": "examStartTime",
              "type": "uint256"
            },
            {
              "internalType": "uint256",
              "name": "examDuration",
              "type": "uint256"
            },
            {
              "internalType": "string",
              "name": "examHash",
              "type": "string"
            },
            {
              "internalType": "address",
              "name": "examContractAddress",
              "type": "address"
            },
            {
              "internalType": "uint256",
              "name": "creationTime",
              "type": "uint256"
            },
            {
              "internalType": "uint256",
              "name": "enrollmentDuration",
              "type": "uint256"
            }
          ],
          "internalType": "struct Declare.ExamDeclaration[]",
          "name": "",
          "type": "tuple[]"
        }
      ],
      "stateMutability": "view",
      "type": "function",
      "constant": true
    },
    {
      "inputs": [],
      "name": "getAllExams",
      "outputs": [
        {
          "components": [
            {
              "internalType": "string",
              "name": "examName",
              "type": "string"
            },
            {
              "internalType": "string",
              "name": "examDate",
              "type": "string"
            },
            {
              "internalType": "uint256",
              "name": "examStartTime",
              "type": "uint256"
            },
            {
              "internalType": "uint256",
              "name": "examDuration",
              "type": "uint256"
            },
            {
              "internalType": "string",
              "name": "examHash",
              "type": "string"
            },
            {
              "internalType": "address",
              "name": "examContractAddress",
              "type": "address"
            },
            {
              "internalType": "uint256",
              "name": "creationTime",
              "type": "uint256"
            },
            {
              "internalType": "uint256",
              "name": "enrollmentDuration",
              "type": "uint256"
            }
          ],
          "internalType": "struct Declare.ExamDeclaration[]",
          "name": "",
          "type": "tuple[]"
        }
      ],
      "stateMutability": "view",
      "type": "function",
      "constant": true
    },
    {
      "inputs": [
        {
          "internalType": "string",
          "name": "examHash",
          "type": "string"
        }
      ],
      "name": "getExam",
      "outputs": [
        {
          "components": [
            {
              "internalType": "string",
              "name": "examName",
              "type": "string"
            },
            {
              "internalType": "string",
              "name": "examDate",
              "type": "string"
            },
            {
              "internalType": "uint256",
              "name": "examStartTime",
              "type": "uint256"
            },
            {
              "internalType": "uint256",
              "name": "examDuration",
              "type": "uint256"
            },
            {
              "internalType": "string",
              "name": "examHash",
              "type": "string"
            },
            {
              "internalType": "address",
              "name": "examContractAddress",
              "type": "address"
            },
            {
              "internalType": "uint256",
              "name": "creationTime",
              "type": "uint256"
            },
            {
              "internalType": "uint256",
              "name": "enrollmentDuration",
              "type": "uint256"
            }
          ],
          "internalType": "struct Declare.ExamDeclaration",
          "name": "",
          "type": "tuple"
        }
      ],
      "stateMutability": "view",
      "type": "function",
      "constant": true
    },
    {
      "inputs": [
        {
          "internalType": "string",
          "name": "examHash",
          "type": "string"
        }
      ],
      "name": "enrollStudentToParticularExam",
      "outputs": [],
      "stateMutability": "nonpayable",
      "type": "function"
    },
    {
      "inputs": [],
      "name": "getEnrolledExamsOfStudent",
      "outputs": [
        {
          "components": [
            {
              "internalType": "string",
              "name": "examName",
              "type": "string"
            },
            {
              "internalType": "string",
              "name": "examDate",
              "type": "string"
            },
            {
              "internalType": "uint256",
              "name": "examStartTime",
              "type": "uint256"
            },
            {
              "internalType": "uint256",
              "name": "examDuration",
              "type": "uint256"
            },
            {
              "internalType": "string",
              "name": "examHash",
              "type": "string"
            },
            {
              "internalType": "address",
              "name": "examContractAddress",
              "type": "address"
            },
            {
              "internalType": "uint256",
              "name": "creationTime",
              "type": "uint256"
            },
            {
              "internalType": "uint256",
              "name": "enrollmentDuration",
              "type": "uint256"
            }
          ],
          "internalType": "struct Declare.ExamDeclaration[]",
          "name": "",
          "type": "tuple[]"
        }
      ],
      "stateMutability": "view",
      "type": "function",
      "constant": true
    }
  ],
  "bytecode": "0x608060405234801561001057600080fd5b506151cf806100206000396000f3fe60806040523480156200001157600080fd5b5060043610620000ac5760003560e01c8063795994d9116200006f578063795994d9146200019a578063b284c3e014620001bc578063c6f734d814620001de578063dfd18f30146200021b578063f98fa14d146200023d57620000ac565b80630c0703bc14620000b15780631ceecf1014620000e75780634cda1e0b146200010757806361afcc7b1462000127578063707e7a2e146200015d575b600080fd5b620000cf6004803603810190620000c9919062001a98565b62000273565b604051620000de919062001b1b565b60405180910390f35b620001056004803603810190620000ff919062001b73565b620002b8565b005b6200012560048036038101906200011f919062001ca2565b6200060c565b005b6200014560048036038101906200013f919062001ca2565b62000685565b60405162000154919062001e6c565b60405180910390f35b6200017b600480360381019062000175919062001e90565b6200090e565b6040516200019198979695949392919062001f4b565b60405180910390f35b620001a462000b44565b604051620001b391906200218c565b60405180910390f35b620001c662000e93565b604051620001d591906200218c565b60405180910390f35b620001fc6004803603810190620001f6919062001ca2565b62001286565b6040516200021298979695949392919062001f4b565b60405180910390f35b62000225620014b4565b6040516200023491906200218c565b60405180910390f35b6200025b6004803603810190620002559190620021b0565b6200179f565b6040516200026a9190620021e2565b60405180910390f35b6002828051602081018201805184825260208301602085012081835280955050505050506020528060005260406000206000915091509054906101000a900460ff1681565b600382908060018154018082558091505060019003906000526020600020016000909190919091509081620002ee91906200243c565b5060003388888888884288604051620003079062001854565b6200031a98979695949392919062002523565b604051809103906000f08015801562000337573d6000803e3d6000fd5b50905060006040518061010001604052808a81526020018981526020018781526020018681526020018581526020018373ffffffffffffffffffffffffffffffffffffffff16815260200142815260200184815250905080600085604051620003a1919062002608565b90815260200160405180910390206000820151816000019081620003c691906200243c565b506020820151816001019081620003de91906200243c565b50604082015181600201556060820151816003015560808201518160040190816200040a91906200243c565b5060a08201518160050160006101000a81548173ffffffffffffffffffffffffffffffffffffffff021916908373ffffffffffffffffffffffffffffffffffffffff16021790555060c0820151816006015560e0820151816007015590505060016002856040516200047d919062002608565b908152602001604051809103902060003373ffffffffffffffffffffffffffffffffffffffff1673ffffffffffffffffffffffffffffffffffffffff16815260200190815260200160002060006101000a81548160ff021916908315150217905550600160003373ffffffffffffffffffffffffffffffffffffffff1673ffffffffffffffffffffffffffffffffffffffff16815260200190815260200160002081908060018154018082558091505060019003906000526020600020906008020160009091909190915060008201518160000190816200055f91906200243c565b5060208201518160010190816200057791906200243c565b5060408201518160020155606082015181600301556080820151816004019081620005a391906200243c565b5060a08201518160050160006101000a81548173ffffffffffffffffffffffffffffffffffffffff021916908373ffffffffffffffffffffffffffffffffffffffff16021790555060c0820151816006015560e082015181600701555050505050505050505050565b600160028260405162000620919062002608565b908152602001604051809103902060003373ffffffffffffffffffffffffffffffffffffffff1673ffffffffffffffffffffffffffffffffffffffff16815260200190815260200160002060006101000a81548160ff02191690831515021790555050565b6200068f62001862565b600082604051620006a1919062002608565b908152602001604051809103902060405180610100016040529081600082018054620006cd9062002235565b80601f0160208091040260200160405190810160405280929190818152602001828054620006fb9062002235565b80156200074c5780601f1062000720576101008083540402835291602001916200074c565b820191906000526020600020905b8154815290600101906020018083116200072e57829003601f168201915b50505050508152602001600182018054620007679062002235565b80601f0160208091040260200160405190810160405280929190818152602001828054620007959062002235565b8015620007e65780601f10620007ba57610100808354040283529160200191620007e6565b820191906000526020600020905b815481529060010190602001808311620007c857829003601f168201915b505050505081526020016002820154815260200160038201548152602001600482018054620008159062002235565b80601f0160208091040260200160405190810160405280929190818152602001828054620008439062002235565b8015620008945780601f10620008685761010080835404028352916020019162000894565b820191906000526020600020905b8154815290600101906020018083116200087657829003601f168201915b505050505081526020016005820160009054906101000a900473ffffffffffffffffffffffffffffffffffffffff1673ffffffffffffffffffffffffffffffffffffffff1673ffffffffffffffffffffffffffffffffffffffff168152602001600682015481526020016007820154815250509050919050565b600160205281600052604060002081815481106200092b57600080fd5b906000526020600020906008020160009150915050806000018054620009519062002235565b80601f01602080910402602001604051908101604052809291908181526020018280546200097f9062002235565b8015620009d05780601f10620009a457610100808354040283529160200191620009d0565b820191906000526020600020905b815481529060010190602001808311620009b257829003601f168201915b505050505090806001018054620009e79062002235565b80601f016020809104026020016040519081016040528092919081815260200182805462000a159062002235565b801562000a665780601f1062000a3a5761010080835404028352916020019162000a66565b820191906000526020600020905b81548152906001019060200180831162000a4857829003601f168201915b50505050509080600201549080600301549080600401805462000a899062002235565b80601f016020809104026020016040519081016040528092919081815260200182805462000ab79062002235565b801562000b085780601f1062000adc5761010080835404028352916020019162000b08565b820191906000526020600020905b81548152906001019060200180831162000aea57829003601f168201915b5050505050908060050160009054906101000a900473ffffffffffffffffffffffffffffffffffffffff16908060060154908060070154905088565b60606000600380549050905060008167ffffffffffffffff81111562000b6f5762000b6e620018ec565b5b60405190808252806020026020018201604052801562000bac57816020015b62000b9862001862565b81526020019060019003908162000b8e5790505b50905060005b8281101562000e8a5760006003828154811062000bd45762000bd362002621565b5b9060005260206000200160405162000bed9190620026df565b90815260200160405180910390206040518061010001604052908160008201805462000c199062002235565b80601f016020809104026020016040519081016040528092919081815260200182805462000c479062002235565b801562000c985780601f1062000c6c5761010080835404028352916020019162000c98565b820191906000526020600020905b81548152906001019060200180831162000c7a57829003601f168201915b5050505050815260200160018201805462000cb39062002235565b80601f016020809104026020016040519081016040528092919081815260200182805462000ce19062002235565b801562000d325780601f1062000d065761010080835404028352916020019162000d32565b820191906000526020600020905b81548152906001019060200180831162000d1457829003601f168201915b50505050508152602001600282015481526020016003820154815260200160048201805462000d619062002235565b80601f016020809104026020016040519081016040528092919081815260200182805462000d8f9062002235565b801562000de05780601f1062000db45761010080835404028352916020019162000de0565b820191906000526020600020905b81548152906001019060200180831162000dc257829003601f168201915b505050505081526020016005820160009054906101000a900473ffffffffffffffffffffffffffffffffffffffff1673ffffffffffffffffffffffffffffffffffffffff1673ffffffffffffffffffffffffffffffffffffffff1681526020016006820154815260200160078201548152505082828151811062000e695762000e6862002621565b5b6020026020010181905250808062000e819062002727565b91505062000bb2565b50809250505090565b60606000600380549050905060008167ffffffffffffffff81111562000ebe5762000ebd620018ec565b5b60405190808252806020026020018201604052801562000efb57816020015b62000ee762001862565b81526020019060019003908162000edd5790505b5090506000805b838110156200127c5760026003828154811062000f245762000f2362002621565b5b9060005260206000200160405162000f3d9190620026df565b908152602001604051809103902060003373ffffffffffffffffffffffffffffffffffffffff1673ffffffffffffffffffffffffffffffffffffffff16815260200190815260200160002060009054906101000a900460ff1615620012665760006003828154811062000fb55762000fb462002621565b5b9060005260206000200160405162000fce9190620026df565b90815260200160405180910390206040518061010001604052908160008201805462000ffa9062002235565b80601f0160208091040260200160405190810160405280929190818152602001828054620010289062002235565b8015620010795780601f106200104d5761010080835404028352916020019162001079565b820191906000526020600020905b8154815290600101906020018083116200105b57829003601f168201915b50505050508152602001600182018054620010949062002235565b80601f0160208091040260200160405190810160405280929190818152602001828054620010c29062002235565b8015620011135780601f10620010e75761010080835404028352916020019162001113565b820191906000526020600020905b815481529060010190602001808311620010f557829003601f168201915b505050505081526020016002820154815260200160038201548152602001600482018054620011429062002235565b80601f0160208091040260200160405190810160405280929190818152602001828054620011709062002235565b8015620011c15780601f106200119557610100808354040283529160200191620011c1565b820191906000526020600020905b815481529060010190602001808311620011a357829003601f168201915b505050505081526020016005820160009054906101000a900473ffffffffffffffffffffffffffffffffffffffff1673ffffffffffffffffffffffffffffffffffffffff1673ffffffffffffffffffffffffffffffffffffffff168152602001600682015481526020016007820154815250508383815181106200124a576200124962002621565b5b60200260200101819052508180620012629062002727565b9250505b8080620012739062002727565b91505062000f02565b5081935050505090565b600081805160208101820180518482526020830160208501208183528095505050505050600091509050806000018054620012c19062002235565b80601f0160208091040260200160405190810160405280929190818152602001828054620012ef9062002235565b8015620013405780601f10620013145761010080835404028352916020019162001340565b820191906000526020600020905b8154815290600101906020018083116200132257829003601f168201915b505050505090806001018054620013579062002235565b80601f0160208091040260200160405190810160405280929190818152602001828054620013859062002235565b8015620013d65780601f10620013aa57610100808354040283529160200191620013d6565b820191906000526020600020905b815481529060010190602001808311620013b857829003601f168201915b505050505090806002015490806003015490806004018054620013f99062002235565b80601f0160208091040260200160405190810160405280929190818152602001828054620014279062002235565b8015620014785780601f106200144c5761010080835404028352916020019162001478565b820191906000526020600020905b8154815290600101906020018083116200145a57829003601f168201915b5050505050908060050160009054906101000a900473ffffffffffffffffffffffffffffffffffffffff16908060060154908060070154905088565b6060600160003373ffffffffffffffffffffffffffffffffffffffff1673ffffffffffffffffffffffffffffffffffffffff168152602001908152602001600020805480602002602001604051908101604052809291908181526020016000905b82821015620017965783829060005260206000209060080201604051806101000160405290816000820180546200154c9062002235565b80601f01602080910402602001604051908101604052809291908181526020018280546200157a9062002235565b8015620015cb5780601f106200159f57610100808354040283529160200191620015cb565b820191906000526020600020905b815481529060010190602001808311620015ad57829003601f168201915b50505050508152602001600182018054620015e69062002235565b80601f0160208091040260200160405190810160405280929190818152602001828054620016149062002235565b8015620016655780601f10620016395761010080835404028352916020019162001665565b820191906000526020600020905b8154815290600101906020018083116200164757829003601f168201915b505050505081526020016002820154815260200160038201548152602001600482018054620016949062002235565b80601f0160208091040260200160405190810160405280929190818152602001828054620016c29062002235565b8015620017135780601f10620016e75761010080835404028352916020019162001713565b820191906000526020600020905b815481529060010190602001808311620016f557829003601f168201915b505050505081526020016005820160009054906101000a900473ffffffffffffffffffffffffffffffffffffffff1673ffffffffffffffffffffffffffffffffffffffff1673ffffffffffffffffffffffffffffffffffffffff168152602001600682015481526020016007820154815250508152602001906001019062001515565b50505050905090565b60038181548110620017b057600080fd5b906000526020600020016000915090508054620017cd9062002235565b80601f0160208091040260200160405190810160405280929190818152602001828054620017fb9062002235565b80156200184c5780601f1062001820576101008083540402835291602001916200184c565b820191906000526020600020905b8154815290600101906020018083116200182e57829003601f168201915b505050505081565b612a25806200277583390190565b6040518061010001604052806060815260200160608152602001600081526020016000815260200160608152602001600073ffffffffffffffffffffffffffffffffffffffff16815260200160008152602001600081525090565b6000604051905090565b600080fd5b600080fd5b600080fd5b600080fd5b6000601f19601f8301169050919050565b7f4e487b7100000000000000000000000000000000000000000000000000000000600052604160045260246000fd5b6200192682620018db565b810181811067ffffffffffffffff82111715620019485762001947620018ec565b5b80604052505050565b60006200195d620018bd565b90506200196b82826200191b565b919050565b600067ffffffffffffffff8211156200198e576200198d620018ec565b5b6200199982620018db565b9050602081019050919050565b82818337600083830152505050565b6000620019cc620019c68462001970565b62001951565b905082815260208101848484011115620019eb57620019ea620018d6565b5b620019f8848285620019a6565b509392505050565b600082601f83011262001a185762001a17620018d1565b5b813562001a2a848260208601620019b5565b91505092915050565b600073ffffffffffffffffffffffffffffffffffffffff82169050919050565b600062001a608262001a33565b9050919050565b62001a728162001a53565b811462001a7e57600080fd5b50565b60008135905062001a928162001a67565b92915050565b6000806040838503121562001ab25762001ab1620018c7565b5b600083013567ffffffffffffffff81111562001ad35762001ad2620018cc565b5b62001ae18582860162001a00565b925050602062001af48582860162001a81565b9150509250929050565b60008115159050919050565b62001b158162001afe565b82525050565b600060208201905062001b32600083018462001b0a565b92915050565b6000819050919050565b62001b4d8162001b38565b811462001b5957600080fd5b50565b60008135905062001b6d8162001b42565b92915050565b600080600080600080600060e0888a03121562001b955762001b94620018c7565b5b600088013567ffffffffffffffff81111562001bb65762001bb5620018cc565b5b62001bc48a828b0162001a00565b975050602088013567ffffffffffffffff81111562001be85762001be7620018cc565b5b62001bf68a828b0162001a00565b965050604088013567ffffffffffffffff81111562001c1a5762001c19620018cc565b5b62001c288a828b0162001a00565b955050606062001c3b8a828b0162001b5c565b945050608062001c4e8a828b0162001b5c565b93505060a088013567ffffffffffffffff81111562001c725762001c71620018cc565b5b62001c808a828b0162001a00565b92505060c062001c938a828b0162001b5c565b91505092959891949750929550565b60006020828403121562001cbb5762001cba620018c7565b5b600082013567ffffffffffffffff81111562001cdc5762001cdb620018cc565b5b62001cea8482850162001a00565b91505092915050565b600081519050919050565b600082825260208201905092915050565b60005b8381101562001d2f57808201518184015260208101905062001d12565b60008484015250505050565b600062001d488262001cf3565b62001d54818562001cfe565b935062001d6681856020860162001d0f565b62001d7181620018db565b840191505092915050565b62001d878162001b38565b82525050565b62001d988162001a53565b82525050565b600061010083016000830151848203600086015262001dbe828262001d3b565b9150506020830151848203602086015262001dda828262001d3b565b915050604083015162001df1604086018262001d7c565b50606083015162001e06606086018262001d7c565b506080830151848203608086015262001e20828262001d3b565b91505060a083015162001e3760a086018262001d8d565b5060c083015162001e4c60c086018262001d7c565b5060e083015162001e6160e086018262001d7c565b508091505092915050565b6000602082019050818103600083015262001e88818462001d9e565b905092915050565b6000806040838503121562001eaa5762001ea9620018c7565b5b600062001eba8582860162001a81565b925050602062001ecd8582860162001b5c565b9150509250929050565b600082825260208201905092915050565b600062001ef58262001cf3565b62001f01818562001ed7565b935062001f1381856020860162001d0f565b62001f1e81620018db565b840191505092915050565b62001f348162001b38565b82525050565b62001f458162001a53565b82525050565b600061010082019050818103600083015262001f68818b62001ee8565b9050818103602083015262001f7e818a62001ee8565b905062001f8f604083018962001f29565b62001f9e606083018862001f29565b818103608083015262001fb2818762001ee8565b905062001fc360a083018662001f3a565b62001fd260c083018562001f29565b62001fe160e083018462001f29565b9998505050505050505050565b600081519050919050565b600082825260208201905092915050565b6000819050602082019050919050565b60006101008301600083015184820360008601526200203a828262001d3b565b9150506020830151848203602086015262002056828262001d3b565b91505060408301516200206d604086018262001d7c565b50606083015162002082606086018262001d7c565b50608083015184820360808601526200209c828262001d3b565b91505060a0830151620020b360a086018262001d8d565b5060c0830151620020c860c086018262001d7c565b5060e0830151620020dd60e086018262001d7c565b508091505092915050565b6000620020f683836200201a565b905092915050565b6000602082019050919050565b6000620021188262001fee565b62002124818562001ff9565b93508360208202850162002138856200200a565b8060005b858110156200217a5784840389528151620021588582620020e8565b94506200216583620020fe565b925060208a019950506001810190506200213c565b50829750879550505050505092915050565b60006020820190508181036000830152620021a881846200210b565b905092915050565b600060208284031215620021c957620021c8620018c7565b5b6000620021d98482850162001b5c565b91505092915050565b60006020820190508181036000830152620021fe818462001ee8565b905092915050565b7f4e487b7100000000000000000000000000000000000000000000000000000000600052602260045260246000fd5b600060028204905060018216806200224e57607f821691505b60208210810362002264576200226362002206565b5b50919050565b60008190508160005260206000209050919050565b60006020601f8301049050919050565b600082821b905092915050565b600060088302620022ce7fffffffffffffffffffffffffffffffffffffffffffffffffffffffffffffffff826200228f565b620022da86836200228f565b95508019841693508086168417925050509392505050565b6000819050919050565b60006200231d62002317620023118462001b38565b620022f2565b62001b38565b9050919050565b6000819050919050565b6200233983620022fc565b62002351620023488262002324565b8484546200229c565b825550505050565b600090565b6200236862002359565b620023758184846200232e565b505050565b5b818110156200239d57620023916000826200235e565b6001810190506200237b565b5050565b601f821115620023ec57620023b6816200226a565b620023c1846200227f565b81016020851015620023d1578190505b620023e9620023e0856200227f565b8301826200237a565b50505b505050565b600082821c905092915050565b60006200241160001984600802620023f1565b1980831691505092915050565b60006200242c8383620023fe565b9150826002028217905092915050565b620024478262001cf3565b67ffffffffffffffff811115620024635762002462620018ec565b5b6200246f825462002235565b6200247c828285620023a1565b600060209050601f831160018114620024b457600084156200249f578287015190505b620024ab85826200241e565b8655506200251b565b601f198416620024c4866200226a565b60005b82811015620024ee57848901518255600182019150602085019450602081019050620024c7565b868310156200250e57848901516200250a601f891682620023fe565b8355505b6001600288020188555050505b505050505050565b6000610100820190506200253b600083018b62001f3a565b81810360208301526200254f818a62001ee8565b9050818103604083015262002565818962001ee8565b905081810360608301526200257b818862001ee8565b90506200258c608083018762001f29565b6200259b60a083018662001f29565b620025aa60c083018562001f29565b620025b960e083018462001f29565b9998505050505050505050565b600081905092915050565b6000620025de8262001cf3565b620025ea8185620025c6565b9350620025fc81856020860162001d0f565b80840191505092915050565b6000620026168284620025d1565b915081905092915050565b7f4e487b7100000000000000000000000000000000000000000000000000000000600052603260045260246000fd5b600081546200265f8162002235565b6200266b8186620025c6565b945060018216600081146200268957600181146200269f57620026d6565b60ff1983168652811515820286019350620026d6565b620026aa856200226a565b60005b83811015620026ce57815481890152600182019150602081019050620026ad565b838801955050505b50505092915050565b6000620026ed828462002650565b915081905092915050565b7f4e487b7100000000000000000000000000000000000000000000000000000000600052601160045260246000fd5b6000620027348262001b38565b91507fffffffffffffffffffffffffffffffffffffffffffffffffffffffffffffffff8203620027695762002768620026f8565b5b60018201905091905056fe60806040526000600860006101000a81548160ff0219169083151502179055503480156200002c57600080fd5b5060405162002a2538038062002a2583398181016040528101906200005291906200038a565b876000806101000a81548173ffffffffffffffffffffffffffffffffffffffff021916908373ffffffffffffffffffffffffffffffffffffffff1602179055508660019081620000a39190620006f1565b508560029081620000b59190620006f1565b508460039081620000c79190620006f1565b508342620000d6919062000807565b600481905550826005819055506001600d60008a73ffffffffffffffffffffffffffffffffffffffff1673ffffffffffffffffffffffffffffffffffffffff16815260200190815260200160002060006101000a81548160ff0219169083151502179055508160068190555080600781905550505050505050505062000842565b6000604051905090565b600080fd5b600080fd5b600073ffffffffffffffffffffffffffffffffffffffff82169050919050565b600062000198826200016b565b9050919050565b620001aa816200018b565b8114620001b657600080fd5b50565b600081519050620001ca816200019f565b92915050565b600080fd5b600080fd5b6000601f19601f8301169050919050565b7f4e487b7100000000000000000000000000000000000000000000000000000000600052604160045260246000fd5b6200022582620001da565b810181811067ffffffffffffffff82111715620002475762000246620001eb565b5b80604052505050565b60006200025c62000157565b90506200026a82826200021a565b919050565b600067ffffffffffffffff8211156200028d576200028c620001eb565b5b6200029882620001da565b9050602081019050919050565b60005b83811015620002c5578082015181840152602081019050620002a8565b60008484015250505050565b6000620002e8620002e2846200026f565b62000250565b905082815260208101848484011115620003075762000306620001d5565b5b62000314848285620002a5565b509392505050565b600082601f830112620003345762000333620001d0565b5b815162000346848260208601620002d1565b91505092915050565b6000819050919050565b62000364816200034f565b81146200037057600080fd5b50565b600081519050620003848162000359565b92915050565b600080600080600080600080610100898b031215620003ae57620003ad62000161565b5b6000620003be8b828c01620001b9565b985050602089015167ffffffffffffffff811115620003e257620003e162000166565b5b620003f08b828c016200031c565b975050604089015167ffffffffffffffff81111562000414576200041362000166565b5b620004228b828c016200031c565b965050606089015167ffffffffffffffff81111562000446576200044562000166565b5b620004548b828c016200031c565b9550506080620004678b828c0162000373565b94505060a06200047a8b828c0162000373565b93505060c06200048d8b828c0162000373565b92505060e0620004a08b828c0162000373565b9150509295985092959890939650565b600081519050919050565b7f4e487b7100000000000000000000000000000000000000000000000000000000600052602260045260246000fd5b600060028204905060018216806200050357607f821691505b602082108103620005195762000518620004bb565b5b50919050565b60008190508160005260206000209050919050565b60006020601f8301049050919050565b600082821b905092915050565b600060088302620005837fffffffffffffffffffffffffffffffffffffffffffffffffffffffffffffffff8262000544565b6200058f868362000544565b95508019841693508086168417925050509392505050565b6000819050919050565b6000620005d2620005cc620005c6846200034f565b620005a7565b6200034f565b9050919050565b6000819050919050565b620005ee83620005b1565b62000606620005fd82620005d9565b84845462000551565b825550505050565b600090565b6200061d6200060e565b6200062a818484620005e3565b505050565b5b8181101562000652576200064660008262000613565b60018101905062000630565b5050565b601f821115620006a1576200066b816200051f565b620006768462000534565b8101602085101562000686578190505b6200069e620006958562000534565b8301826200062f565b50505b505050565b600082821c905092915050565b6000620006c660001984600802620006a6565b1980831691505092915050565b6000620006e18383620006b3565b9150826002028217905092915050565b620006fc82620004b0565b67ffffffffffffffff811115620007185762000717620001eb565b5b620007248254620004ea565b6200073182828562000656565b600060209050601f83116001811462000769576000841562000754578287015190505b620007608582620006d3565b865550620007d0565b601f19841662000779866200051f565b60005b82811015620007a3578489015182556001820191506020850194506020810190506200077c565b86831015620007c35784890151620007bf601f891682620006b3565b8355505b6001600288020188555050505b505050505050565b7f4e487b7100000000000000000000000000000000000000000000000000000000600052601160045260246000fd5b600062000814826200034f565b915062000821836200034f565b92508282019050808211156200083c576200083b620007d8565b5b92915050565b6121d380620008526000396000f3fe608060405234801561001057600080fd5b50600436106101215760003560e01c8063729d1dcb116100ad578063b32dece111610071578063b32dece114610311578063c9b5901d1461032f578063ca2dfd0a1461034b578063d8270dce14610367578063e9e309271461038557610121565b8063729d1dcb14610268578063834ee4171461029d5780639000b3d6146102bb57806398378bfe146102d75780639e58ba4f146102f357610121565b8063323046b1116100f4578063323046b1146101b05780633878622e146101ce5780634e6cc3c1146101fe5780636c8244871461021c5780636e5704031461024c57610121565b806306fdde03146101265780630fb5a6b41461014457806319839df8146101625780632ebcfc1314610180575b600080fd5b61012e6103a3565b60405161013b9190611424565b60405180910390f35b61014c610431565b604051610159919061145f565b60405180910390f35b61016a610437565b6040516101779190611424565b60405180910390f35b61019a600480360381019061019591906114ba565b6104c5565b6040516101a79190611528565b60405180910390f35b6101b8610504565b6040516101c59190611424565b60405180910390f35b6101e860048036038101906101e3919061156f565b610592565b6040516101f591906115b7565b60405180910390f35b6102066105eb565b6040516102139190611424565b60405180910390f35b6102366004803603810190610231919061156f565b61067d565b60405161024391906115b7565b60405180910390f35b61026660048036038101906102619190611707565b61069d565b005b610282600480360381019061027d919061156f565b6107ba565b6040516102949695949392919061177f565b60405180910390f35b6102a56109c8565b6040516102b2919061145f565b60405180910390f35b6102d560048036038101906102d0919061156f565b6109ce565b005b6102f160048036038101906102ec91906117f5565b610ab7565b005b6102fb610d60565b604051610308919061145f565b60405180910390f35b610319610d66565b6040516103269190611424565b60405180910390f35b6103496004803603810190610344919061156f565b610df8565b005b6103656004803603810190610360919061156f565b610ee2565b005b61036f610fcb565b60405161037c919061145f565b60405180910390f35b61038d610fd1565b60405161039a9190611a5d565b60405180910390f35b600180546103b090611aae565b80601f01602080910402602001604051908101604052809291908181526020018280546103dc90611aae565b80156104295780601f106103fe57610100808354040283529160200191610429565b820191906000526020600020905b81548152906001019060200180831161040c57829003601f168201915b505050505081565b60055481565b6003805461044490611aae565b80601f016020809104026020016040519081016040528092919081815260200182805461047090611aae565b80156104bd5780601f10610492576101008083540402835291602001916104bd565b820191906000526020600020905b8154815290600101906020018083116104a057829003601f168201915b505050505081565b600c81815481106104d557600080fd5b906000526020600020016000915054906101000a900473ffffffffffffffffffffffffffffffffffffffff1681565b6002805461051190611aae565b80601f016020809104026020016040519081016040528092919081815260200182805461053d90611aae565b801561058a5780601f1061055f5761010080835404028352916020019161058a565b820191906000526020600020905b81548152906001019060200180831161056d57829003601f168201915b505050505081565b6000600b60008373ffffffffffffffffffffffffffffffffffffffff1673ffffffffffffffffffffffffffffffffffffffff16815260200190815260200160002060030160009054906101000a900460ff169050919050565b6060600a80546105fa90611aae565b80601f016020809104026020016040519081016040528092919081815260200182805461062690611aae565b80156106735780601f1061064857610100808354040283529160200191610673565b820191906000526020600020905b81548152906001019060200180831161065657829003601f168201915b5050505050905090565b600d6020528060005260406000206000915054906101000a900460ff1681565b3373ffffffffffffffffffffffffffffffffffffffff1660008054906101000a900473ffffffffffffffffffffffffffffffffffffffff1673ffffffffffffffffffffffffffffffffffffffff161461072b576040517f08c379a000000000000000000000000000000000000000000000000000000000815260040161072290611b51565b60405180910390fd5b600860009054906101000a900460ff161561077b576040517f08c379a000000000000000000000000000000000000000000000000000000000815260040161077290611bbd565b60405180910390fd5b816009908161078a9190611d89565b5080600a908161079a9190611d89565b506001600860006101000a81548160ff0219169083151502179055505050565b600b6020528060005260406000206000915090508060000180546107dd90611aae565b80601f016020809104026020016040519081016040528092919081815260200182805461080990611aae565b80156108565780601f1061082b57610100808354040283529160200191610856565b820191906000526020600020905b81548152906001019060200180831161083957829003601f168201915b50505050509080600101805461086b90611aae565b80601f016020809104026020016040519081016040528092919081815260200182805461089790611aae565b80156108e45780601f106108b9576101008083540402835291602001916108e4565b820191906000526020600020905b8154815290600101906020018083116108c757829003601f168201915b5050505050908060020180546108f990611aae565b80601f016020809104026020016040519081016040528092919081815260200182805461092590611aae565b80156109725780601f1061094757610100808354040283529160200191610972565b820191906000526020600020905b81548152906001019060200180831161095557829003601f168201915b5050505050908060030160009054906101000a900460ff16908060030160019054906101000a900460ff16908060030160029054906101000a900473ffffffffffffffffffffffffffffffffffffffff16905086565b60045481565b3373ffffffffffffffffffffffffffffffffffffffff1660008054906101000a900473ffffffffffffffffffffffffffffffffffffffff1673ffffffffffffffffffffffffffffffffffffffff1614610a5c576040517f08c379a0000000000000000000000000000000000000000000000000000000008152600401610a5390611ecd565b60405180910390fd5b6001600d60008373ffffffffffffffffffffffffffffffffffffffff1673ffffffffffffffffffffffffffffffffffffffff16815260200190815260200160002060006101000a81548160ff02191690831515021790555050565b600b60003373ffffffffffffffffffffffffffffffffffffffff1673ffffffffffffffffffffffffffffffffffffffff16815260200190815260200160002060030160019054906101000a900460ff1615610b47576040517f08c379a0000000000000000000000000000000000000000000000000000000008152600401610b3e90611f39565b60405180910390fd5b600754600654610b579190611f88565b4210610b98576040517f08c379a0000000000000000000000000000000000000000000000000000000008152600401610b8f90612008565b60405180910390fd5b600033905060006040518060c001604052808681526020018581526020018481526020016000151581526020016001151581526020018373ffffffffffffffffffffffffffffffffffffffff16815250905080600b60008473ffffffffffffffffffffffffffffffffffffffff1673ffffffffffffffffffffffffffffffffffffffff1681526020019081526020016000206000820151816000019081610c3f9190611d89565b506020820151816001019081610c559190611d89565b506040820151816002019081610c6b9190611d89565b5060608201518160030160006101000a81548160ff02191690831515021790555060808201518160030160016101000a81548160ff02191690831515021790555060a08201518160030160026101000a81548173ffffffffffffffffffffffffffffffffffffffff021916908373ffffffffffffffffffffffffffffffffffffffff160217905550905050600c829080600181540180825580915050600190039060005260206000200160009091909190916101000a81548173ffffffffffffffffffffffffffffffffffffffff021916908373ffffffffffffffffffffffffffffffffffffffff1602179055505050505050565b60075481565b606060098054610d7590611aae565b80601f0160208091040260200160405190810160405280929190818152602001828054610da190611aae565b8015610dee5780601f10610dc357610100808354040283529160200191610dee565b820191906000526020600020905b815481529060010190602001808311610dd157829003601f168201915b5050505050905090565b600d60003373ffffffffffffffffffffffffffffffffffffffff1673ffffffffffffffffffffffffffffffffffffffff16815260200190815260200160002060009054906101000a900460ff16610e84576040517f08c379a0000000000000000000000000000000000000000000000000000000008152600401610e7b90612074565b60405180910390fd5b6001600b60008373ffffffffffffffffffffffffffffffffffffffff1673ffffffffffffffffffffffffffffffffffffffff16815260200190815260200160002060030160006101000a81548160ff02191690831515021790555050565b3373ffffffffffffffffffffffffffffffffffffffff1660008054906101000a900473ffffffffffffffffffffffffffffffffffffffff1673ffffffffffffffffffffffffffffffffffffffff1614610f70576040517f08c379a0000000000000000000000000000000000000000000000000000000008152600401610f6790612106565b60405180910390fd5b6000600d60008373ffffffffffffffffffffffffffffffffffffffff1673ffffffffffffffffffffffffffffffffffffffff16815260200190815260200160002060006101000a81548160ff02191690831515021790555050565b60065481565b60606000600c80549050905060008167ffffffffffffffff811115610ff957610ff86115dc565b5b60405190808252806020026020018201604052801561103257816020015b61101f611344565b8152602001906001900390816110175790505b50905060005b8281101561133b57600b6000600c838154811061105857611057612126565b5b9060005260206000200160009054906101000a900473ffffffffffffffffffffffffffffffffffffffff1673ffffffffffffffffffffffffffffffffffffffff1673ffffffffffffffffffffffffffffffffffffffff1681526020019081526020016000206040518060c00160405290816000820180546110d890611aae565b80601f016020809104026020016040519081016040528092919081815260200182805461110490611aae565b80156111515780601f1061112657610100808354040283529160200191611151565b820191906000526020600020905b81548152906001019060200180831161113457829003601f168201915b5050505050815260200160018201805461116a90611aae565b80601f016020809104026020016040519081016040528092919081815260200182805461119690611aae565b80156111e35780601f106111b8576101008083540402835291602001916111e3565b820191906000526020600020905b8154815290600101906020018083116111c657829003601f168201915b505050505081526020016002820180546111fc90611aae565b80601f016020809104026020016040519081016040528092919081815260200182805461122890611aae565b80156112755780601f1061124a57610100808354040283529160200191611275565b820191906000526020600020905b81548152906001019060200180831161125857829003601f168201915b505050505081526020016003820160009054906101000a900460ff161515151581526020016003820160019054906101000a900460ff161515151581526020016003820160029054906101000a900473ffffffffffffffffffffffffffffffffffffffff1673ffffffffffffffffffffffffffffffffffffffff1673ffffffffffffffffffffffffffffffffffffffff168152505082828151811061131d5761131c612126565b5b6020026020010181905250808061133390612155565b915050611038565b50809250505090565b6040518060c00160405280606081526020016060815260200160608152602001600015158152602001600015158152602001600073ffffffffffffffffffffffffffffffffffffffff1681525090565b600081519050919050565b600082825260208201905092915050565b60005b838110156113ce5780820151818401526020810190506113b3565b60008484015250505050565b6000601f19601f8301169050919050565b60006113f682611394565b611400818561139f565b93506114108185602086016113b0565b611419816113da565b840191505092915050565b6000602082019050818103600083015261143e81846113eb565b905092915050565b6000819050919050565b61145981611446565b82525050565b60006020820190506114746000830184611450565b92915050565b6000604051905090565b600080fd5b600080fd5b61149781611446565b81146114a257600080fd5b50565b6000813590506114b48161148e565b92915050565b6000602082840312156114d0576114cf611484565b5b60006114de848285016114a5565b91505092915050565b600073ffffffffffffffffffffffffffffffffffffffff82169050919050565b6000611512826114e7565b9050919050565b61152281611507565b82525050565b600060208201905061153d6000830184611519565b92915050565b61154c81611507565b811461155757600080fd5b50565b60008135905061156981611543565b92915050565b60006020828403121561158557611584611484565b5b60006115938482850161155a565b91505092915050565b60008115159050919050565b6115b18161159c565b82525050565b60006020820190506115cc60008301846115a8565b92915050565b600080fd5b600080fd5b7f4e487b7100000000000000000000000000000000000000000000000000000000600052604160045260246000fd5b611614826113da565b810181811067ffffffffffffffff82111715611633576116326115dc565b5b80604052505050565b600061164661147a565b9050611652828261160b565b919050565b600067ffffffffffffffff821115611672576116716115dc565b5b61167b826113da565b9050602081019050919050565b82818337600083830152505050565b60006116aa6116a584611657565b61163c565b9050828152602081018484840111156116c6576116c56115d7565b5b6116d1848285611688565b509392505050565b600082601f8301126116ee576116ed6115d2565b5b81356116fe848260208601611697565b91505092915050565b6000806040838503121561171e5761171d611484565b5b600083013567ffffffffffffffff81111561173c5761173b611489565b5b611748858286016116d9565b925050602083013567ffffffffffffffff81111561176957611768611489565b5b611775858286016116d9565b9150509250929050565b600060c082019050818103600083015261179981896113eb565b905081810360208301526117ad81886113eb565b905081810360408301526117c181876113eb565b90506117d060608301866115a8565b6117dd60808301856115a8565b6117ea60a0830184611519565b979650505050505050565b60008060006060848603121561180e5761180d611484565b5b600084013567ffffffffffffffff81111561182c5761182b611489565b5b611838868287016116d9565b935050602084013567ffffffffffffffff81111561185957611858611489565b5b611865868287016116d9565b925050604084013567ffffffffffffffff81111561188657611885611489565b5b611892868287016116d9565b9150509250925092565b600081519050919050565b600082825260208201905092915050565b6000819050602082019050919050565b600082825260208201905092915050565b60006118e482611394565b6118ee81856118c8565b93506118fe8185602086016113b0565b611907816113da565b840191505092915050565b61191b8161159c565b82525050565b61192a81611507565b82525050565b600060c083016000830151848203600086015261194d82826118d9565b9150506020830151848203602086015261196782826118d9565b9150506040830151848203604086015261198182826118d9565b91505060608301516119966060860182611912565b5060808301516119a96080860182611912565b5060a08301516119bc60a0860182611921565b508091505092915050565b60006119d38383611930565b905092915050565b6000602082019050919050565b60006119f38261189c565b6119fd81856118a7565b935083602082028501611a0f856118b8565b8060005b85811015611a4b5784840389528151611a2c85826119c7565b9450611a37836119db565b925060208a01995050600181019050611a13565b50829750879550505050505092915050565b60006020820190508181036000830152611a7781846119e8565b905092915050565b7f4e487b7100000000000000000000000000000000000000000000000000000000600052602260045260246000fd5b60006002820490506001821680611ac657607f821691505b602082108103611ad957611ad8611a7f565b5b50919050565b7f596f7520617265206e6f7420617574686f72697a656420746f2063726561746560008201527f206578616d000000000000000000000000000000000000000000000000000000602082015250565b6000611b3b60258361139f565b9150611b4682611adf565b604082019050919050565b60006020820190508181036000830152611b6a81611b2e565b9050919050565b7f4578616d20697320616c72656164792063726561746564000000000000000000600082015250565b6000611ba760178361139f565b9150611bb282611b71565b602082019050919050565b60006020820190508181036000830152611bd681611b9a565b9050919050565b60008190508160005260206000209050919050565b60006020601f8301049050919050565b600082821b905092915050565b600060088302611c3f7fffffffffffffffffffffffffffffffffffffffffffffffffffffffffffffffff82611c02565b611c498683611c02565b95508019841693508086168417925050509392505050565b6000819050919050565b6000611c86611c81611c7c84611446565b611c61565b611446565b9050919050565b6000819050919050565b611ca083611c6b565b611cb4611cac82611c8d565b848454611c0f565b825550505050565b600090565b611cc9611cbc565b611cd4818484611c97565b505050565b5b81811015611cf857611ced600082611cc1565b600181019050611cda565b5050565b601f821115611d3d57611d0e81611bdd565b611d1784611bf2565b81016020851015611d26578190505b611d3a611d3285611bf2565b830182611cd9565b50505b505050565b600082821c905092915050565b6000611d6060001984600802611d42565b1980831691505092915050565b6000611d798383611d4f565b9150826002028217905092915050565b611d9282611394565b67ffffffffffffffff811115611dab57611daa6115dc565b5b611db58254611aae565b611dc0828285611cfc565b600060209050601f831160018114611df35760008415611de1578287015190505b611deb8582611d6d565b865550611e53565b601f198416611e0186611bdd565b60005b82811015611e2957848901518255600182019150602085019450602081019050611e04565b86831015611e465784890151611e42601f891682611d4f565b8355505b6001600288020188555050505b505050505050565b7f596f7520617265206e6f7420617574686f72697a656420746f2061646420766560008201527f7269666965720000000000000000000000000000000000000000000000000000602082015250565b6000611eb760268361139f565b9150611ec282611e5b565b604082019050919050565b60006020820190508181036000830152611ee681611eaa565b9050919050565b7f596f752061726520616c726561647920656e726f6c6c65640000000000000000600082015250565b6000611f2360188361139f565b9150611f2e82611eed565b602082019050919050565b60006020820190508181036000830152611f5281611f16565b9050919050565b7f4e487b7100000000000000000000000000000000000000000000000000000000600052601160045260246000fd5b6000611f9382611446565b9150611f9e83611446565b9250828201905080821115611fb657611fb5611f59565b5b92915050565b7f456e726f6c6c6d656e742054696d652066696e69736865640000000000000000600082015250565b6000611ff260188361139f565b9150611ffd82611fbc565b602082019050919050565b6000602082019050818103600083015261202181611fe5565b9050919050565b7f596f7520617265206e6f7420617574686f72697a656420746f20766572696679600082015250565b600061205e60208361139f565b915061206982612028565b602082019050919050565b6000602082019050818103600083015261208d81612051565b9050919050565b7f596f7520617265206e6f7420617574686f72697a656420746f2072656d6f766560008201527f2076657269666965720000000000000000000000000000000000000000000000602082015250565b60006120f060298361139f565b91506120fb82612094565b604082019050919050565b6000602082019050818103600083015261211f816120e3565b9050919050565b7f4e487b7100000000000000000000000000000000000000000000000000000000600052603260045260246000fd5b600061216082611446565b91507fffffffffffffffffffffffffffffffffffffffffffffffffffffffffffffffff820361219257612191611f59565b5b60018201905091905056fea26469706673582212200ca4a6e29885303953c192e4e96ca2d7ddaed495d96f595a77fbcefe8d2c957964736f6c63430008130033a26469706673582212202d468bbcab08b5850438be7f7122c35d78f15e1bbad032f30c12de861ab7957a64736f6c63430008130033",
  "immutableReferences": {},
  "source": "// SPDX-License-Identifier: MIT\r\npragma solidity ^0.8.19;\r\n\r\nimport \"./Exam.sol\";\r\n\r\ncontract Declare {\r\n    struct ExamDeclaration {\r\n        string examName;\r\n        string examDate;\r\n        uint examStartTime;\r\n        uint examDuration;\r\n        string examHash;\r\n        address examContractAddress;\r\n        uint creationTime;\r\n        uint enrollmentDuration;\r\n    }\r\n\r\n    mapping(string => ExamDeclaration) public declarations;\r\n\r\n    // Mapping from owner address to exam declaration\r\n    mapping(address => ExamDeclaration[]) public ownerToExamDeclaration;\r\n\r\n    // optimize ?\r\n    mapping(string => mapping(address => bool)) public allExamEnrollment;\r\n    string[] public examHashes;\r\n\r\n    // Function to declare an exam\r\n    function declareExam(\r\n        string memory _name,\r\n        string memory _date,\r\n        string memory _lastEnrollmentDate,\r\n        uint _start_time,\r\n        uint _duration,\r\n        string memory _exam_hash,\r\n        uint _enrollment_duration\r\n    ) public {\r\n        examHashes.push(_exam_hash);\r\n        Exam test = new Exam(\r\n            msg.sender,\r\n            _name,\r\n            _date,\r\n            _lastEnrollmentDate,\r\n            _start_time,\r\n            _duration,\r\n            block.timestamp,\r\n            _enrollment_duration\r\n        );\r\n\r\n        ExamDeclaration memory newExam = ExamDeclaration(\r\n            _name,\r\n            _date,\r\n            _start_time,\r\n            _duration,\r\n            _exam_hash,\r\n            address(test),\r\n            block.timestamp,\r\n            _enrollment_duration\r\n        );\r\n        declarations[_exam_hash] = newExam;\r\n        allExamEnrollment[_exam_hash][msg.sender] = true;\r\n        ownerToExamDeclaration[msg.sender].push(newExam);\r\n    }\r\n\r\n    // Get all Exams declared by the owner\r\n    function getExamsDeclaredByOwner()\r\n        public\r\n        view\r\n        returns (ExamDeclaration[] memory)\r\n    {\r\n        return ownerToExamDeclaration[msg.sender];\r\n    }\r\n\r\n    // Function to get the list of all exams\r\n    function getAllExams() public view returns (ExamDeclaration[] memory) {\r\n        uint arrayLength = examHashes.length;\r\n        ExamDeclaration[] memory examArray = new ExamDeclaration[](arrayLength);\r\n        for (uint i = 0; i < arrayLength; i++) {\r\n            examArray[i] = declarations[examHashes[i]];\r\n        }\r\n        return examArray;\r\n    }\r\n\r\n    // Function to get the details of a particular exam\r\n    function getExam(\r\n        string memory examHash\r\n    ) public view returns (ExamDeclaration memory) {\r\n        return declarations[examHash];\r\n    }\r\n\r\n    // Function to enroll a student to a particular exam\r\n    function enrollStudentToParticularExam(string memory examHash) public {\r\n        allExamEnrollment[examHash][msg.sender] = true;\r\n    }\r\n\r\n    // Function to retrieve the list of exams that the student has enrolled in\r\n    function getEnrolledExamsOfStudent()\r\n        public\r\n        view\r\n        returns (ExamDeclaration[] memory)\r\n    {\r\n        uint arrayLength = examHashes.length;\r\n        ExamDeclaration[] memory examArray = new ExamDeclaration[](arrayLength);\r\n        uint j = 0;\r\n        for (uint i = 0; i < arrayLength; i++) {\r\n            if (allExamEnrollment[examHashes[i]][msg.sender]) {\r\n                examArray[j] = declarations[examHashes[i]];\r\n                j++;\r\n            }\r\n        }\r\n        return examArray;\r\n    }\r\n}\r\n",
  "sourcePath": "C:\\Users\\ASUS\\OneDrive\\Desktop\\New Projects\\Web3 Examination Portal\\web3-Examination-App\\contracts\\Declare.sol",
  "compiler": {
    "name": "solc",
    "version": "0.8.19+commit.7dd6d404.Emscripten.clang"
  },
  "schemaVersion": "3.4.16",
  "updatedAt": "2024-10-20T09:39:41.972Z",
  "networkType": "ethereum",
  "devdoc": {
    "kind": "dev",
    "methods": {},
    "version": 1
  },
  "userdoc": {
    "kind": "user",
    "methods": {},
    "version": 1
  }
}