{
  "contractName": "Declare",
  "abi": [
    {
      "inputs": [
        {
          "internalType": "string",
          "name": "",
          "type": "string"
        },
        {
          "internalType": "address",
          "name": "",
          "type": "address"
        }
      ],
      "name": "allExamEnrollment",
      "outputs": [
        {
          "internalType": "bool",
          "name": "",
          "type": "bool"
        }
      ],
      "stateMutability": "view",
      "type": "function"
    },
    {
      "inputs": [
        {
          "internalType": "string",
          "name": "",
          "type": "string"
        }
      ],
      "name": "declarations",
      "outputs": [
        {
          "internalType": "string",
          "name": "examName",
          "type": "string"
        },
        {
          "internalType": "string",
          "name": "examDate",
          "type": "string"
        },
        {
          "internalType": "string",
          "name": "lastEnrollmentDate",
          "type": "string"
        },
        {
          "internalType": "uint256",
          "name": "examDuration",
          "type": "uint256"
        },
        {
          "internalType": "string",
          "name": "examHash",
          "type": "string"
        },
        {
          "internalType": "address",
          "name": "examContractAddress",
          "type": "address"
        },
        {
          "internalType": "uint256",
          "name": "creationTime",
          "type": "uint256"
        }
      ],
      "stateMutability": "view",
      "type": "function"
    },
    {
      "inputs": [
        {
          "internalType": "uint256",
          "name": "",
          "type": "uint256"
        }
      ],
      "name": "examHashes",
      "outputs": [
        {
          "internalType": "string",
          "name": "",
          "type": "string"
        }
      ],
      "stateMutability": "view",
      "type": "function"
    },
    {
      "inputs": [
        {
          "internalType": "address",
          "name": "",
          "type": "address"
        },
        {
          "internalType": "uint256",
          "name": "",
          "type": "uint256"
        }
      ],
      "name": "ownerToExamDeclaration",
      "outputs": [
        {
          "internalType": "string",
          "name": "examName",
          "type": "string"
        },
        {
          "internalType": "string",
          "name": "examDate",
          "type": "string"
        },
        {
          "internalType": "string",
          "name": "lastEnrollmentDate",
          "type": "string"
        },
        {
          "internalType": "uint256",
          "name": "examDuration",
          "type": "uint256"
        },
        {
          "internalType": "string",
          "name": "examHash",
          "type": "string"
        },
        {
          "internalType": "address",
          "name": "examContractAddress",
          "type": "address"
        },
        {
          "internalType": "uint256",
          "name": "creationTime",
          "type": "uint256"
        }
      ],
      "stateMutability": "view",
      "type": "function"
    },
    {
      "inputs": [
        {
          "internalType": "string",
          "name": "_name",
          "type": "string"
        },
        {
          "internalType": "string",
          "name": "_date",
          "type": "string"
        },
        {
          "internalType": "string",
          "name": "_lastEnrollmentDate",
          "type": "string"
        },
        {
          "internalType": "uint256",
          "name": "_duration",
          "type": "uint256"
        },
        {
          "internalType": "string",
          "name": "_exam_hash",
          "type": "string"
        }
      ],
      "name": "declareExam",
      "outputs": [],
      "stateMutability": "nonpayable",
      "type": "function"
    },
    {
      "inputs": [],
      "name": "getExamsDeclaredByOwner",
      "outputs": [
        {
          "components": [
            {
              "internalType": "string",
              "name": "examName",
              "type": "string"
            },
            {
              "internalType": "string",
              "name": "examDate",
              "type": "string"
            },
            {
              "internalType": "string",
              "name": "lastEnrollmentDate",
              "type": "string"
            },
            {
              "internalType": "uint256",
              "name": "examDuration",
              "type": "uint256"
            },
            {
              "internalType": "string",
              "name": "examHash",
              "type": "string"
            },
            {
              "internalType": "address",
              "name": "examContractAddress",
              "type": "address"
            },
            {
              "internalType": "uint256",
              "name": "creationTime",
              "type": "uint256"
            }
          ],
          "internalType": "struct Declare.ExamDeclaration[]",
          "name": "",
          "type": "tuple[]"
        }
      ],
      "stateMutability": "view",
      "type": "function"
    },
    {
      "inputs": [],
      "name": "getAllExams",
      "outputs": [
        {
          "components": [
            {
              "internalType": "string",
              "name": "examName",
              "type": "string"
            },
            {
              "internalType": "string",
              "name": "examDate",
              "type": "string"
            },
            {
              "internalType": "string",
              "name": "lastEnrollmentDate",
              "type": "string"
            },
            {
              "internalType": "uint256",
              "name": "examDuration",
              "type": "uint256"
            },
            {
              "internalType": "string",
              "name": "examHash",
              "type": "string"
            },
            {
              "internalType": "address",
              "name": "examContractAddress",
              "type": "address"
            },
            {
              "internalType": "uint256",
              "name": "creationTime",
              "type": "uint256"
            }
          ],
          "internalType": "struct Declare.ExamDeclaration[]",
          "name": "",
          "type": "tuple[]"
        }
      ],
      "stateMutability": "view",
      "type": "function"
    },
    {
      "inputs": [
        {
          "internalType": "string",
          "name": "examHash",
          "type": "string"
        }
      ],
      "name": "getExam",
      "outputs": [
        {
          "components": [
            {
              "internalType": "string",
              "name": "examName",
              "type": "string"
            },
            {
              "internalType": "string",
              "name": "examDate",
              "type": "string"
            },
            {
              "internalType": "string",
              "name": "lastEnrollmentDate",
              "type": "string"
            },
            {
              "internalType": "uint256",
              "name": "examDuration",
              "type": "uint256"
            },
            {
              "internalType": "string",
              "name": "examHash",
              "type": "string"
            },
            {
              "internalType": "address",
              "name": "examContractAddress",
              "type": "address"
            },
            {
              "internalType": "uint256",
              "name": "creationTime",
              "type": "uint256"
            }
          ],
          "internalType": "struct Declare.ExamDeclaration",
          "name": "",
          "type": "tuple"
        }
      ],
      "stateMutability": "view",
      "type": "function"
    },
    {
      "inputs": [
        {
          "internalType": "string",
          "name": "examHash",
          "type": "string"
        }
      ],
      "name": "enrollStudentToParticularExam",
      "outputs": [],
      "stateMutability": "nonpayable",
      "type": "function"
    },
    {
      "inputs": [],
      "name": "getEnrolledExamsOfStudent",
      "outputs": [
        {
          "components": [
            {
              "internalType": "string",
              "name": "examName",
              "type": "string"
            },
            {
              "internalType": "string",
              "name": "examDate",
              "type": "string"
            },
            {
              "internalType": "string",
              "name": "lastEnrollmentDate",
              "type": "string"
            },
            {
              "internalType": "uint256",
              "name": "examDuration",
              "type": "uint256"
            },
            {
              "internalType": "string",
              "name": "examHash",
              "type": "string"
            },
            {
              "internalType": "address",
              "name": "examContractAddress",
              "type": "address"
            },
            {
              "internalType": "uint256",
              "name": "creationTime",
              "type": "uint256"
            }
          ],
          "internalType": "struct Declare.ExamDeclaration[]",
          "name": "",
          "type": "tuple[]"
        }
      ],
      "stateMutability": "view",
      "type": "function"
    }
  ],
  "bytecode": "0x608060405234801561001057600080fd5b50615bfe806100206000396000f3fe60806040523480156200001157600080fd5b5060043610620000ac5760003560e01c8063795994d9116200006f578063795994d91462000199578063b284c3e014620001bb578063c6f734d814620001dd578063dfd18f301462000219578063f98fa14d146200023b57620000ac565b80630c0703bc14620000b15780633d03d61a14620000e75780634cda1e0b146200010757806361afcc7b1462000127578063707e7a2e146200015d575b600080fd5b620000cf6004803603810190620000c9919062001db3565b62000271565b604051620000de919062001e36565b60405180910390f35b620001056004803603810190620000ff919062001e8e565b620002b6565b005b6200012560048036038101906200011f919062001f92565b62000607565b005b6200014560048036038101906200013f919062001f92565b62000680565b6040516200015491906200214d565b60405180910390f35b6200017b600480360381019062000175919062002171565b6200098e565b6040516200019097969594939291906200222c565b60405180910390f35b620001a362000c4e565b604051620001b2919062002454565b60405180910390f35b620001c562001022565b604051620001d4919062002454565b60405180910390f35b620001fb6004803603810190620001f5919062001f92565b6200149a565b6040516200021097969594939291906200222c565b60405180910390f35b6200022362001752565b60405162000232919062002454565b60405180910390f35b62000259600480360381019062000253919062002478565b62001ac2565b604051620002689190620024aa565b60405180910390f35b6002828051602081018201805184825260208301602085012081835280955050505050506020528060005260406000206000915091509054906101000a900460ff1681565b600381908060018154018082558091505060019003906000526020600020016000909190919091509081620002ec919062002704565b50600033868686864287604051620003049062001b77565b620003169796959493929190620027eb565b604051809103906000f08015801562000333573d6000803e3d6000fd5b50905060006040518060e001604052808881526020018781526020018681526020018581526020018481526020018373ffffffffffffffffffffffffffffffffffffffff16815260200142815250905080600084604051620003969190620028c6565b90815260200160405180910390206000820151816000019081620003bb919062002704565b506020820151816001019081620003d3919062002704565b506040820151816002019081620003eb919062002704565b506060820151816003015560808201518160040190816200040d919062002704565b5060a08201518160050160006101000a81548173ffffffffffffffffffffffffffffffffffffffff021916908373ffffffffffffffffffffffffffffffffffffffff16021790555060c082015181600601559050506001600284604051620004769190620028c6565b908152602001604051809103902060003373ffffffffffffffffffffffffffffffffffffffff1673ffffffffffffffffffffffffffffffffffffffff16815260200190815260200160002060006101000a81548160ff021916908315150217905550600160003373ffffffffffffffffffffffffffffffffffffffff1673ffffffffffffffffffffffffffffffffffffffff168152602001908152602001600020819080600181540180825580915050600190039060005260206000209060070201600090919091909150600082015181600001908162000558919062002704565b50602082015181600101908162000570919062002704565b50604082015181600201908162000588919062002704565b50606082015181600301556080820151816004019081620005aa919062002704565b5060a08201518160050160006101000a81548173ffffffffffffffffffffffffffffffffffffffff021916908373ffffffffffffffffffffffffffffffffffffffff16021790555060c08201518160060155505050505050505050565b60016002826040516200061b9190620028c6565b908152602001604051809103902060003373ffffffffffffffffffffffffffffffffffffffff1673ffffffffffffffffffffffffffffffffffffffff16815260200190815260200160002060006101000a81548160ff02191690831515021790555050565b6200068a62001b85565b6000826040516200069c9190620028c6565b90815260200160405180910390206040518060e0016040529081600082018054620006c790620024fd565b80601f0160208091040260200160405190810160405280929190818152602001828054620006f590620024fd565b8015620007465780601f106200071a5761010080835404028352916020019162000746565b820191906000526020600020905b8154815290600101906020018083116200072857829003601f168201915b505050505081526020016001820180546200076190620024fd565b80601f01602080910402602001604051908101604052809291908181526020018280546200078f90620024fd565b8015620007e05780601f10620007b457610100808354040283529160200191620007e0565b820191906000526020600020905b815481529060010190602001808311620007c257829003601f168201915b50505050508152602001600282018054620007fb90620024fd565b80601f01602080910402602001604051908101604052809291908181526020018280546200082990620024fd565b80156200087a5780601f106200084e576101008083540402835291602001916200087a565b820191906000526020600020905b8154815290600101906020018083116200085c57829003601f168201915b50505050508152602001600382015481526020016004820180546200089f90620024fd565b80601f0160208091040260200160405190810160405280929190818152602001828054620008cd90620024fd565b80156200091e5780601f10620008f2576101008083540402835291602001916200091e565b820191906000526020600020905b8154815290600101906020018083116200090057829003601f168201915b505050505081526020016005820160009054906101000a900473ffffffffffffffffffffffffffffffffffffffff1673ffffffffffffffffffffffffffffffffffffffff1673ffffffffffffffffffffffffffffffffffffffff1681526020016006820154815250509050919050565b60016020528160005260406000208181548110620009ab57600080fd5b906000526020600020906007020160009150915050806000018054620009d190620024fd565b80601f0160208091040260200160405190810160405280929190818152602001828054620009ff90620024fd565b801562000a505780601f1062000a245761010080835404028352916020019162000a50565b820191906000526020600020905b81548152906001019060200180831162000a3257829003601f168201915b50505050509080600101805462000a6790620024fd565b80601f016020809104026020016040519081016040528092919081815260200182805462000a9590620024fd565b801562000ae65780601f1062000aba5761010080835404028352916020019162000ae6565b820191906000526020600020905b81548152906001019060200180831162000ac857829003601f168201915b50505050509080600201805462000afd90620024fd565b80601f016020809104026020016040519081016040528092919081815260200182805462000b2b90620024fd565b801562000b7c5780601f1062000b505761010080835404028352916020019162000b7c565b820191906000526020600020905b81548152906001019060200180831162000b5e57829003601f168201915b50505050509080600301549080600401805462000b9990620024fd565b80601f016020809104026020016040519081016040528092919081815260200182805462000bc790620024fd565b801562000c185780601f1062000bec5761010080835404028352916020019162000c18565b820191906000526020600020905b81548152906001019060200180831162000bfa57829003601f168201915b5050505050908060050160009054906101000a900473ffffffffffffffffffffffffffffffffffffffff16908060060154905087565b60606000600380549050905060008167ffffffffffffffff81111562000c795762000c7862001c07565b5b60405190808252806020026020018201604052801562000cb657816020015b62000ca262001b85565b81526020019060019003908162000c985790505b50905060005b82811015620010195760006003828154811062000cde5762000cdd620028df565b5b9060005260206000200160405162000cf791906200299d565b90815260200160405180910390206040518060e001604052908160008201805462000d2290620024fd565b80601f016020809104026020016040519081016040528092919081815260200182805462000d5090620024fd565b801562000da15780601f1062000d755761010080835404028352916020019162000da1565b820191906000526020600020905b81548152906001019060200180831162000d8357829003601f168201915b5050505050815260200160018201805462000dbc90620024fd565b80601f016020809104026020016040519081016040528092919081815260200182805462000dea90620024fd565b801562000e3b5780601f1062000e0f5761010080835404028352916020019162000e3b565b820191906000526020600020905b81548152906001019060200180831162000e1d57829003601f168201915b5050505050815260200160028201805462000e5690620024fd565b80601f016020809104026020016040519081016040528092919081815260200182805462000e8490620024fd565b801562000ed55780601f1062000ea95761010080835404028352916020019162000ed5565b820191906000526020600020905b81548152906001019060200180831162000eb757829003601f168201915b505050505081526020016003820154815260200160048201805462000efa90620024fd565b80601f016020809104026020016040519081016040528092919081815260200182805462000f2890620024fd565b801562000f795780601f1062000f4d5761010080835404028352916020019162000f79565b820191906000526020600020905b81548152906001019060200180831162000f5b57829003601f168201915b505050505081526020016005820160009054906101000a900473ffffffffffffffffffffffffffffffffffffffff1673ffffffffffffffffffffffffffffffffffffffff1673ffffffffffffffffffffffffffffffffffffffff16815260200160068201548152505082828151811062000ff85762000ff7620028df565b5b602002602001018190525080806200101090620029e5565b91505062000cbc565b50809250505090565b60606000600380549050905060008167ffffffffffffffff8111156200104d576200104c62001c07565b5b6040519080825280602002602001820160405280156200108a57816020015b6200107662001b85565b8152602001906001900390816200106c5790505b5090506000805b838110156200149057600260038281548110620010b357620010b2620028df565b5b90600052602060002001604051620010cc91906200299d565b908152602001604051809103902060003373ffffffffffffffffffffffffffffffffffffffff1673ffffffffffffffffffffffffffffffffffffffff16815260200190815260200160002060009054906101000a900460ff16156200147a57600060038281548110620011445762001143620028df565b5b906000526020600020016040516200115d91906200299d565b90815260200160405180910390206040518060e00160405290816000820180546200118890620024fd565b80601f0160208091040260200160405190810160405280929190818152602001828054620011b690620024fd565b8015620012075780601f10620011db5761010080835404028352916020019162001207565b820191906000526020600020905b815481529060010190602001808311620011e957829003601f168201915b505050505081526020016001820180546200122290620024fd565b80601f01602080910402602001604051908101604052809291908181526020018280546200125090620024fd565b8015620012a15780601f106200127557610100808354040283529160200191620012a1565b820191906000526020600020905b8154815290600101906020018083116200128357829003601f168201915b50505050508152602001600282018054620012bc90620024fd565b80601f0160208091040260200160405190810160405280929190818152602001828054620012ea90620024fd565b80156200133b5780601f106200130f576101008083540402835291602001916200133b565b820191906000526020600020905b8154815290600101906020018083116200131d57829003601f168201915b50505050508152602001600382015481526020016004820180546200136090620024fd565b80601f01602080910402602001604051908101604052809291908181526020018280546200138e90620024fd565b8015620013df5780601f10620013b357610100808354040283529160200191620013df565b820191906000526020600020905b815481529060010190602001808311620013c157829003601f168201915b505050505081526020016005820160009054906101000a900473ffffffffffffffffffffffffffffffffffffffff1673ffffffffffffffffffffffffffffffffffffffff1673ffffffffffffffffffffffffffffffffffffffff1681526020016006820154815250508383815181106200145e576200145d620028df565b5b602002602001018190525081806200147690620029e5565b9250505b80806200148790620029e5565b91505062001091565b5081935050505090565b600081805160208101820180518482526020830160208501208183528095505050505050600091509050806000018054620014d590620024fd565b80601f01602080910402602001604051908101604052809291908181526020018280546200150390620024fd565b8015620015545780601f10620015285761010080835404028352916020019162001554565b820191906000526020600020905b8154815290600101906020018083116200153657829003601f168201915b5050505050908060010180546200156b90620024fd565b80601f01602080910402602001604051908101604052809291908181526020018280546200159990620024fd565b8015620015ea5780601f10620015be57610100808354040283529160200191620015ea565b820191906000526020600020905b815481529060010190602001808311620015cc57829003601f168201915b5050505050908060020180546200160190620024fd565b80601f01602080910402602001604051908101604052809291908181526020018280546200162f90620024fd565b8015620016805780601f10620016545761010080835404028352916020019162001680565b820191906000526020600020905b8154815290600101906020018083116200166257829003601f168201915b5050505050908060030154908060040180546200169d90620024fd565b80601f0160208091040260200160405190810160405280929190818152602001828054620016cb90620024fd565b80156200171c5780601f10620016f0576101008083540402835291602001916200171c565b820191906000526020600020905b815481529060010190602001808311620016fe57829003601f168201915b5050505050908060050160009054906101000a900473ffffffffffffffffffffffffffffffffffffffff16908060060154905087565b6060600160003373ffffffffffffffffffffffffffffffffffffffff1673ffffffffffffffffffffffffffffffffffffffff168152602001908152602001600020805480602002602001604051908101604052809291908181526020016000905b8282101562001ab957838290600052602060002090600702016040518060e0016040529081600082018054620017e990620024fd565b80601f01602080910402602001604051908101604052809291908181526020018280546200181790620024fd565b8015620018685780601f106200183c5761010080835404028352916020019162001868565b820191906000526020600020905b8154815290600101906020018083116200184a57829003601f168201915b505050505081526020016001820180546200188390620024fd565b80601f0160208091040260200160405190810160405280929190818152602001828054620018b190620024fd565b8015620019025780601f10620018d65761010080835404028352916020019162001902565b820191906000526020600020905b815481529060010190602001808311620018e457829003601f168201915b505050505081526020016002820180546200191d90620024fd565b80601f01602080910402602001604051908101604052809291908181526020018280546200194b90620024fd565b80156200199c5780601f1062001970576101008083540402835291602001916200199c565b820191906000526020600020905b8154815290600101906020018083116200197e57829003601f168201915b5050505050815260200160038201548152602001600482018054620019c190620024fd565b80601f0160208091040260200160405190810160405280929190818152602001828054620019ef90620024fd565b801562001a405780601f1062001a145761010080835404028352916020019162001a40565b820191906000526020600020905b81548152906001019060200180831162001a2257829003601f168201915b505050505081526020016005820160009054906101000a900473ffffffffffffffffffffffffffffffffffffffff1673ffffffffffffffffffffffffffffffffffffffff1673ffffffffffffffffffffffffffffffffffffffff16815260200160068201548152505081526020019060010190620017b3565b50505050905090565b6003818154811062001ad357600080fd5b90600052602060002001600091509050805462001af090620024fd565b80601f016020809104026020016040519081016040528092919081815260200182805462001b1e90620024fd565b801562001b6f5780601f1062001b435761010080835404028352916020019162001b6f565b820191906000526020600020905b81548152906001019060200180831162001b5157829003601f168201915b505050505081565b6131968062002a3383390190565b6040518060e001604052806060815260200160608152602001606081526020016000815260200160608152602001600073ffffffffffffffffffffffffffffffffffffffff168152602001600081525090565b6000604051905090565b600080fd5b600080fd5b600080fd5b600080fd5b6000601f19601f8301169050919050565b7f4e487b7100000000000000000000000000000000000000000000000000000000600052604160045260246000fd5b62001c418262001bf6565b810181811067ffffffffffffffff8211171562001c635762001c6262001c07565b5b80604052505050565b600062001c7862001bd8565b905062001c86828262001c36565b919050565b600067ffffffffffffffff82111562001ca95762001ca862001c07565b5b62001cb48262001bf6565b9050602081019050919050565b82818337600083830152505050565b600062001ce762001ce18462001c8b565b62001c6c565b90508281526020810184848401111562001d065762001d0562001bf1565b5b62001d1384828562001cc1565b509392505050565b600082601f83011262001d335762001d3262001bec565b5b813562001d4584826020860162001cd0565b91505092915050565b600073ffffffffffffffffffffffffffffffffffffffff82169050919050565b600062001d7b8262001d4e565b9050919050565b62001d8d8162001d6e565b811462001d9957600080fd5b50565b60008135905062001dad8162001d82565b92915050565b6000806040838503121562001dcd5762001dcc62001be2565b5b600083013567ffffffffffffffff81111562001dee5762001ded62001be7565b5b62001dfc8582860162001d1b565b925050602062001e0f8582860162001d9c565b9150509250929050565b60008115159050919050565b62001e308162001e19565b82525050565b600060208201905062001e4d600083018462001e25565b92915050565b6000819050919050565b62001e688162001e53565b811462001e7457600080fd5b50565b60008135905062001e888162001e5d565b92915050565b600080600080600060a0868803121562001ead5762001eac62001be2565b5b600086013567ffffffffffffffff81111562001ece5762001ecd62001be7565b5b62001edc8882890162001d1b565b955050602086013567ffffffffffffffff81111562001f005762001eff62001be7565b5b62001f0e8882890162001d1b565b945050604086013567ffffffffffffffff81111562001f325762001f3162001be7565b5b62001f408882890162001d1b565b935050606062001f538882890162001e77565b925050608086013567ffffffffffffffff81111562001f775762001f7662001be7565b5b62001f858882890162001d1b565b9150509295509295909350565b60006020828403121562001fab5762001faa62001be2565b5b600082013567ffffffffffffffff81111562001fcc5762001fcb62001be7565b5b62001fda8482850162001d1b565b91505092915050565b600081519050919050565b600082825260208201905092915050565b60005b838110156200201f57808201518184015260208101905062002002565b60008484015250505050565b6000620020388262001fe3565b62002044818562001fee565b93506200205681856020860162001fff565b620020618162001bf6565b840191505092915050565b620020778162001e53565b82525050565b620020888162001d6e565b82525050565b600060e0830160008301518482036000860152620020ad82826200202b565b91505060208301518482036020860152620020c982826200202b565b91505060408301518482036040860152620020e582826200202b565b9150506060830151620020fc60608601826200206c565b50608083015184820360808601526200211682826200202b565b91505060a08301516200212d60a08601826200207d565b5060c08301516200214260c08601826200206c565b508091505092915050565b600060208201905081810360008301526200216981846200208e565b905092915050565b600080604083850312156200218b576200218a62001be2565b5b60006200219b8582860162001d9c565b9250506020620021ae8582860162001e77565b9150509250929050565b600082825260208201905092915050565b6000620021d68262001fe3565b620021e28185620021b8565b9350620021f481856020860162001fff565b620021ff8162001bf6565b840191505092915050565b620022158162001e53565b82525050565b620022268162001d6e565b82525050565b600060e082019050818103600083015262002248818a620021c9565b905081810360208301526200225e8189620021c9565b90508181036040830152620022748188620021c9565b90506200228560608301876200220a565b8181036080830152620022998186620021c9565b9050620022aa60a08301856200221b565b620022b960c08301846200220a565b98975050505050505050565b600081519050919050565b600082825260208201905092915050565b6000819050602082019050919050565b600060e08301600083015184820360008601526200231082826200202b565b915050602083015184820360208601526200232c82826200202b565b915050604083015184820360408601526200234882826200202b565b91505060608301516200235f60608601826200206c565b50608083015184820360808601526200237982826200202b565b91505060a08301516200239060a08601826200207d565b5060c0830151620023a560c08601826200206c565b508091505092915050565b6000620023be8383620022f1565b905092915050565b6000602082019050919050565b6000620023e082620022c5565b620023ec8185620022d0565b9350836020820285016200240085620022e1565b8060005b85811015620024425784840389528151620024208582620023b0565b94506200242d83620023c6565b925060208a0199505060018101905062002404565b50829750879550505050505092915050565b60006020820190508181036000830152620024708184620023d3565b905092915050565b60006020828403121562002491576200249062001be2565b5b6000620024a18482850162001e77565b91505092915050565b60006020820190508181036000830152620024c68184620021c9565b905092915050565b7f4e487b7100000000000000000000000000000000000000000000000000000000600052602260045260246000fd5b600060028204905060018216806200251657607f821691505b6020821081036200252c576200252b620024ce565b5b50919050565b60008190508160005260206000209050919050565b60006020601f8301049050919050565b600082821b905092915050565b600060088302620025967fffffffffffffffffffffffffffffffffffffffffffffffffffffffffffffffff8262002557565b620025a2868362002557565b95508019841693508086168417925050509392505050565b6000819050919050565b6000620025e5620025df620025d98462001e53565b620025ba565b62001e53565b9050919050565b6000819050919050565b6200260183620025c4565b620026196200261082620025ec565b84845462002564565b825550505050565b600090565b6200263062002621565b6200263d818484620025f6565b505050565b5b8181101562002665576200265960008262002626565b60018101905062002643565b5050565b601f821115620026b4576200267e8162002532565b620026898462002547565b8101602085101562002699578190505b620026b1620026a88562002547565b83018262002642565b50505b505050565b600082821c905092915050565b6000620026d960001984600802620026b9565b1980831691505092915050565b6000620026f48383620026c6565b9150826002028217905092915050565b6200270f8262001fe3565b67ffffffffffffffff8111156200272b576200272a62001c07565b5b620027378254620024fd565b6200274482828562002669565b600060209050601f8311600181146200277c576000841562002767578287015190505b620027738582620026e6565b865550620027e3565b601f1984166200278c8662002532565b60005b82811015620027b6578489015182556001820191506020850194506020810190506200278f565b86831015620027d65784890151620027d2601f891682620026c6565b8355505b6001600288020188555050505b505050505050565b600060e08201905062002802600083018a6200221b565b8181036020830152620028168189620021c9565b905081810360408301526200282c8188620021c9565b90508181036060830152620028428187620021c9565b90506200285360808301866200220a565b6200286260a08301856200220a565b81810360c0830152620028768184620021c9565b905098975050505050505050565b600081905092915050565b60006200289c8262001fe3565b620028a8818562002884565b9350620028ba81856020860162001fff565b80840191505092915050565b6000620028d482846200288f565b915081905092915050565b7f4e487b7100000000000000000000000000000000000000000000000000000000600052603260045260246000fd5b600081546200291d81620024fd565b62002929818662002884565b945060018216600081146200294757600181146200295d5762002994565b60ff198316865281151582028601935062002994565b620029688562002532565b60005b838110156200298c578154818901526001820191506020810190506200296b565b838801955050505b50505092915050565b6000620029ab82846200290e565b915081905092915050565b7f4e487b7100000000000000000000000000000000000000000000000000000000600052601160045260246000fd5b6000620029f28262001e53565b91507fffffffffffffffffffffffffffffffffffffffffffffffffffffffffffffffff820362002a275762002a26620029b6565b5b60018201905091905056fe60806040526000600760006101000a81548160ff0219169083151502179055503480156200002c57600080fd5b506040516200319638038062003196833981810160405281019062000052919062000380565b866000806101000a81548173ffffffffffffffffffffffffffffffffffffffff021916908373ffffffffffffffffffffffffffffffffffffffff1602179055508560019081620000a39190620006f0565b508460029081620000b59190620006f0565b508360039081620000c79190620006f0565b50826004819055506001600c60008973ffffffffffffffffffffffffffffffffffffffff1673ffffffffffffffffffffffffffffffffffffffff16815260200190815260200160002060006101000a81548160ff0219169083151502179055508160058190555080600690816200013f9190620006f0565b5050505050505050620007d7565b6000604051905090565b600080fd5b600080fd5b600073ffffffffffffffffffffffffffffffffffffffff82169050919050565b60006200018e8262000161565b9050919050565b620001a08162000181565b8114620001ac57600080fd5b50565b600081519050620001c08162000195565b92915050565b600080fd5b600080fd5b6000601f19601f8301169050919050565b7f4e487b7100000000000000000000000000000000000000000000000000000000600052604160045260246000fd5b6200021b82620001d0565b810181811067ffffffffffffffff821117156200023d576200023c620001e1565b5b80604052505050565b6000620002526200014d565b905062000260828262000210565b919050565b600067ffffffffffffffff821115620002835762000282620001e1565b5b6200028e82620001d0565b9050602081019050919050565b60005b83811015620002bb5780820151818401526020810190506200029e565b60008484015250505050565b6000620002de620002d88462000265565b62000246565b905082815260208101848484011115620002fd57620002fc620001cb565b5b6200030a8482856200029b565b509392505050565b600082601f8301126200032a5762000329620001c6565b5b81516200033c848260208601620002c7565b91505092915050565b6000819050919050565b6200035a8162000345565b81146200036657600080fd5b50565b6000815190506200037a816200034f565b92915050565b600080600080600080600060e0888a031215620003a257620003a162000157565b5b6000620003b28a828b01620001af565b975050602088015167ffffffffffffffff811115620003d657620003d56200015c565b5b620003e48a828b0162000312565b965050604088015167ffffffffffffffff8111156200040857620004076200015c565b5b620004168a828b0162000312565b955050606088015167ffffffffffffffff8111156200043a57620004396200015c565b5b620004488a828b0162000312565b94505060806200045b8a828b0162000369565b93505060a06200046e8a828b0162000369565b92505060c088015167ffffffffffffffff8111156200049257620004916200015c565b5b620004a08a828b0162000312565b91505092959891949750929550565b600081519050919050565b7f4e487b7100000000000000000000000000000000000000000000000000000000600052602260045260246000fd5b600060028204905060018216806200050257607f821691505b602082108103620005185762000517620004ba565b5b50919050565b60008190508160005260206000209050919050565b60006020601f8301049050919050565b600082821b905092915050565b600060088302620005827fffffffffffffffffffffffffffffffffffffffffffffffffffffffffffffffff8262000543565b6200058e868362000543565b95508019841693508086168417925050509392505050565b6000819050919050565b6000620005d1620005cb620005c58462000345565b620005a6565b62000345565b9050919050565b6000819050919050565b620005ed83620005b0565b62000605620005fc82620005d8565b84845462000550565b825550505050565b600090565b6200061c6200060d565b62000629818484620005e2565b505050565b5b8181101562000651576200064560008262000612565b6001810190506200062f565b5050565b601f821115620006a0576200066a816200051e565b620006758462000533565b8101602085101562000685578190505b6200069d620006948562000533565b8301826200062e565b50505b505050565b600082821c905092915050565b6000620006c560001984600802620006a5565b1980831691505092915050565b6000620006e08383620006b2565b9150826002028217905092915050565b620006fb82620004af565b67ffffffffffffffff811115620007175762000716620001e1565b5b620007238254620004e9565b6200073082828562000655565b600060209050601f83116001811462000768576000841562000753578287015190505b6200075f8582620006d2565b865550620007cf565b601f19841662000778866200051e565b60005b82811015620007a2578489015182556001820191506020850194506020810190506200077b565b86831015620007c25784890151620007be601f891682620006b2565b8355505b6001600288020188555050505b505050505050565b6129af80620007e76000396000f3fe608060405234801561001057600080fd5b50600436106101425760003560e01c80639000b3d6116100b8578063c7f8ffe41161007c578063c7f8ffe41461036e578063c9b5901d1461038c578063ca2dfd0a146103a8578063ce3d6aa9146103c4578063d8270dce146103f4578063e9e309271461041257610142565b80639000b3d6146102de57806398378bfe146102fa578063ad13c04414610316578063b32dece114610332578063b439548d1461035057610142565b8063323046b11161010a578063323046b1146101ef5780633878622e1461020d5780634e6cc3c11461023d5780636c8244871461025b5780636e5704031461028b578063729d1dcb146102a757610142565b806306fdde03146101475780630fb5a6b41461016557806319839df814610183578063267fd225146101a15780632ebcfc13146101bf575b600080fd5b61014f610430565b60405161015c9190611b1e565b60405180910390f35b61016d6104be565b60405161017a9190611b59565b60405180910390f35b61018b6104c4565b6040516101989190611b1e565b60405180910390f35b6101a9610552565b6040516101b69190611b1e565b60405180910390f35b6101d960048036038101906101d49190611bb4565b6105e0565b6040516101e69190611c22565b60405180910390f35b6101f761061f565b6040516102049190611b1e565b60405180910390f35b61022760048036038101906102229190611c69565b6106ad565b6040516102349190611cb1565b60405180910390f35b610245610706565b6040516102529190611b1e565b60405180910390f35b61027560048036038101906102709190611c69565b610798565b6040516102829190611cb1565b60405180910390f35b6102a560048036038101906102a09190611e01565b6107b8565b005b6102c160048036038101906102bc9190611c69565b6108d5565b6040516102d5989796959493929190611e79565b60405180910390f35b6102f860048036038101906102f39190611c69565b610b84565b005b610314600480360381019061030f9190611f13565b610c6d565b005b610330600480360381019061032b9190611fba565b610f40565b005b61033a610fee565b6040516103479190611b1e565b60405180910390f35b610358611080565b6040516103659190612130565b60405180910390f35b6103766113c7565b6040516103839190611cb1565b60405180910390f35b6103a660048036038101906103a19190611c69565b6113da565b005b6103c260048036038101906103bd9190611c69565b6114c4565b005b6103de60048036038101906103d99190611c69565b6115ad565b6040516103eb9190611cb1565b60405180910390f35b6103fc611606565b6040516104099190611b59565b60405180910390f35b61041a61160c565b60405161042791906122d9565b60405180910390f35b6001805461043d9061232a565b80601f01602080910402602001604051908101604052809291908181526020018280546104699061232a565b80156104b65780601f1061048b576101008083540402835291602001916104b6565b820191906000526020600020905b81548152906001019060200180831161049957829003601f168201915b505050505081565b60045481565b600380546104d19061232a565b80601f01602080910402602001604051908101604052809291908181526020018280546104fd9061232a565b801561054a5780601f1061051f5761010080835404028352916020019161054a565b820191906000526020600020905b81548152906001019060200180831161052d57829003601f168201915b505050505081565b6006805461055f9061232a565b80601f016020809104026020016040519081016040528092919081815260200182805461058b9061232a565b80156105d85780601f106105ad576101008083540402835291602001916105d8565b820191906000526020600020905b8154815290600101906020018083116105bb57829003601f168201915b505050505081565b600b81815481106105f057600080fd5b906000526020600020016000915054906101000a900473ffffffffffffffffffffffffffffffffffffffff1681565b6002805461062c9061232a565b80601f01602080910402602001604051908101604052809291908181526020018280546106589061232a565b80156106a55780601f1061067a576101008083540402835291602001916106a5565b820191906000526020600020905b81548152906001019060200180831161068857829003601f168201915b505050505081565b6000600a60008373ffffffffffffffffffffffffffffffffffffffff1673ffffffffffffffffffffffffffffffffffffffff16815260200190815260200160002060030160009054906101000a900460ff169050919050565b6060600980546107159061232a565b80601f01602080910402602001604051908101604052809291908181526020018280546107419061232a565b801561078e5780601f106107635761010080835404028352916020019161078e565b820191906000526020600020905b81548152906001019060200180831161077157829003601f168201915b5050505050905090565b600c6020528060005260406000206000915054906101000a900460ff1681565b3373ffffffffffffffffffffffffffffffffffffffff1660008054906101000a900473ffffffffffffffffffffffffffffffffffffffff1673ffffffffffffffffffffffffffffffffffffffff1614610846576040517f08c379a000000000000000000000000000000000000000000000000000000000815260040161083d906123cd565b60405180910390fd5b600760009054906101000a900460ff1615610896576040517f08c379a000000000000000000000000000000000000000000000000000000000815260040161088d90612439565b60405180910390fd5b81600890816108a59190612605565b5080600990816108b59190612605565b506001600760006101000a81548160ff0219169083151502179055505050565b600a6020528060005260406000206000915090508060000180546108f89061232a565b80601f01602080910402602001604051908101604052809291908181526020018280546109249061232a565b80156109715780601f1061094657610100808354040283529160200191610971565b820191906000526020600020905b81548152906001019060200180831161095457829003601f168201915b5050505050908060010180546109869061232a565b80601f01602080910402602001604051908101604052809291908181526020018280546109b29061232a565b80156109ff5780601f106109d4576101008083540402835291602001916109ff565b820191906000526020600020905b8154815290600101906020018083116109e257829003601f168201915b505050505090806002018054610a149061232a565b80601f0160208091040260200160405190810160405280929190818152602001828054610a409061232a565b8015610a8d5780601f10610a6257610100808354040283529160200191610a8d565b820191906000526020600020905b815481529060010190602001808311610a7057829003601f168201915b5050505050908060030160009054906101000a900460ff16908060030160019054906101000a900460ff16908060030160029054906101000a900473ffffffffffffffffffffffffffffffffffffffff16908060030160169054906101000a900460ff1690806004018054610b019061232a565b80601f0160208091040260200160405190810160405280929190818152602001828054610b2d9061232a565b8015610b7a5780601f10610b4f57610100808354040283529160200191610b7a565b820191906000526020600020905b815481529060010190602001808311610b5d57829003601f168201915b5050505050905088565b3373ffffffffffffffffffffffffffffffffffffffff1660008054906101000a900473ffffffffffffffffffffffffffffffffffffffff1673ffffffffffffffffffffffffffffffffffffffff1614610c12576040517f08c379a0000000000000000000000000000000000000000000000000000000008152600401610c0990612749565b60405180910390fd5b6001600c60008373ffffffffffffffffffffffffffffffffffffffff1673ffffffffffffffffffffffffffffffffffffffff16815260200190815260200160002060006101000a81548160ff02191690831515021790555050565b600a60003373ffffffffffffffffffffffffffffffffffffffff1673ffffffffffffffffffffffffffffffffffffffff16815260200190815260200160002060030160019054906101000a900460ff1615610cfd576040517f08c379a0000000000000000000000000000000000000000000000000000000008152600401610cf4906127b5565b60405180910390fd5b600033905060006040518061010001604052808681526020018581526020018481526020016000151581526020016001151581526020018373ffffffffffffffffffffffffffffffffffffffff1681526020016000151581526020016040518060400160405280600281526020017f4e41000000000000000000000000000000000000000000000000000000000000815250815250905080600a60008473ffffffffffffffffffffffffffffffffffffffff1673ffffffffffffffffffffffffffffffffffffffff1681526020019081526020016000206000820151816000019081610de99190612605565b506020820151816001019081610dff9190612605565b506040820151816002019081610e159190612605565b5060608201518160030160006101000a81548160ff02191690831515021790555060808201518160030160016101000a81548160ff02191690831515021790555060a08201518160030160026101000a81548173ffffffffffffffffffffffffffffffffffffffff021916908373ffffffffffffffffffffffffffffffffffffffff16021790555060c08201518160030160166101000a81548160ff02191690831515021790555060e0820151816004019081610ed29190612605565b50905050600b829080600181540180825580915050600190039060005260206000200160009091909190916101000a81548173ffffffffffffffffffffffffffffffffffffffff021916908373ffffffffffffffffffffffffffffffffffffffff1602179055505050505050565b80600a60003373ffffffffffffffffffffffffffffffffffffffff1673ffffffffffffffffffffffffffffffffffffffff1681526020019081526020016000206004019081610f8f9190612605565b506001600a60003373ffffffffffffffffffffffffffffffffffffffff1673ffffffffffffffffffffffffffffffffffffffff16815260200190815260200160002060030160166101000a81548160ff02191690831515021790555050565b606060088054610ffd9061232a565b80601f01602080910402602001604051908101604052809291908181526020018280546110299061232a565b80156110765780601f1061104b57610100808354040283529160200191611076565b820191906000526020600020905b81548152906001019060200180831161105957829003601f168201915b5050505050905090565b611088611a2d565b600a60003373ffffffffffffffffffffffffffffffffffffffff1673ffffffffffffffffffffffffffffffffffffffff168152602001908152602001600020604051806101000160405290816000820180546110e39061232a565b80601f016020809104026020016040519081016040528092919081815260200182805461110f9061232a565b801561115c5780601f106111315761010080835404028352916020019161115c565b820191906000526020600020905b81548152906001019060200180831161113f57829003601f168201915b505050505081526020016001820180546111759061232a565b80601f01602080910402602001604051908101604052809291908181526020018280546111a19061232a565b80156111ee5780601f106111c3576101008083540402835291602001916111ee565b820191906000526020600020905b8154815290600101906020018083116111d157829003601f168201915b505050505081526020016002820180546112079061232a565b80601f01602080910402602001604051908101604052809291908181526020018280546112339061232a565b80156112805780601f1061125557610100808354040283529160200191611280565b820191906000526020600020905b81548152906001019060200180831161126357829003601f168201915b505050505081526020016003820160009054906101000a900460ff161515151581526020016003820160019054906101000a900460ff161515151581526020016003820160029054906101000a900473ffffffffffffffffffffffffffffffffffffffff1673ffffffffffffffffffffffffffffffffffffffff1673ffffffffffffffffffffffffffffffffffffffff1681526020016003820160169054906101000a900460ff161515151581526020016004820180546113409061232a565b80601f016020809104026020016040519081016040528092919081815260200182805461136c9061232a565b80156113b95780601f1061138e576101008083540402835291602001916113b9565b820191906000526020600020905b81548152906001019060200180831161139c57829003601f168201915b505050505081525050905090565b600760009054906101000a900460ff1681565b600c60003373ffffffffffffffffffffffffffffffffffffffff1673ffffffffffffffffffffffffffffffffffffffff16815260200190815260200160002060009054906101000a900460ff16611466576040517f08c379a000000000000000000000000000000000000000000000000000000000815260040161145d90612821565b60405180910390fd5b6001600a60008373ffffffffffffffffffffffffffffffffffffffff1673ffffffffffffffffffffffffffffffffffffffff16815260200190815260200160002060030160006101000a81548160ff02191690831515021790555050565b3373ffffffffffffffffffffffffffffffffffffffff1660008054906101000a900473ffffffffffffffffffffffffffffffffffffffff1673ffffffffffffffffffffffffffffffffffffffff1614611552576040517f08c379a0000000000000000000000000000000000000000000000000000000008152600401611549906128b3565b60405180910390fd5b6000600c60008373ffffffffffffffffffffffffffffffffffffffff1673ffffffffffffffffffffffffffffffffffffffff16815260200190815260200160002060006101000a81548160ff02191690831515021790555050565b6000600a60008373ffffffffffffffffffffffffffffffffffffffff1673ffffffffffffffffffffffffffffffffffffffff16815260200190815260200160002060030160019054906101000a900460ff169050919050565b60055481565b60606000600b80549050905060008167ffffffffffffffff81111561163457611633611cd6565b5b60405190808252806020026020018201604052801561166d57816020015b61165a611a2d565b8152602001906001900390816116525790505b50905060005b82811015611a2457600a6000600b8381548110611693576116926128d3565b5b9060005260206000200160009054906101000a900473ffffffffffffffffffffffffffffffffffffffff1673ffffffffffffffffffffffffffffffffffffffff1673ffffffffffffffffffffffffffffffffffffffff168152602001908152602001600020604051806101000160405290816000820180546117149061232a565b80601f01602080910402602001604051908101604052809291908181526020018280546117409061232a565b801561178d5780601f106117625761010080835404028352916020019161178d565b820191906000526020600020905b81548152906001019060200180831161177057829003601f168201915b505050505081526020016001820180546117a69061232a565b80601f01602080910402602001604051908101604052809291908181526020018280546117d29061232a565b801561181f5780601f106117f45761010080835404028352916020019161181f565b820191906000526020600020905b81548152906001019060200180831161180257829003601f168201915b505050505081526020016002820180546118389061232a565b80601f01602080910402602001604051908101604052809291908181526020018280546118649061232a565b80156118b15780601f10611886576101008083540402835291602001916118b1565b820191906000526020600020905b81548152906001019060200180831161189457829003601f168201915b505050505081526020016003820160009054906101000a900460ff161515151581526020016003820160019054906101000a900460ff161515151581526020016003820160029054906101000a900473ffffffffffffffffffffffffffffffffffffffff1673ffffffffffffffffffffffffffffffffffffffff1673ffffffffffffffffffffffffffffffffffffffff1681526020016003820160169054906101000a900460ff161515151581526020016004820180546119719061232a565b80601f016020809104026020016040519081016040528092919081815260200182805461199d9061232a565b80156119ea5780601f106119bf576101008083540402835291602001916119ea565b820191906000526020600020905b8154815290600101906020018083116119cd57829003601f168201915b505050505081525050828281518110611a0657611a056128d3565b5b60200260200101819052508080611a1c90612931565b915050611673565b50809250505090565b604051806101000160405280606081526020016060815260200160608152602001600015158152602001600015158152602001600073ffffffffffffffffffffffffffffffffffffffff168152602001600015158152602001606081525090565b600081519050919050565b600082825260208201905092915050565b60005b83811015611ac8578082015181840152602081019050611aad565b60008484015250505050565b6000601f19601f8301169050919050565b6000611af082611a8e565b611afa8185611a99565b9350611b0a818560208601611aaa565b611b1381611ad4565b840191505092915050565b60006020820190508181036000830152611b388184611ae5565b905092915050565b6000819050919050565b611b5381611b40565b82525050565b6000602082019050611b6e6000830184611b4a565b92915050565b6000604051905090565b600080fd5b600080fd5b611b9181611b40565b8114611b9c57600080fd5b50565b600081359050611bae81611b88565b92915050565b600060208284031215611bca57611bc9611b7e565b5b6000611bd884828501611b9f565b91505092915050565b600073ffffffffffffffffffffffffffffffffffffffff82169050919050565b6000611c0c82611be1565b9050919050565b611c1c81611c01565b82525050565b6000602082019050611c376000830184611c13565b92915050565b611c4681611c01565b8114611c5157600080fd5b50565b600081359050611c6381611c3d565b92915050565b600060208284031215611c7f57611c7e611b7e565b5b6000611c8d84828501611c54565b91505092915050565b60008115159050919050565b611cab81611c96565b82525050565b6000602082019050611cc66000830184611ca2565b92915050565b600080fd5b600080fd5b7f4e487b7100000000000000000000000000000000000000000000000000000000600052604160045260246000fd5b611d0e82611ad4565b810181811067ffffffffffffffff82111715611d2d57611d2c611cd6565b5b80604052505050565b6000611d40611b74565b9050611d4c8282611d05565b919050565b600067ffffffffffffffff821115611d6c57611d6b611cd6565b5b611d7582611ad4565b9050602081019050919050565b82818337600083830152505050565b6000611da4611d9f84611d51565b611d36565b905082815260208101848484011115611dc057611dbf611cd1565b5b611dcb848285611d82565b509392505050565b600082601f830112611de857611de7611ccc565b5b8135611df8848260208601611d91565b91505092915050565b60008060408385031215611e1857611e17611b7e565b5b600083013567ffffffffffffffff811115611e3657611e35611b83565b5b611e4285828601611dd3565b925050602083013567ffffffffffffffff811115611e6357611e62611b83565b5b611e6f85828601611dd3565b9150509250929050565b6000610100820190508181036000830152611e94818b611ae5565b90508181036020830152611ea8818a611ae5565b90508181036040830152611ebc8189611ae5565b9050611ecb6060830188611ca2565b611ed86080830187611ca2565b611ee560a0830186611c13565b611ef260c0830185611ca2565b81810360e0830152611f048184611ae5565b90509998505050505050505050565b600080600060608486031215611f2c57611f2b611b7e565b5b600084013567ffffffffffffffff811115611f4a57611f49611b83565b5b611f5686828701611dd3565b935050602084013567ffffffffffffffff811115611f7757611f76611b83565b5b611f8386828701611dd3565b925050604084013567ffffffffffffffff811115611fa457611fa3611b83565b5b611fb086828701611dd3565b9150509250925092565b600060208284031215611fd057611fcf611b7e565b5b600082013567ffffffffffffffff811115611fee57611fed611b83565b5b611ffa84828501611dd3565b91505092915050565b600082825260208201905092915050565b600061201f82611a8e565b6120298185612003565b9350612039818560208601611aaa565b61204281611ad4565b840191505092915050565b61205681611c96565b82525050565b61206581611c01565b82525050565b60006101008301600083015184820360008601526120898282612014565b915050602083015184820360208601526120a38282612014565b915050604083015184820360408601526120bd8282612014565b91505060608301516120d2606086018261204d565b5060808301516120e5608086018261204d565b5060a08301516120f860a086018261205c565b5060c083015161210b60c086018261204d565b5060e083015184820360e08601526121238282612014565b9150508091505092915050565b6000602082019050818103600083015261214a818461206b565b905092915050565b600081519050919050565b600082825260208201905092915050565b6000819050602082019050919050565b600061010083016000830151848203600086015261219c8282612014565b915050602083015184820360208601526121b68282612014565b915050604083015184820360408601526121d08282612014565b91505060608301516121e5606086018261204d565b5060808301516121f8608086018261204d565b5060a083015161220b60a086018261205c565b5060c083015161221e60c086018261204d565b5060e083015184820360e08601526122368282612014565b9150508091505092915050565b600061224f838361217e565b905092915050565b6000602082019050919050565b600061226f82612152565b612279818561215d565b93508360208202850161228b8561216e565b8060005b858110156122c757848403895281516122a88582612243565b94506122b383612257565b925060208a0199505060018101905061228f565b50829750879550505050505092915050565b600060208201905081810360008301526122f38184612264565b905092915050565b7f4e487b7100000000000000000000000000000000000000000000000000000000600052602260045260246000fd5b6000600282049050600182168061234257607f821691505b602082108103612355576123546122fb565b5b50919050565b7f596f7520617265206e6f7420617574686f72697a656420746f2063726561746560008201527f206578616d000000000000000000000000000000000000000000000000000000602082015250565b60006123b7602583611a99565b91506123c28261235b565b604082019050919050565b600060208201905081810360008301526123e6816123aa565b9050919050565b7f4578616d20697320616c72656164792063726561746564000000000000000000600082015250565b6000612423601783611a99565b915061242e826123ed565b602082019050919050565b6000602082019050818103600083015261245281612416565b9050919050565b60008190508160005260206000209050919050565b60006020601f8301049050919050565b600082821b905092915050565b6000600883026124bb7fffffffffffffffffffffffffffffffffffffffffffffffffffffffffffffffff8261247e565b6124c5868361247e565b95508019841693508086168417925050509392505050565b6000819050919050565b60006125026124fd6124f884611b40565b6124dd565b611b40565b9050919050565b6000819050919050565b61251c836124e7565b61253061252882612509565b84845461248b565b825550505050565b600090565b612545612538565b612550818484612513565b505050565b5b818110156125745761256960008261253d565b600181019050612556565b5050565b601f8211156125b95761258a81612459565b6125938461246e565b810160208510156125a2578190505b6125b66125ae8561246e565b830182612555565b50505b505050565b600082821c905092915050565b60006125dc600019846008026125be565b1980831691505092915050565b60006125f583836125cb565b9150826002028217905092915050565b61260e82611a8e565b67ffffffffffffffff81111561262757612626611cd6565b5b612631825461232a565b61263c828285612578565b600060209050601f83116001811461266f576000841561265d578287015190505b61266785826125e9565b8655506126cf565b601f19841661267d86612459565b60005b828110156126a557848901518255600182019150602085019450602081019050612680565b868310156126c257848901516126be601f8916826125cb565b8355505b6001600288020188555050505b505050505050565b7f596f7520617265206e6f7420617574686f72697a656420746f2061646420766560008201527f7269666965720000000000000000000000000000000000000000000000000000602082015250565b6000612733602683611a99565b915061273e826126d7565b604082019050919050565b6000602082019050818103600083015261276281612726565b9050919050565b7f596f752061726520616c726561647920656e726f6c6c65640000000000000000600082015250565b600061279f601883611a99565b91506127aa82612769565b602082019050919050565b600060208201905081810360008301526127ce81612792565b9050919050565b7f596f7520617265206e6f7420617574686f72697a656420746f20766572696679600082015250565b600061280b602083611a99565b9150612816826127d5565b602082019050919050565b6000602082019050818103600083015261283a816127fe565b9050919050565b7f596f7520617265206e6f7420617574686f72697a656420746f2072656d6f766560008201527f2076657269666965720000000000000000000000000000000000000000000000602082015250565b600061289d602983611a99565b91506128a882612841565b604082019050919050565b600060208201905081810360008301526128cc81612890565b9050919050565b7f4e487b7100000000000000000000000000000000000000000000000000000000600052603260045260246000fd5b7f4e487b7100000000000000000000000000000000000000000000000000000000600052601160045260246000fd5b600061293c82611b40565b91507fffffffffffffffffffffffffffffffffffffffffffffffffffffffffffffffff820361296e5761296d612902565b5b60018201905091905056fea264697066735822122019a16bc3b8fe84eb907c149ebb4eb9b9b41ab857016466d8fcd5e56ee6dcd27164736f6c63430008130033a2646970667358221220d224b7da16107e52352daa1b060490cc01308ae3e1d41b1e063901dda34e71ae64736f6c63430008130033",
  "immutableReferences": {},
  "source": "// SPDX-License-Identifier: MIT\r\npragma solidity ^0.8.19;\r\n\r\nimport \"./Exam.sol\";\r\n\r\ncontract Declare {\r\n    struct ExamDeclaration {\r\n        string examName;\r\n        string examDate;\r\n        string lastEnrollmentDate;\r\n        uint examDuration;\r\n        string examHash;\r\n        address examContractAddress;\r\n        uint creationTime;\r\n    }\r\n\r\n    mapping(string => ExamDeclaration) public declarations;\r\n\r\n    // Mapping from owner address to exam declaration\r\n    mapping(address => ExamDeclaration[]) public ownerToExamDeclaration;\r\n\r\n    // optimize ?\r\n    mapping(string => mapping(address => bool)) public allExamEnrollment;\r\n    string[] public examHashes;\r\n\r\n    // Function to declare an exam\r\n    function declareExam(\r\n        string memory _name,\r\n        string memory _date,\r\n        string memory _lastEnrollmentDate,\r\n        uint _duration,\r\n        string memory _exam_hash\r\n    ) public {\r\n        examHashes.push(_exam_hash);\r\n        Exam test = new Exam(\r\n            msg.sender,\r\n            _name,\r\n            _date,\r\n            _lastEnrollmentDate,\r\n            _duration,\r\n            block.timestamp,\r\n            _exam_hash\r\n        );\r\n\r\n        ExamDeclaration memory newExam = ExamDeclaration(\r\n            _name,\r\n            _date,\r\n            _lastEnrollmentDate,\r\n            _duration,\r\n            _exam_hash,\r\n            address(test),\r\n            block.timestamp\r\n        );\r\n        declarations[_exam_hash] = newExam;\r\n        allExamEnrollment[_exam_hash][msg.sender] = true;\r\n        ownerToExamDeclaration[msg.sender].push(newExam);\r\n    }\r\n\r\n    // Get all Exams declared by the owner\r\n    function getExamsDeclaredByOwner()\r\n        public\r\n        view\r\n        returns (ExamDeclaration[] memory)\r\n    {\r\n        return ownerToExamDeclaration[msg.sender];\r\n    }\r\n\r\n    // Function to get the list of all exams\r\n    function getAllExams() public view returns (ExamDeclaration[] memory) {\r\n        uint arrayLength = examHashes.length;\r\n        ExamDeclaration[] memory examArray = new ExamDeclaration[](arrayLength);\r\n        for (uint i = 0; i < arrayLength; i++) {\r\n            examArray[i] = declarations[examHashes[i]];\r\n        }\r\n        return examArray;\r\n    }\r\n\r\n    // Function to get the details of a particular exam\r\n    function getExam(\r\n        string memory examHash\r\n    ) public view returns (ExamDeclaration memory) {\r\n        return declarations[examHash];\r\n    }\r\n\r\n    // Function to enroll a student to a particular exam\r\n    function enrollStudentToParticularExam(string memory examHash) public {\r\n        allExamEnrollment[examHash][msg.sender] = true;\r\n    }\r\n\r\n    // Function to retrieve the list of exams that the student has enrolled in\r\n    function getEnrolledExamsOfStudent()\r\n        public\r\n        view\r\n        returns (ExamDeclaration[] memory)\r\n    {\r\n        uint arrayLength = examHashes.length;\r\n        ExamDeclaration[] memory examArray = new ExamDeclaration[](arrayLength);\r\n        uint j = 0;\r\n        for (uint i = 0; i < arrayLength; i++) {\r\n            if (allExamEnrollment[examHashes[i]][msg.sender]) {\r\n                examArray[j] = declarations[examHashes[i]];\r\n                j++;\r\n            }\r\n        }\r\n        return examArray;\r\n    }\r\n}\r\n",
  "sourcePath": "D:\\Web3 Examination Portal\\contracts\\Declare.sol",
  "compiler": {
    "name": "solc",
    "version": "0.8.19+commit.7dd6d404.Emscripten.clang"
  },
  "schemaVersion": "3.4.16",
  "updatedAt": "2025-02-27T10:43:34.135Z",
  "devdoc": {
    "kind": "dev",
    "methods": {},
    "version": 1
  },
  "userdoc": {
    "kind": "user",
    "methods": {},
    "version": 1
  }
}