{
  "contractName": "Declare",
  "abi": [
    {
      "inputs": [
        {
          "internalType": "string",
          "name": "",
          "type": "string"
        },
        {
          "internalType": "address",
          "name": "",
          "type": "address"
        }
      ],
      "name": "allExamEnrollment",
      "outputs": [
        {
          "internalType": "bool",
          "name": "",
          "type": "bool"
        }
      ],
      "stateMutability": "view",
      "type": "function",
      "constant": true
    },
    {
      "inputs": [
        {
          "internalType": "string",
          "name": "",
          "type": "string"
        }
      ],
      "name": "declarations",
      "outputs": [
        {
          "internalType": "string",
          "name": "examName",
          "type": "string"
        },
        {
          "internalType": "string",
          "name": "examDate",
          "type": "string"
        },
        {
          "internalType": "string",
          "name": "lastEnrollmentDate",
          "type": "string"
        },
        {
          "internalType": "uint256",
          "name": "examDuration",
          "type": "uint256"
        },
        {
          "internalType": "string",
          "name": "examHash",
          "type": "string"
        },
        {
          "internalType": "address",
          "name": "examContractAddress",
          "type": "address"
        },
        {
          "internalType": "uint256",
          "name": "creationTime",
          "type": "uint256"
        }
      ],
      "stateMutability": "view",
      "type": "function",
      "constant": true
    },
    {
      "inputs": [
        {
          "internalType": "uint256",
          "name": "",
          "type": "uint256"
        }
      ],
      "name": "examHashes",
      "outputs": [
        {
          "internalType": "string",
          "name": "",
          "type": "string"
        }
      ],
      "stateMutability": "view",
      "type": "function",
      "constant": true
    },
    {
      "inputs": [
        {
          "internalType": "address",
          "name": "",
          "type": "address"
        },
        {
          "internalType": "uint256",
          "name": "",
          "type": "uint256"
        }
      ],
      "name": "ownerToExamDeclaration",
      "outputs": [
        {
          "internalType": "string",
          "name": "examName",
          "type": "string"
        },
        {
          "internalType": "string",
          "name": "examDate",
          "type": "string"
        },
        {
          "internalType": "string",
          "name": "lastEnrollmentDate",
          "type": "string"
        },
        {
          "internalType": "uint256",
          "name": "examDuration",
          "type": "uint256"
        },
        {
          "internalType": "string",
          "name": "examHash",
          "type": "string"
        },
        {
          "internalType": "address",
          "name": "examContractAddress",
          "type": "address"
        },
        {
          "internalType": "uint256",
          "name": "creationTime",
          "type": "uint256"
        }
      ],
      "stateMutability": "view",
      "type": "function",
      "constant": true
    },
    {
      "inputs": [
        {
          "internalType": "string",
          "name": "_name",
          "type": "string"
        },
        {
          "internalType": "string",
          "name": "_date",
          "type": "string"
        },
        {
          "internalType": "string",
          "name": "_lastEnrollmentDate",
          "type": "string"
        },
        {
          "internalType": "uint256",
          "name": "_duration",
          "type": "uint256"
        },
        {
          "internalType": "string",
          "name": "_exam_hash",
          "type": "string"
        }
      ],
      "name": "declareExam",
      "outputs": [],
      "stateMutability": "nonpayable",
      "type": "function"
    },
    {
      "inputs": [],
      "name": "getExamsDeclaredByOwner",
      "outputs": [
        {
          "components": [
            {
              "internalType": "string",
              "name": "examName",
              "type": "string"
            },
            {
              "internalType": "string",
              "name": "examDate",
              "type": "string"
            },
            {
              "internalType": "string",
              "name": "lastEnrollmentDate",
              "type": "string"
            },
            {
              "internalType": "uint256",
              "name": "examDuration",
              "type": "uint256"
            },
            {
              "internalType": "string",
              "name": "examHash",
              "type": "string"
            },
            {
              "internalType": "address",
              "name": "examContractAddress",
              "type": "address"
            },
            {
              "internalType": "uint256",
              "name": "creationTime",
              "type": "uint256"
            }
          ],
          "internalType": "struct Declare.ExamDeclaration[]",
          "name": "",
          "type": "tuple[]"
        }
      ],
      "stateMutability": "view",
      "type": "function",
      "constant": true
    },
    {
      "inputs": [],
      "name": "getAllExams",
      "outputs": [
        {
          "components": [
            {
              "internalType": "string",
              "name": "examName",
              "type": "string"
            },
            {
              "internalType": "string",
              "name": "examDate",
              "type": "string"
            },
            {
              "internalType": "string",
              "name": "lastEnrollmentDate",
              "type": "string"
            },
            {
              "internalType": "uint256",
              "name": "examDuration",
              "type": "uint256"
            },
            {
              "internalType": "string",
              "name": "examHash",
              "type": "string"
            },
            {
              "internalType": "address",
              "name": "examContractAddress",
              "type": "address"
            },
            {
              "internalType": "uint256",
              "name": "creationTime",
              "type": "uint256"
            }
          ],
          "internalType": "struct Declare.ExamDeclaration[]",
          "name": "",
          "type": "tuple[]"
        }
      ],
      "stateMutability": "view",
      "type": "function",
      "constant": true
    },
    {
      "inputs": [
        {
          "internalType": "string",
          "name": "examHash",
          "type": "string"
        }
      ],
      "name": "getExam",
      "outputs": [
        {
          "components": [
            {
              "internalType": "string",
              "name": "examName",
              "type": "string"
            },
            {
              "internalType": "string",
              "name": "examDate",
              "type": "string"
            },
            {
              "internalType": "string",
              "name": "lastEnrollmentDate",
              "type": "string"
            },
            {
              "internalType": "uint256",
              "name": "examDuration",
              "type": "uint256"
            },
            {
              "internalType": "string",
              "name": "examHash",
              "type": "string"
            },
            {
              "internalType": "address",
              "name": "examContractAddress",
              "type": "address"
            },
            {
              "internalType": "uint256",
              "name": "creationTime",
              "type": "uint256"
            }
          ],
          "internalType": "struct Declare.ExamDeclaration",
          "name": "",
          "type": "tuple"
        }
      ],
      "stateMutability": "view",
      "type": "function",
      "constant": true
    },
    {
      "inputs": [
        {
          "internalType": "string",
          "name": "examHash",
          "type": "string"
        }
      ],
      "name": "enrollStudentToParticularExam",
      "outputs": [],
      "stateMutability": "nonpayable",
      "type": "function"
    },
    {
      "inputs": [],
      "name": "getEnrolledExamsOfStudent",
      "outputs": [
        {
          "components": [
            {
              "internalType": "string",
              "name": "examName",
              "type": "string"
            },
            {
              "internalType": "string",
              "name": "examDate",
              "type": "string"
            },
            {
              "internalType": "string",
              "name": "lastEnrollmentDate",
              "type": "string"
            },
            {
              "internalType": "uint256",
              "name": "examDuration",
              "type": "uint256"
            },
            {
              "internalType": "string",
              "name": "examHash",
              "type": "string"
            },
            {
              "internalType": "address",
              "name": "examContractAddress",
              "type": "address"
            },
            {
              "internalType": "uint256",
              "name": "creationTime",
              "type": "uint256"
            }
          ],
          "internalType": "struct Declare.ExamDeclaration[]",
          "name": "",
          "type": "tuple[]"
        }
      ],
      "stateMutability": "view",
      "type": "function",
      "constant": true
    }
  ],
  "bytecode": "0x608060405234801561001057600080fd5b5061545a806100206000396000f3fe60806040523480156200001157600080fd5b5060043610620000ac5760003560e01c8063795994d9116200006f578063795994d91462000199578063b284c3e014620001bb578063c6f734d814620001dd578063dfd18f301462000219578063f98fa14d146200023b57620000ac565b80630c0703bc14620000b15780633d03d61a14620000e75780634cda1e0b146200010757806361afcc7b1462000127578063707e7a2e146200015d575b600080fd5b620000cf6004803603810190620000c9919062001db3565b62000271565b604051620000de919062001e36565b60405180910390f35b620001056004803603810190620000ff919062001e8e565b620002b6565b005b6200012560048036038101906200011f919062001f92565b62000607565b005b6200014560048036038101906200013f919062001f92565b62000680565b6040516200015491906200214d565b60405180910390f35b6200017b600480360381019062000175919062002171565b6200098e565b6040516200019097969594939291906200222c565b60405180910390f35b620001a362000c4e565b604051620001b2919062002454565b60405180910390f35b620001c562001022565b604051620001d4919062002454565b60405180910390f35b620001fb6004803603810190620001f5919062001f92565b6200149a565b6040516200021097969594939291906200222c565b60405180910390f35b6200022362001752565b60405162000232919062002454565b60405180910390f35b62000259600480360381019062000253919062002478565b62001ac2565b604051620002689190620024aa565b60405180910390f35b6002828051602081018201805184825260208301602085012081835280955050505050506020528060005260406000206000915091509054906101000a900460ff1681565b600381908060018154018082558091505060019003906000526020600020016000909190919091509081620002ec919062002704565b50600033868686864287604051620003049062001b77565b620003169796959493929190620027eb565b604051809103906000f08015801562000333573d6000803e3d6000fd5b50905060006040518060e001604052808881526020018781526020018681526020018581526020018481526020018373ffffffffffffffffffffffffffffffffffffffff16815260200142815250905080600084604051620003969190620028c6565b90815260200160405180910390206000820151816000019081620003bb919062002704565b506020820151816001019081620003d3919062002704565b506040820151816002019081620003eb919062002704565b506060820151816003015560808201518160040190816200040d919062002704565b5060a08201518160050160006101000a81548173ffffffffffffffffffffffffffffffffffffffff021916908373ffffffffffffffffffffffffffffffffffffffff16021790555060c082015181600601559050506001600284604051620004769190620028c6565b908152602001604051809103902060003373ffffffffffffffffffffffffffffffffffffffff1673ffffffffffffffffffffffffffffffffffffffff16815260200190815260200160002060006101000a81548160ff021916908315150217905550600160003373ffffffffffffffffffffffffffffffffffffffff1673ffffffffffffffffffffffffffffffffffffffff168152602001908152602001600020819080600181540180825580915050600190039060005260206000209060070201600090919091909150600082015181600001908162000558919062002704565b50602082015181600101908162000570919062002704565b50604082015181600201908162000588919062002704565b50606082015181600301556080820151816004019081620005aa919062002704565b5060a08201518160050160006101000a81548173ffffffffffffffffffffffffffffffffffffffff021916908373ffffffffffffffffffffffffffffffffffffffff16021790555060c08201518160060155505050505050505050565b60016002826040516200061b9190620028c6565b908152602001604051809103902060003373ffffffffffffffffffffffffffffffffffffffff1673ffffffffffffffffffffffffffffffffffffffff16815260200190815260200160002060006101000a81548160ff02191690831515021790555050565b6200068a62001b85565b6000826040516200069c9190620028c6565b90815260200160405180910390206040518060e0016040529081600082018054620006c790620024fd565b80601f0160208091040260200160405190810160405280929190818152602001828054620006f590620024fd565b8015620007465780601f106200071a5761010080835404028352916020019162000746565b820191906000526020600020905b8154815290600101906020018083116200072857829003601f168201915b505050505081526020016001820180546200076190620024fd565b80601f01602080910402602001604051908101604052809291908181526020018280546200078f90620024fd565b8015620007e05780601f10620007b457610100808354040283529160200191620007e0565b820191906000526020600020905b815481529060010190602001808311620007c257829003601f168201915b50505050508152602001600282018054620007fb90620024fd565b80601f01602080910402602001604051908101604052809291908181526020018280546200082990620024fd565b80156200087a5780601f106200084e576101008083540402835291602001916200087a565b820191906000526020600020905b8154815290600101906020018083116200085c57829003601f168201915b50505050508152602001600382015481526020016004820180546200089f90620024fd565b80601f0160208091040260200160405190810160405280929190818152602001828054620008cd90620024fd565b80156200091e5780601f10620008f2576101008083540402835291602001916200091e565b820191906000526020600020905b8154815290600101906020018083116200090057829003601f168201915b505050505081526020016005820160009054906101000a900473ffffffffffffffffffffffffffffffffffffffff1673ffffffffffffffffffffffffffffffffffffffff1673ffffffffffffffffffffffffffffffffffffffff1681526020016006820154815250509050919050565b60016020528160005260406000208181548110620009ab57600080fd5b906000526020600020906007020160009150915050806000018054620009d190620024fd565b80601f0160208091040260200160405190810160405280929190818152602001828054620009ff90620024fd565b801562000a505780601f1062000a245761010080835404028352916020019162000a50565b820191906000526020600020905b81548152906001019060200180831162000a3257829003601f168201915b50505050509080600101805462000a6790620024fd565b80601f016020809104026020016040519081016040528092919081815260200182805462000a9590620024fd565b801562000ae65780601f1062000aba5761010080835404028352916020019162000ae6565b820191906000526020600020905b81548152906001019060200180831162000ac857829003601f168201915b50505050509080600201805462000afd90620024fd565b80601f016020809104026020016040519081016040528092919081815260200182805462000b2b90620024fd565b801562000b7c5780601f1062000b505761010080835404028352916020019162000b7c565b820191906000526020600020905b81548152906001019060200180831162000b5e57829003601f168201915b50505050509080600301549080600401805462000b9990620024fd565b80601f016020809104026020016040519081016040528092919081815260200182805462000bc790620024fd565b801562000c185780601f1062000bec5761010080835404028352916020019162000c18565b820191906000526020600020905b81548152906001019060200180831162000bfa57829003601f168201915b5050505050908060050160009054906101000a900473ffffffffffffffffffffffffffffffffffffffff16908060060154905087565b60606000600380549050905060008167ffffffffffffffff81111562000c795762000c7862001c07565b5b60405190808252806020026020018201604052801562000cb657816020015b62000ca262001b85565b81526020019060019003908162000c985790505b50905060005b82811015620010195760006003828154811062000cde5762000cdd620028df565b5b9060005260206000200160405162000cf791906200299d565b90815260200160405180910390206040518060e001604052908160008201805462000d2290620024fd565b80601f016020809104026020016040519081016040528092919081815260200182805462000d5090620024fd565b801562000da15780601f1062000d755761010080835404028352916020019162000da1565b820191906000526020600020905b81548152906001019060200180831162000d8357829003601f168201915b5050505050815260200160018201805462000dbc90620024fd565b80601f016020809104026020016040519081016040528092919081815260200182805462000dea90620024fd565b801562000e3b5780601f1062000e0f5761010080835404028352916020019162000e3b565b820191906000526020600020905b81548152906001019060200180831162000e1d57829003601f168201915b5050505050815260200160028201805462000e5690620024fd565b80601f016020809104026020016040519081016040528092919081815260200182805462000e8490620024fd565b801562000ed55780601f1062000ea95761010080835404028352916020019162000ed5565b820191906000526020600020905b81548152906001019060200180831162000eb757829003601f168201915b505050505081526020016003820154815260200160048201805462000efa90620024fd565b80601f016020809104026020016040519081016040528092919081815260200182805462000f2890620024fd565b801562000f795780601f1062000f4d5761010080835404028352916020019162000f79565b820191906000526020600020905b81548152906001019060200180831162000f5b57829003601f168201915b505050505081526020016005820160009054906101000a900473ffffffffffffffffffffffffffffffffffffffff1673ffffffffffffffffffffffffffffffffffffffff1673ffffffffffffffffffffffffffffffffffffffff16815260200160068201548152505082828151811062000ff85762000ff7620028df565b5b602002602001018190525080806200101090620029e5565b91505062000cbc565b50809250505090565b60606000600380549050905060008167ffffffffffffffff8111156200104d576200104c62001c07565b5b6040519080825280602002602001820160405280156200108a57816020015b6200107662001b85565b8152602001906001900390816200106c5790505b5090506000805b838110156200149057600260038281548110620010b357620010b2620028df565b5b90600052602060002001604051620010cc91906200299d565b908152602001604051809103902060003373ffffffffffffffffffffffffffffffffffffffff1673ffffffffffffffffffffffffffffffffffffffff16815260200190815260200160002060009054906101000a900460ff16156200147a57600060038281548110620011445762001143620028df565b5b906000526020600020016040516200115d91906200299d565b90815260200160405180910390206040518060e00160405290816000820180546200118890620024fd565b80601f0160208091040260200160405190810160405280929190818152602001828054620011b690620024fd565b8015620012075780601f10620011db5761010080835404028352916020019162001207565b820191906000526020600020905b815481529060010190602001808311620011e957829003601f168201915b505050505081526020016001820180546200122290620024fd565b80601f01602080910402602001604051908101604052809291908181526020018280546200125090620024fd565b8015620012a15780601f106200127557610100808354040283529160200191620012a1565b820191906000526020600020905b8154815290600101906020018083116200128357829003601f168201915b50505050508152602001600282018054620012bc90620024fd565b80601f0160208091040260200160405190810160405280929190818152602001828054620012ea90620024fd565b80156200133b5780601f106200130f576101008083540402835291602001916200133b565b820191906000526020600020905b8154815290600101906020018083116200131d57829003601f168201915b50505050508152602001600382015481526020016004820180546200136090620024fd565b80601f01602080910402602001604051908101604052809291908181526020018280546200138e90620024fd565b8015620013df5780601f10620013b357610100808354040283529160200191620013df565b820191906000526020600020905b815481529060010190602001808311620013c157829003601f168201915b505050505081526020016005820160009054906101000a900473ffffffffffffffffffffffffffffffffffffffff1673ffffffffffffffffffffffffffffffffffffffff1673ffffffffffffffffffffffffffffffffffffffff1681526020016006820154815250508383815181106200145e576200145d620028df565b5b602002602001018190525081806200147690620029e5565b9250505b80806200148790620029e5565b91505062001091565b5081935050505090565b600081805160208101820180518482526020830160208501208183528095505050505050600091509050806000018054620014d590620024fd565b80601f01602080910402602001604051908101604052809291908181526020018280546200150390620024fd565b8015620015545780601f10620015285761010080835404028352916020019162001554565b820191906000526020600020905b8154815290600101906020018083116200153657829003601f168201915b5050505050908060010180546200156b90620024fd565b80601f01602080910402602001604051908101604052809291908181526020018280546200159990620024fd565b8015620015ea5780601f10620015be57610100808354040283529160200191620015ea565b820191906000526020600020905b815481529060010190602001808311620015cc57829003601f168201915b5050505050908060020180546200160190620024fd565b80601f01602080910402602001604051908101604052809291908181526020018280546200162f90620024fd565b8015620016805780601f10620016545761010080835404028352916020019162001680565b820191906000526020600020905b8154815290600101906020018083116200166257829003601f168201915b5050505050908060030154908060040180546200169d90620024fd565b80601f0160208091040260200160405190810160405280929190818152602001828054620016cb90620024fd565b80156200171c5780601f10620016f0576101008083540402835291602001916200171c565b820191906000526020600020905b815481529060010190602001808311620016fe57829003601f168201915b5050505050908060050160009054906101000a900473ffffffffffffffffffffffffffffffffffffffff16908060060154905087565b6060600160003373ffffffffffffffffffffffffffffffffffffffff1673ffffffffffffffffffffffffffffffffffffffff168152602001908152602001600020805480602002602001604051908101604052809291908181526020016000905b8282101562001ab957838290600052602060002090600702016040518060e0016040529081600082018054620017e990620024fd565b80601f01602080910402602001604051908101604052809291908181526020018280546200181790620024fd565b8015620018685780601f106200183c5761010080835404028352916020019162001868565b820191906000526020600020905b8154815290600101906020018083116200184a57829003601f168201915b505050505081526020016001820180546200188390620024fd565b80601f0160208091040260200160405190810160405280929190818152602001828054620018b190620024fd565b8015620019025780601f10620018d65761010080835404028352916020019162001902565b820191906000526020600020905b815481529060010190602001808311620018e457829003601f168201915b505050505081526020016002820180546200191d90620024fd565b80601f01602080910402602001604051908101604052809291908181526020018280546200194b90620024fd565b80156200199c5780601f1062001970576101008083540402835291602001916200199c565b820191906000526020600020905b8154815290600101906020018083116200197e57829003601f168201915b5050505050815260200160038201548152602001600482018054620019c190620024fd565b80601f0160208091040260200160405190810160405280929190818152602001828054620019ef90620024fd565b801562001a405780601f1062001a145761010080835404028352916020019162001a40565b820191906000526020600020905b81548152906001019060200180831162001a2257829003601f168201915b505050505081526020016005820160009054906101000a900473ffffffffffffffffffffffffffffffffffffffff1673ffffffffffffffffffffffffffffffffffffffff1673ffffffffffffffffffffffffffffffffffffffff16815260200160068201548152505081526020019060010190620017b3565b50505050905090565b6003818154811062001ad357600080fd5b90600052602060002001600091509050805462001af090620024fd565b80601f016020809104026020016040519081016040528092919081815260200182805462001b1e90620024fd565b801562001b6f5780601f1062001b435761010080835404028352916020019162001b6f565b820191906000526020600020905b81548152906001019060200180831162001b5157829003601f168201915b505050505081565b6129f28062002a3383390190565b6040518060e001604052806060815260200160608152602001606081526020016000815260200160608152602001600073ffffffffffffffffffffffffffffffffffffffff168152602001600081525090565b6000604051905090565b600080fd5b600080fd5b600080fd5b600080fd5b6000601f19601f8301169050919050565b7f4e487b7100000000000000000000000000000000000000000000000000000000600052604160045260246000fd5b62001c418262001bf6565b810181811067ffffffffffffffff8211171562001c635762001c6262001c07565b5b80604052505050565b600062001c7862001bd8565b905062001c86828262001c36565b919050565b600067ffffffffffffffff82111562001ca95762001ca862001c07565b5b62001cb48262001bf6565b9050602081019050919050565b82818337600083830152505050565b600062001ce762001ce18462001c8b565b62001c6c565b90508281526020810184848401111562001d065762001d0562001bf1565b5b62001d1384828562001cc1565b509392505050565b600082601f83011262001d335762001d3262001bec565b5b813562001d4584826020860162001cd0565b91505092915050565b600073ffffffffffffffffffffffffffffffffffffffff82169050919050565b600062001d7b8262001d4e565b9050919050565b62001d8d8162001d6e565b811462001d9957600080fd5b50565b60008135905062001dad8162001d82565b92915050565b6000806040838503121562001dcd5762001dcc62001be2565b5b600083013567ffffffffffffffff81111562001dee5762001ded62001be7565b5b62001dfc8582860162001d1b565b925050602062001e0f8582860162001d9c565b9150509250929050565b60008115159050919050565b62001e308162001e19565b82525050565b600060208201905062001e4d600083018462001e25565b92915050565b6000819050919050565b62001e688162001e53565b811462001e7457600080fd5b50565b60008135905062001e888162001e5d565b92915050565b600080600080600060a0868803121562001ead5762001eac62001be2565b5b600086013567ffffffffffffffff81111562001ece5762001ecd62001be7565b5b62001edc8882890162001d1b565b955050602086013567ffffffffffffffff81111562001f005762001eff62001be7565b5b62001f0e8882890162001d1b565b945050604086013567ffffffffffffffff81111562001f325762001f3162001be7565b5b62001f408882890162001d1b565b935050606062001f538882890162001e77565b925050608086013567ffffffffffffffff81111562001f775762001f7662001be7565b5b62001f858882890162001d1b565b9150509295509295909350565b60006020828403121562001fab5762001faa62001be2565b5b600082013567ffffffffffffffff81111562001fcc5762001fcb62001be7565b5b62001fda8482850162001d1b565b91505092915050565b600081519050919050565b600082825260208201905092915050565b60005b838110156200201f57808201518184015260208101905062002002565b60008484015250505050565b6000620020388262001fe3565b62002044818562001fee565b93506200205681856020860162001fff565b620020618162001bf6565b840191505092915050565b620020778162001e53565b82525050565b620020888162001d6e565b82525050565b600060e0830160008301518482036000860152620020ad82826200202b565b91505060208301518482036020860152620020c982826200202b565b91505060408301518482036040860152620020e582826200202b565b9150506060830151620020fc60608601826200206c565b50608083015184820360808601526200211682826200202b565b91505060a08301516200212d60a08601826200207d565b5060c08301516200214260c08601826200206c565b508091505092915050565b600060208201905081810360008301526200216981846200208e565b905092915050565b600080604083850312156200218b576200218a62001be2565b5b60006200219b8582860162001d9c565b9250506020620021ae8582860162001e77565b9150509250929050565b600082825260208201905092915050565b6000620021d68262001fe3565b620021e28185620021b8565b9350620021f481856020860162001fff565b620021ff8162001bf6565b840191505092915050565b620022158162001e53565b82525050565b620022268162001d6e565b82525050565b600060e082019050818103600083015262002248818a620021c9565b905081810360208301526200225e8189620021c9565b90508181036040830152620022748188620021c9565b90506200228560608301876200220a565b8181036080830152620022998186620021c9565b9050620022aa60a08301856200221b565b620022b960c08301846200220a565b98975050505050505050565b600081519050919050565b600082825260208201905092915050565b6000819050602082019050919050565b600060e08301600083015184820360008601526200231082826200202b565b915050602083015184820360208601526200232c82826200202b565b915050604083015184820360408601526200234882826200202b565b91505060608301516200235f60608601826200206c565b50608083015184820360808601526200237982826200202b565b91505060a08301516200239060a08601826200207d565b5060c0830151620023a560c08601826200206c565b508091505092915050565b6000620023be8383620022f1565b905092915050565b6000602082019050919050565b6000620023e082620022c5565b620023ec8185620022d0565b9350836020820285016200240085620022e1565b8060005b85811015620024425784840389528151620024208582620023b0565b94506200242d83620023c6565b925060208a0199505060018101905062002404565b50829750879550505050505092915050565b60006020820190508181036000830152620024708184620023d3565b905092915050565b60006020828403121562002491576200249062001be2565b5b6000620024a18482850162001e77565b91505092915050565b60006020820190508181036000830152620024c68184620021c9565b905092915050565b7f4e487b7100000000000000000000000000000000000000000000000000000000600052602260045260246000fd5b600060028204905060018216806200251657607f821691505b6020821081036200252c576200252b620024ce565b5b50919050565b60008190508160005260206000209050919050565b60006020601f8301049050919050565b600082821b905092915050565b600060088302620025967fffffffffffffffffffffffffffffffffffffffffffffffffffffffffffffffff8262002557565b620025a2868362002557565b95508019841693508086168417925050509392505050565b6000819050919050565b6000620025e5620025df620025d98462001e53565b620025ba565b62001e53565b9050919050565b6000819050919050565b6200260183620025c4565b620026196200261082620025ec565b84845462002564565b825550505050565b600090565b6200263062002621565b6200263d818484620025f6565b505050565b5b8181101562002665576200265960008262002626565b60018101905062002643565b5050565b601f821115620026b4576200267e8162002532565b620026898462002547565b8101602085101562002699578190505b620026b1620026a88562002547565b83018262002642565b50505b505050565b600082821c905092915050565b6000620026d960001984600802620026b9565b1980831691505092915050565b6000620026f48383620026c6565b9150826002028217905092915050565b6200270f8262001fe3565b67ffffffffffffffff8111156200272b576200272a62001c07565b5b620027378254620024fd565b6200274482828562002669565b600060209050601f8311600181146200277c576000841562002767578287015190505b620027738582620026e6565b865550620027e3565b601f1984166200278c8662002532565b60005b82811015620027b6578489015182556001820191506020850194506020810190506200278f565b86831015620027d65784890151620027d2601f891682620026c6565b8355505b6001600288020188555050505b505050505050565b600060e08201905062002802600083018a6200221b565b8181036020830152620028168189620021c9565b905081810360408301526200282c8188620021c9565b90508181036060830152620028428187620021c9565b90506200285360808301866200220a565b6200286260a08301856200220a565b81810360c0830152620028768184620021c9565b905098975050505050505050565b600081905092915050565b60006200289c8262001fe3565b620028a8818562002884565b9350620028ba81856020860162001fff565b80840191505092915050565b6000620028d482846200288f565b915081905092915050565b7f4e487b7100000000000000000000000000000000000000000000000000000000600052603260045260246000fd5b600081546200291d81620024fd565b62002929818662002884565b945060018216600081146200294757600181146200295d5762002994565b60ff198316865281151582028601935062002994565b620029688562002532565b60005b838110156200298c578154818901526001820191506020810190506200296b565b838801955050505b50505092915050565b6000620029ab82846200290e565b915081905092915050565b7f4e487b7100000000000000000000000000000000000000000000000000000000600052601160045260246000fd5b6000620029f28262001e53565b91507fffffffffffffffffffffffffffffffffffffffffffffffffffffffffffffffff820362002a275762002a26620029b6565b5b60018201905091905056fe60806040526000600760006101000a81548160ff0219169083151502179055503480156200002c57600080fd5b50604051620029f2380380620029f2833981810160405281019062000052919062000380565b866000806101000a81548173ffffffffffffffffffffffffffffffffffffffff021916908373ffffffffffffffffffffffffffffffffffffffff1602179055508560019081620000a39190620006f0565b508460029081620000b59190620006f0565b508360039081620000c79190620006f0565b50826004819055506001600c60008973ffffffffffffffffffffffffffffffffffffffff1673ffffffffffffffffffffffffffffffffffffffff16815260200190815260200160002060006101000a81548160ff0219169083151502179055508160058190555080600690816200013f9190620006f0565b5050505050505050620007d7565b6000604051905090565b600080fd5b600080fd5b600073ffffffffffffffffffffffffffffffffffffffff82169050919050565b60006200018e8262000161565b9050919050565b620001a08162000181565b8114620001ac57600080fd5b50565b600081519050620001c08162000195565b92915050565b600080fd5b600080fd5b6000601f19601f8301169050919050565b7f4e487b7100000000000000000000000000000000000000000000000000000000600052604160045260246000fd5b6200021b82620001d0565b810181811067ffffffffffffffff821117156200023d576200023c620001e1565b5b80604052505050565b6000620002526200014d565b905062000260828262000210565b919050565b600067ffffffffffffffff821115620002835762000282620001e1565b5b6200028e82620001d0565b9050602081019050919050565b60005b83811015620002bb5780820151818401526020810190506200029e565b60008484015250505050565b6000620002de620002d88462000265565b62000246565b905082815260208101848484011115620002fd57620002fc620001cb565b5b6200030a8482856200029b565b509392505050565b600082601f8301126200032a5762000329620001c6565b5b81516200033c848260208601620002c7565b91505092915050565b6000819050919050565b6200035a8162000345565b81146200036657600080fd5b50565b6000815190506200037a816200034f565b92915050565b600080600080600080600060e0888a031215620003a257620003a162000157565b5b6000620003b28a828b01620001af565b975050602088015167ffffffffffffffff811115620003d657620003d56200015c565b5b620003e48a828b0162000312565b965050604088015167ffffffffffffffff8111156200040857620004076200015c565b5b620004168a828b0162000312565b955050606088015167ffffffffffffffff8111156200043a57620004396200015c565b5b620004488a828b0162000312565b94505060806200045b8a828b0162000369565b93505060a06200046e8a828b0162000369565b92505060c088015167ffffffffffffffff8111156200049257620004916200015c565b5b620004a08a828b0162000312565b91505092959891949750929550565b600081519050919050565b7f4e487b7100000000000000000000000000000000000000000000000000000000600052602260045260246000fd5b600060028204905060018216806200050257607f821691505b602082108103620005185762000517620004ba565b5b50919050565b60008190508160005260206000209050919050565b60006020601f8301049050919050565b600082821b905092915050565b600060088302620005827fffffffffffffffffffffffffffffffffffffffffffffffffffffffffffffffff8262000543565b6200058e868362000543565b95508019841693508086168417925050509392505050565b6000819050919050565b6000620005d1620005cb620005c58462000345565b620005a6565b62000345565b9050919050565b6000819050919050565b620005ed83620005b0565b62000605620005fc82620005d8565b84845462000550565b825550505050565b600090565b6200061c6200060d565b62000629818484620005e2565b505050565b5b8181101562000651576200064560008262000612565b6001810190506200062f565b5050565b601f821115620006a0576200066a816200051e565b620006758462000533565b8101602085101562000685578190505b6200069d620006948562000533565b8301826200062e565b50505b505050565b600082821c905092915050565b6000620006c560001984600802620006a5565b1980831691505092915050565b6000620006e08383620006b2565b9150826002028217905092915050565b620006fb82620004af565b67ffffffffffffffff811115620007175762000716620001e1565b5b620007238254620004e9565b6200073082828562000655565b600060209050601f83116001811462000768576000841562000753578287015190505b6200075f8582620006d2565b865550620007cf565b601f19841662000778866200051e565b60005b82811015620007a2578489015182556001820191506020850194506020810190506200077b565b86831015620007c25784890151620007be601f891682620006b2565b8355505b6001600288020188555050505b505050505050565b61220b80620007e76000396000f3fe608060405234801561001057600080fd5b506004361061012c5760003560e01c8063729d1dcb116100ad578063c9b5901d11610071578063c9b5901d1461033a578063ca2dfd0a14610356578063ce3d6aa914610372578063d8270dce146103a2578063e9e30927146103c05761012c565b8063729d1dcb146102915780639000b3d6146102c657806398378bfe146102e2578063b32dece1146102fe578063c7f8ffe41461031c5761012c565b8063323046b1116100f4578063323046b1146101d95780633878622e146101f75780634e6cc3c1146102275780636c824487146102455780636e570403146102755761012c565b806306fdde03146101315780630fb5a6b41461014f57806319839df81461016d578063267fd2251461018b5780632ebcfc13146101a9575b600080fd5b6101396103de565b60405161014691906114fc565b60405180910390f35b61015761046c565b6040516101649190611537565b60405180910390f35b610175610472565b60405161018291906114fc565b60405180910390f35b610193610500565b6040516101a091906114fc565b60405180910390f35b6101c360048036038101906101be9190611592565b61058e565b6040516101d09190611600565b60405180910390f35b6101e16105cd565b6040516101ee91906114fc565b60405180910390f35b610211600480360381019061020c9190611647565b61065b565b60405161021e919061168f565b60405180910390f35b61022f6106b4565b60405161023c91906114fc565b60405180910390f35b61025f600480360381019061025a9190611647565b610746565b60405161026c919061168f565b60405180910390f35b61028f600480360381019061028a91906117df565b610766565b005b6102ab60048036038101906102a69190611647565b610883565b6040516102bd96959493929190611857565b60405180910390f35b6102e060048036038101906102db9190611647565b610a91565b005b6102fc60048036038101906102f791906118cd565b610b7a565b005b610306610dd2565b60405161031391906114fc565b60405180910390f35b610324610e64565b604051610331919061168f565b60405180910390f35b610354600480360381019061034f9190611647565b610e77565b005b610370600480360381019061036b9190611647565b610f61565b005b61038c60048036038101906103879190611647565b61104a565b604051610399919061168f565b60405180910390f35b6103aa6110a3565b6040516103b79190611537565b60405180910390f35b6103c86110a9565b6040516103d59190611b35565b60405180910390f35b600180546103eb90611b86565b80601f016020809104026020016040519081016040528092919081815260200182805461041790611b86565b80156104645780601f1061043957610100808354040283529160200191610464565b820191906000526020600020905b81548152906001019060200180831161044757829003601f168201915b505050505081565b60045481565b6003805461047f90611b86565b80601f01602080910402602001604051908101604052809291908181526020018280546104ab90611b86565b80156104f85780601f106104cd576101008083540402835291602001916104f8565b820191906000526020600020905b8154815290600101906020018083116104db57829003601f168201915b505050505081565b6006805461050d90611b86565b80601f016020809104026020016040519081016040528092919081815260200182805461053990611b86565b80156105865780601f1061055b57610100808354040283529160200191610586565b820191906000526020600020905b81548152906001019060200180831161056957829003601f168201915b505050505081565b600b818154811061059e57600080fd5b906000526020600020016000915054906101000a900473ffffffffffffffffffffffffffffffffffffffff1681565b600280546105da90611b86565b80601f016020809104026020016040519081016040528092919081815260200182805461060690611b86565b80156106535780601f1061062857610100808354040283529160200191610653565b820191906000526020600020905b81548152906001019060200180831161063657829003601f168201915b505050505081565b6000600a60008373ffffffffffffffffffffffffffffffffffffffff1673ffffffffffffffffffffffffffffffffffffffff16815260200190815260200160002060030160009054906101000a900460ff169050919050565b6060600980546106c390611b86565b80601f01602080910402602001604051908101604052809291908181526020018280546106ef90611b86565b801561073c5780601f106107115761010080835404028352916020019161073c565b820191906000526020600020905b81548152906001019060200180831161071f57829003601f168201915b5050505050905090565b600c6020528060005260406000206000915054906101000a900460ff1681565b3373ffffffffffffffffffffffffffffffffffffffff1660008054906101000a900473ffffffffffffffffffffffffffffffffffffffff1673ffffffffffffffffffffffffffffffffffffffff16146107f4576040517f08c379a00000000000000000000000000000000000000000000000000000000081526004016107eb90611c29565b60405180910390fd5b600760009054906101000a900460ff1615610844576040517f08c379a000000000000000000000000000000000000000000000000000000000815260040161083b90611c95565b60405180910390fd5b81600890816108539190611e61565b5080600990816108639190611e61565b506001600760006101000a81548160ff0219169083151502179055505050565b600a6020528060005260406000206000915090508060000180546108a690611b86565b80601f01602080910402602001604051908101604052809291908181526020018280546108d290611b86565b801561091f5780601f106108f45761010080835404028352916020019161091f565b820191906000526020600020905b81548152906001019060200180831161090257829003601f168201915b50505050509080600101805461093490611b86565b80601f016020809104026020016040519081016040528092919081815260200182805461096090611b86565b80156109ad5780601f10610982576101008083540402835291602001916109ad565b820191906000526020600020905b81548152906001019060200180831161099057829003601f168201915b5050505050908060020180546109c290611b86565b80601f01602080910402602001604051908101604052809291908181526020018280546109ee90611b86565b8015610a3b5780601f10610a1057610100808354040283529160200191610a3b565b820191906000526020600020905b815481529060010190602001808311610a1e57829003601f168201915b5050505050908060030160009054906101000a900460ff16908060030160019054906101000a900460ff16908060030160029054906101000a900473ffffffffffffffffffffffffffffffffffffffff16905086565b3373ffffffffffffffffffffffffffffffffffffffff1660008054906101000a900473ffffffffffffffffffffffffffffffffffffffff1673ffffffffffffffffffffffffffffffffffffffff1614610b1f576040517f08c379a0000000000000000000000000000000000000000000000000000000008152600401610b1690611fa5565b60405180910390fd5b6001600c60008373ffffffffffffffffffffffffffffffffffffffff1673ffffffffffffffffffffffffffffffffffffffff16815260200190815260200160002060006101000a81548160ff02191690831515021790555050565b600a60003373ffffffffffffffffffffffffffffffffffffffff1673ffffffffffffffffffffffffffffffffffffffff16815260200190815260200160002060030160019054906101000a900460ff1615610c0a576040517f08c379a0000000000000000000000000000000000000000000000000000000008152600401610c0190612011565b60405180910390fd5b600033905060006040518060c001604052808681526020018581526020018481526020016000151581526020016001151581526020018373ffffffffffffffffffffffffffffffffffffffff16815250905080600a60008473ffffffffffffffffffffffffffffffffffffffff1673ffffffffffffffffffffffffffffffffffffffff1681526020019081526020016000206000820151816000019081610cb19190611e61565b506020820151816001019081610cc79190611e61565b506040820151816002019081610cdd9190611e61565b5060608201518160030160006101000a81548160ff02191690831515021790555060808201518160030160016101000a81548160ff02191690831515021790555060a08201518160030160026101000a81548173ffffffffffffffffffffffffffffffffffffffff021916908373ffffffffffffffffffffffffffffffffffffffff160217905550905050600b829080600181540180825580915050600190039060005260206000200160009091909190916101000a81548173ffffffffffffffffffffffffffffffffffffffff021916908373ffffffffffffffffffffffffffffffffffffffff1602179055505050505050565b606060088054610de190611b86565b80601f0160208091040260200160405190810160405280929190818152602001828054610e0d90611b86565b8015610e5a5780601f10610e2f57610100808354040283529160200191610e5a565b820191906000526020600020905b815481529060010190602001808311610e3d57829003601f168201915b5050505050905090565b600760009054906101000a900460ff1681565b600c60003373ffffffffffffffffffffffffffffffffffffffff1673ffffffffffffffffffffffffffffffffffffffff16815260200190815260200160002060009054906101000a900460ff16610f03576040517f08c379a0000000000000000000000000000000000000000000000000000000008152600401610efa9061207d565b60405180910390fd5b6001600a60008373ffffffffffffffffffffffffffffffffffffffff1673ffffffffffffffffffffffffffffffffffffffff16815260200190815260200160002060030160006101000a81548160ff02191690831515021790555050565b3373ffffffffffffffffffffffffffffffffffffffff1660008054906101000a900473ffffffffffffffffffffffffffffffffffffffff1673ffffffffffffffffffffffffffffffffffffffff1614610fef576040517f08c379a0000000000000000000000000000000000000000000000000000000008152600401610fe69061210f565b60405180910390fd5b6000600c60008373ffffffffffffffffffffffffffffffffffffffff1673ffffffffffffffffffffffffffffffffffffffff16815260200190815260200160002060006101000a81548160ff02191690831515021790555050565b6000600a60008373ffffffffffffffffffffffffffffffffffffffff1673ffffffffffffffffffffffffffffffffffffffff16815260200190815260200160002060030160019054906101000a900460ff169050919050565b60055481565b60606000600b80549050905060008167ffffffffffffffff8111156110d1576110d06116b4565b5b60405190808252806020026020018201604052801561110a57816020015b6110f761141c565b8152602001906001900390816110ef5790505b50905060005b8281101561141357600a6000600b83815481106111305761112f61212f565b5b9060005260206000200160009054906101000a900473ffffffffffffffffffffffffffffffffffffffff1673ffffffffffffffffffffffffffffffffffffffff1673ffffffffffffffffffffffffffffffffffffffff1681526020019081526020016000206040518060c00160405290816000820180546111b090611b86565b80601f01602080910402602001604051908101604052809291908181526020018280546111dc90611b86565b80156112295780601f106111fe57610100808354040283529160200191611229565b820191906000526020600020905b81548152906001019060200180831161120c57829003601f168201915b5050505050815260200160018201805461124290611b86565b80601f016020809104026020016040519081016040528092919081815260200182805461126e90611b86565b80156112bb5780601f10611290576101008083540402835291602001916112bb565b820191906000526020600020905b81548152906001019060200180831161129e57829003601f168201915b505050505081526020016002820180546112d490611b86565b80601f016020809104026020016040519081016040528092919081815260200182805461130090611b86565b801561134d5780601f106113225761010080835404028352916020019161134d565b820191906000526020600020905b81548152906001019060200180831161133057829003601f168201915b505050505081526020016003820160009054906101000a900460ff161515151581526020016003820160019054906101000a900460ff161515151581526020016003820160029054906101000a900473ffffffffffffffffffffffffffffffffffffffff1673ffffffffffffffffffffffffffffffffffffffff1673ffffffffffffffffffffffffffffffffffffffff16815250508282815181106113f5576113f461212f565b5b6020026020010181905250808061140b9061218d565b915050611110565b50809250505090565b6040518060c00160405280606081526020016060815260200160608152602001600015158152602001600015158152602001600073ffffffffffffffffffffffffffffffffffffffff1681525090565b600081519050919050565b600082825260208201905092915050565b60005b838110156114a657808201518184015260208101905061148b565b60008484015250505050565b6000601f19601f8301169050919050565b60006114ce8261146c565b6114d88185611477565b93506114e8818560208601611488565b6114f1816114b2565b840191505092915050565b6000602082019050818103600083015261151681846114c3565b905092915050565b6000819050919050565b6115318161151e565b82525050565b600060208201905061154c6000830184611528565b92915050565b6000604051905090565b600080fd5b600080fd5b61156f8161151e565b811461157a57600080fd5b50565b60008135905061158c81611566565b92915050565b6000602082840312156115a8576115a761155c565b5b60006115b68482850161157d565b91505092915050565b600073ffffffffffffffffffffffffffffffffffffffff82169050919050565b60006115ea826115bf565b9050919050565b6115fa816115df565b82525050565b600060208201905061161560008301846115f1565b92915050565b611624816115df565b811461162f57600080fd5b50565b6000813590506116418161161b565b92915050565b60006020828403121561165d5761165c61155c565b5b600061166b84828501611632565b91505092915050565b60008115159050919050565b61168981611674565b82525050565b60006020820190506116a46000830184611680565b92915050565b600080fd5b600080fd5b7f4e487b7100000000000000000000000000000000000000000000000000000000600052604160045260246000fd5b6116ec826114b2565b810181811067ffffffffffffffff8211171561170b5761170a6116b4565b5b80604052505050565b600061171e611552565b905061172a82826116e3565b919050565b600067ffffffffffffffff82111561174a576117496116b4565b5b611753826114b2565b9050602081019050919050565b82818337600083830152505050565b600061178261177d8461172f565b611714565b90508281526020810184848401111561179e5761179d6116af565b5b6117a9848285611760565b509392505050565b600082601f8301126117c6576117c56116aa565b5b81356117d684826020860161176f565b91505092915050565b600080604083850312156117f6576117f561155c565b5b600083013567ffffffffffffffff81111561181457611813611561565b5b611820858286016117b1565b925050602083013567ffffffffffffffff81111561184157611840611561565b5b61184d858286016117b1565b9150509250929050565b600060c082019050818103600083015261187181896114c3565b9050818103602083015261188581886114c3565b9050818103604083015261189981876114c3565b90506118a86060830186611680565b6118b56080830185611680565b6118c260a08301846115f1565b979650505050505050565b6000806000606084860312156118e6576118e561155c565b5b600084013567ffffffffffffffff81111561190457611903611561565b5b611910868287016117b1565b935050602084013567ffffffffffffffff81111561193157611930611561565b5b61193d868287016117b1565b925050604084013567ffffffffffffffff81111561195e5761195d611561565b5b61196a868287016117b1565b9150509250925092565b600081519050919050565b600082825260208201905092915050565b6000819050602082019050919050565b600082825260208201905092915050565b60006119bc8261146c565b6119c681856119a0565b93506119d6818560208601611488565b6119df816114b2565b840191505092915050565b6119f381611674565b82525050565b611a02816115df565b82525050565b600060c0830160008301518482036000860152611a2582826119b1565b91505060208301518482036020860152611a3f82826119b1565b91505060408301518482036040860152611a5982826119b1565b9150506060830151611a6e60608601826119ea565b506080830151611a8160808601826119ea565b5060a0830151611a9460a08601826119f9565b508091505092915050565b6000611aab8383611a08565b905092915050565b6000602082019050919050565b6000611acb82611974565b611ad5818561197f565b935083602082028501611ae785611990565b8060005b85811015611b235784840389528151611b048582611a9f565b9450611b0f83611ab3565b925060208a01995050600181019050611aeb565b50829750879550505050505092915050565b60006020820190508181036000830152611b4f8184611ac0565b905092915050565b7f4e487b7100000000000000000000000000000000000000000000000000000000600052602260045260246000fd5b60006002820490506001821680611b9e57607f821691505b602082108103611bb157611bb0611b57565b5b50919050565b7f596f7520617265206e6f7420617574686f72697a656420746f2063726561746560008201527f206578616d000000000000000000000000000000000000000000000000000000602082015250565b6000611c13602583611477565b9150611c1e82611bb7565b604082019050919050565b60006020820190508181036000830152611c4281611c06565b9050919050565b7f4578616d20697320616c72656164792063726561746564000000000000000000600082015250565b6000611c7f601783611477565b9150611c8a82611c49565b602082019050919050565b60006020820190508181036000830152611cae81611c72565b9050919050565b60008190508160005260206000209050919050565b60006020601f8301049050919050565b600082821b905092915050565b600060088302611d177fffffffffffffffffffffffffffffffffffffffffffffffffffffffffffffffff82611cda565b611d218683611cda565b95508019841693508086168417925050509392505050565b6000819050919050565b6000611d5e611d59611d548461151e565b611d39565b61151e565b9050919050565b6000819050919050565b611d7883611d43565b611d8c611d8482611d65565b848454611ce7565b825550505050565b600090565b611da1611d94565b611dac818484611d6f565b505050565b5b81811015611dd057611dc5600082611d99565b600181019050611db2565b5050565b601f821115611e1557611de681611cb5565b611def84611cca565b81016020851015611dfe578190505b611e12611e0a85611cca565b830182611db1565b50505b505050565b600082821c905092915050565b6000611e3860001984600802611e1a565b1980831691505092915050565b6000611e518383611e27565b9150826002028217905092915050565b611e6a8261146c565b67ffffffffffffffff811115611e8357611e826116b4565b5b611e8d8254611b86565b611e98828285611dd4565b600060209050601f831160018114611ecb5760008415611eb9578287015190505b611ec38582611e45565b865550611f2b565b601f198416611ed986611cb5565b60005b82811015611f0157848901518255600182019150602085019450602081019050611edc565b86831015611f1e5784890151611f1a601f891682611e27565b8355505b6001600288020188555050505b505050505050565b7f596f7520617265206e6f7420617574686f72697a656420746f2061646420766560008201527f7269666965720000000000000000000000000000000000000000000000000000602082015250565b6000611f8f602683611477565b9150611f9a82611f33565b604082019050919050565b60006020820190508181036000830152611fbe81611f82565b9050919050565b7f596f752061726520616c726561647920656e726f6c6c65640000000000000000600082015250565b6000611ffb601883611477565b915061200682611fc5565b602082019050919050565b6000602082019050818103600083015261202a81611fee565b9050919050565b7f596f7520617265206e6f7420617574686f72697a656420746f20766572696679600082015250565b6000612067602083611477565b915061207282612031565b602082019050919050565b600060208201905081810360008301526120968161205a565b9050919050565b7f596f7520617265206e6f7420617574686f72697a656420746f2072656d6f766560008201527f2076657269666965720000000000000000000000000000000000000000000000602082015250565b60006120f9602983611477565b91506121048261209d565b604082019050919050565b60006020820190508181036000830152612128816120ec565b9050919050565b7f4e487b7100000000000000000000000000000000000000000000000000000000600052603260045260246000fd5b7f4e487b7100000000000000000000000000000000000000000000000000000000600052601160045260246000fd5b60006121988261151e565b91507fffffffffffffffffffffffffffffffffffffffffffffffffffffffffffffffff82036121ca576121c961215e565b5b60018201905091905056fea264697066735822122042345efefab5f78df0ad6b3d77ab1454b571d6f8515a3b4d2f5568fd6869a36b64736f6c63430008130033a2646970667358221220b67bd669ded2bfb4127626ea64cc893d7aa2e9ad3ca7a3e549bff29ab89bdef664736f6c63430008130033",
  "immutableReferences": {},
  "source": "// SPDX-License-Identifier: MIT\r\npragma solidity ^0.8.19;\r\n\r\nimport \"./Exam.sol\";\r\n\r\ncontract Declare {\r\n    struct ExamDeclaration {\r\n        string examName;\r\n        string examDate;\r\n        string lastEnrollmentDate;\r\n        uint examDuration;\r\n        string examHash;\r\n        address examContractAddress;\r\n        uint creationTime;\r\n    }\r\n\r\n    mapping(string => ExamDeclaration) public declarations;\r\n\r\n    // Mapping from owner address to exam declaration\r\n    mapping(address => ExamDeclaration[]) public ownerToExamDeclaration;\r\n\r\n    // optimize ?\r\n    mapping(string => mapping(address => bool)) public allExamEnrollment;\r\n    string[] public examHashes;\r\n\r\n    // Function to declare an exam\r\n    function declareExam(\r\n        string memory _name,\r\n        string memory _date,\r\n        string memory _lastEnrollmentDate,\r\n        uint _duration,\r\n        string memory _exam_hash\r\n    ) public {\r\n        examHashes.push(_exam_hash);\r\n        Exam test = new Exam(\r\n            msg.sender,\r\n            _name,\r\n            _date,\r\n            _lastEnrollmentDate,\r\n            _duration,\r\n            block.timestamp,\r\n            _exam_hash\r\n        );\r\n\r\n        ExamDeclaration memory newExam = ExamDeclaration(\r\n            _name,\r\n            _date,\r\n            _lastEnrollmentDate,\r\n            _duration,\r\n            _exam_hash,\r\n            address(test),\r\n            block.timestamp\r\n        );\r\n        declarations[_exam_hash] = newExam;\r\n        allExamEnrollment[_exam_hash][msg.sender] = true;\r\n        ownerToExamDeclaration[msg.sender].push(newExam);\r\n    }\r\n\r\n    // Get all Exams declared by the owner\r\n    function getExamsDeclaredByOwner()\r\n        public\r\n        view\r\n        returns (ExamDeclaration[] memory)\r\n    {\r\n        return ownerToExamDeclaration[msg.sender];\r\n    }\r\n\r\n    // Function to get the list of all exams\r\n    function getAllExams() public view returns (ExamDeclaration[] memory) {\r\n        uint arrayLength = examHashes.length;\r\n        ExamDeclaration[] memory examArray = new ExamDeclaration[](arrayLength);\r\n        for (uint i = 0; i < arrayLength; i++) {\r\n            examArray[i] = declarations[examHashes[i]];\r\n        }\r\n        return examArray;\r\n    }\r\n\r\n    // Function to get the details of a particular exam\r\n    function getExam(\r\n        string memory examHash\r\n    ) public view returns (ExamDeclaration memory) {\r\n        return declarations[examHash];\r\n    }\r\n\r\n    // Function to enroll a student to a particular exam\r\n    function enrollStudentToParticularExam(string memory examHash) public {\r\n        allExamEnrollment[examHash][msg.sender] = true;\r\n    }\r\n\r\n    // Function to retrieve the list of exams that the student has enrolled in\r\n    function getEnrolledExamsOfStudent()\r\n        public\r\n        view\r\n        returns (ExamDeclaration[] memory)\r\n    {\r\n        uint arrayLength = examHashes.length;\r\n        ExamDeclaration[] memory examArray = new ExamDeclaration[](arrayLength);\r\n        uint j = 0;\r\n        for (uint i = 0; i < arrayLength; i++) {\r\n            if (allExamEnrollment[examHashes[i]][msg.sender]) {\r\n                examArray[j] = declarations[examHashes[i]];\r\n                j++;\r\n            }\r\n        }\r\n        return examArray;\r\n    }\r\n}\r\n",
  "sourcePath": "D:\\Web3 Examination Portal\\contracts\\Declare.sol",
  "compiler": {
    "name": "solc",
    "version": "0.8.19+commit.7dd6d404.Emscripten.clang"
  },
  "schemaVersion": "3.4.16",
  "updatedAt": "2024-10-20T13:52:46.894Z",
  "networkType": "ethereum",
  "devdoc": {
    "kind": "dev",
    "methods": {},
    "version": 1
  },
  "userdoc": {
    "kind": "user",
    "methods": {},
    "version": 1
  }
}