{
  "contractName": "Enrollment",
  "abi": [
    {
      "inputs": [
        {
          "internalType": "address",
          "name": "",
          "type": "address"
        }
      ],
      "name": "examiners",
      "outputs": [
        {
          "internalType": "string",
          "name": "name",
          "type": "string"
        },
        {
          "internalType": "uint256",
          "name": "age",
          "type": "uint256"
        },
        {
          "internalType": "string",
          "name": "organization",
          "type": "string"
        }
      ],
      "stateMutability": "view",
      "type": "function",
      "constant": true
    },
    {
      "inputs": [
        {
          "internalType": "address",
          "name": "",
          "type": "address"
        }
      ],
      "name": "students",
      "outputs": [
        {
          "internalType": "string",
          "name": "name",
          "type": "string"
        },
        {
          "internalType": "uint256",
          "name": "age",
          "type": "uint256"
        },
        {
          "internalType": "uint256",
          "name": "rollno",
          "type": "uint256"
        }
      ],
      "stateMutability": "view",
      "type": "function",
      "constant": true
    },
    {
      "inputs": [
        {
          "internalType": "string",
          "name": "_name",
          "type": "string"
        },
        {
          "internalType": "uint256",
          "name": "_age",
          "type": "uint256"
        },
        {
          "internalType": "uint256",
          "name": "_rollno",
          "type": "uint256"
        }
      ],
      "name": "enrollStudent",
      "outputs": [],
      "stateMutability": "nonpayable",
      "type": "function"
    },
    {
      "inputs": [
        {
          "internalType": "string",
          "name": "_name",
          "type": "string"
        },
        {
          "internalType": "uint256",
          "name": "_age",
          "type": "uint256"
        },
        {
          "internalType": "string",
          "name": "organization",
          "type": "string"
        }
      ],
      "name": "enrollExaminer",
      "outputs": [],
      "stateMutability": "nonpayable",
      "type": "function"
    },
    {
      "inputs": [
        {
          "internalType": "address",
          "name": "add",
          "type": "address"
        }
      ],
      "name": "getStudent",
      "outputs": [
        {
          "components": [
            {
              "internalType": "string",
              "name": "name",
              "type": "string"
            },
            {
              "internalType": "uint256",
              "name": "age",
              "type": "uint256"
            },
            {
              "internalType": "uint256",
              "name": "rollno",
              "type": "uint256"
            },
            {
              "internalType": "string[]",
              "name": "previousExamCID",
              "type": "string[]"
            }
          ],
          "internalType": "struct Enrollment.student",
          "name": "",
          "type": "tuple"
        }
      ],
      "stateMutability": "view",
      "type": "function",
      "constant": true
    },
    {
      "inputs": [
        {
          "internalType": "address",
          "name": "add",
          "type": "address"
        }
      ],
      "name": "getExaminer",
      "outputs": [
        {
          "components": [
            {
              "internalType": "string",
              "name": "name",
              "type": "string"
            },
            {
              "internalType": "uint256",
              "name": "age",
              "type": "uint256"
            },
            {
              "internalType": "string",
              "name": "organization",
              "type": "string"
            }
          ],
          "internalType": "struct Enrollment.examiner",
          "name": "",
          "type": "tuple"
        }
      ],
      "stateMutability": "view",
      "type": "function",
      "constant": true
    }
  ],
  "bytecode": "0x608060405234801561001057600080fd5b5061128b806100206000396000f3fe608060405234801561001057600080fd5b50600436106100625760003560e01c80636b7b44d7146100675780638a165f76146100975780638c0e4063146100c75780639694f8cf146100f9578063a6c807a914610115578063e558870a14610147575b600080fd5b610081600480360381019061007c91906109a3565b610163565b60405161008e9190610ba5565b60405180910390f35b6100b160048036038101906100ac91906109a3565b61033a565b6040516100be9190610c1e565b60405180910390f35b6100e160048036038101906100dc91906109a3565b6104c1565b6040516100f093929190610c99565b60405180910390f35b610113600480360381019061010e9190610e3f565b6105fb565b005b61012f600480360381019061012a91906109a3565b61069f565b60405161013e93929190610eca565b60405180910390f35b610161600480360381019061015c9190610f08565b610751565b005b61016b61080e565b6000808373ffffffffffffffffffffffffffffffffffffffff1673ffffffffffffffffffffffffffffffffffffffff1681526020019081526020016000206040518060800160405290816000820180546101c490610fa6565b80601f01602080910402602001604051908101604052809291908181526020018280546101f090610fa6565b801561023d5780601f106102125761010080835404028352916020019161023d565b820191906000526020600020905b81548152906001019060200180831161022057829003601f168201915b50505050508152602001600182015481526020016002820154815260200160038201805480602002602001604051908101604052809291908181526020016000905b8282101561032b57838290600052602060002001805461029e90610fa6565b80601f01602080910402602001604051908101604052809291908181526020018280546102ca90610fa6565b80156103175780601f106102ec57610100808354040283529160200191610317565b820191906000526020600020905b8154815290600101906020018083116102fa57829003601f168201915b50505050508152602001906001019061027f565b50505050815250509050919050565b610342610836565b600160008373ffffffffffffffffffffffffffffffffffffffff1673ffffffffffffffffffffffffffffffffffffffff16815260200190815260200160002060405180606001604052908160008201805461039c90610fa6565b80601f01602080910402602001604051908101604052809291908181526020018280546103c890610fa6565b80156104155780601f106103ea57610100808354040283529160200191610415565b820191906000526020600020905b8154815290600101906020018083116103f857829003601f168201915b505050505081526020016001820154815260200160028201805461043890610fa6565b80601f016020809104026020016040519081016040528092919081815260200182805461046490610fa6565b80156104b15780601f10610486576101008083540402835291602001916104b1565b820191906000526020600020905b81548152906001019060200180831161049457829003601f168201915b5050505050815250509050919050565b60016020528060005260406000206000915090508060000180546104e490610fa6565b80601f016020809104026020016040519081016040528092919081815260200182805461051090610fa6565b801561055d5780601f106105325761010080835404028352916020019161055d565b820191906000526020600020905b81548152906001019060200180831161054057829003601f168201915b50505050509080600101549080600201805461057890610fa6565b80601f01602080910402602001604051908101604052809291908181526020018280546105a490610fa6565b80156105f15780601f106105c6576101008083540402835291602001916105f1565b820191906000526020600020905b8154815290600101906020018083116105d457829003601f168201915b5050505050905083565b60003390506000604051806060016040528086815260200185815260200184815250905080600160008473ffffffffffffffffffffffffffffffffffffffff1673ffffffffffffffffffffffffffffffffffffffff16815260200190815260200160002060008201518160000190816106749190611183565b506020820151816001015560408201518160020190816106949190611183565b509050505050505050565b60006020528060005260406000206000915090508060000180546106c290610fa6565b80601f01602080910402602001604051908101604052809291908181526020018280546106ee90610fa6565b801561073b5780601f106107105761010080835404028352916020019161073b565b820191906000526020600020905b81548152906001019060200180831161071e57829003601f168201915b5050505050908060010154908060020154905083565b6000339050606060006040518060800160405280878152602001868152602001858152602001838152509050806000808573ffffffffffffffffffffffffffffffffffffffff1673ffffffffffffffffffffffffffffffffffffffff16815260200190815260200160002060008201518160000190816107d19190611183565b5060208201518160010155604082015181600201556060820151816003019080519060200190610802929190610857565b50905050505050505050565b6040518060800160405280606081526020016000815260200160008152602001606081525090565b60405180606001604052806060815260200160008152602001606081525090565b82805482825590600052602060002090810192821561089f579160200282015b8281111561089e57825182908161088e9190611183565b5091602001919060010190610877565b5b5090506108ac91906108b0565b5090565b5b808211156108d057600081816108c791906108d4565b506001016108b1565b5090565b5080546108e090610fa6565b6000825580601f106108f25750610911565b601f0160209004906000526020600020908101906109109190610914565b5b50565b5b8082111561092d576000816000905550600101610915565b5090565b6000604051905090565b600080fd5b600080fd5b600073ffffffffffffffffffffffffffffffffffffffff82169050919050565b600061097082610945565b9050919050565b61098081610965565b811461098b57600080fd5b50565b60008135905061099d81610977565b92915050565b6000602082840312156109b9576109b861093b565b5b60006109c78482850161098e565b91505092915050565b600081519050919050565b600082825260208201905092915050565b60005b83811015610a0a5780820151818401526020810190506109ef565b60008484015250505050565b6000601f19601f8301169050919050565b6000610a32826109d0565b610a3c81856109db565b9350610a4c8185602086016109ec565b610a5581610a16565b840191505092915050565b6000819050919050565b610a7381610a60565b82525050565b600081519050919050565b600082825260208201905092915050565b6000819050602082019050919050565b6000610ab18383610a27565b905092915050565b6000602082019050919050565b6000610ad182610a79565b610adb8185610a84565b935083602082028501610aed85610a95565b8060005b85811015610b295784840389528151610b0a8582610aa5565b9450610b1583610ab9565b925060208a01995050600181019050610af1565b50829750879550505050505092915050565b60006080830160008301518482036000860152610b588282610a27565b9150506020830151610b6d6020860182610a6a565b506040830151610b806040860182610a6a565b5060608301518482036060860152610b988282610ac6565b9150508091505092915050565b60006020820190508181036000830152610bbf8184610b3b565b905092915050565b60006060830160008301518482036000860152610be48282610a27565b9150506020830151610bf96020860182610a6a565b5060408301518482036040860152610c118282610a27565b9150508091505092915050565b60006020820190508181036000830152610c388184610bc7565b905092915050565b600082825260208201905092915050565b6000610c5c826109d0565b610c668185610c40565b9350610c768185602086016109ec565b610c7f81610a16565b840191505092915050565b610c9381610a60565b82525050565b60006060820190508181036000830152610cb38186610c51565b9050610cc26020830185610c8a565b8181036040830152610cd48184610c51565b9050949350505050565b600080fd5b600080fd5b7f4e487b7100000000000000000000000000000000000000000000000000000000600052604160045260246000fd5b610d2082610a16565b810181811067ffffffffffffffff82111715610d3f57610d3e610ce8565b5b80604052505050565b6000610d52610931565b9050610d5e8282610d17565b919050565b600067ffffffffffffffff821115610d7e57610d7d610ce8565b5b610d8782610a16565b9050602081019050919050565b82818337600083830152505050565b6000610db6610db184610d63565b610d48565b905082815260208101848484011115610dd257610dd1610ce3565b5b610ddd848285610d94565b509392505050565b600082601f830112610dfa57610df9610cde565b5b8135610e0a848260208601610da3565b91505092915050565b610e1c81610a60565b8114610e2757600080fd5b50565b600081359050610e3981610e13565b92915050565b600080600060608486031215610e5857610e5761093b565b5b600084013567ffffffffffffffff811115610e7657610e75610940565b5b610e8286828701610de5565b9350506020610e9386828701610e2a565b925050604084013567ffffffffffffffff811115610eb457610eb3610940565b5b610ec086828701610de5565b9150509250925092565b60006060820190508181036000830152610ee48186610c51565b9050610ef36020830185610c8a565b610f006040830184610c8a565b949350505050565b600080600060608486031215610f2157610f2061093b565b5b600084013567ffffffffffffffff811115610f3f57610f3e610940565b5b610f4b86828701610de5565b9350506020610f5c86828701610e2a565b9250506040610f6d86828701610e2a565b9150509250925092565b7f4e487b7100000000000000000000000000000000000000000000000000000000600052602260045260246000fd5b60006002820490506001821680610fbe57607f821691505b602082108103610fd157610fd0610f77565b5b50919050565b60008190508160005260206000209050919050565b60006020601f8301049050919050565b600082821b905092915050565b6000600883026110397fffffffffffffffffffffffffffffffffffffffffffffffffffffffffffffffff82610ffc565b6110438683610ffc565b95508019841693508086168417925050509392505050565b6000819050919050565b600061108061107b61107684610a60565b61105b565b610a60565b9050919050565b6000819050919050565b61109a83611065565b6110ae6110a682611087565b848454611009565b825550505050565b600090565b6110c36110b6565b6110ce818484611091565b505050565b5b818110156110f2576110e76000826110bb565b6001810190506110d4565b5050565b601f8211156111375761110881610fd7565b61111184610fec565b81016020851015611120578190505b61113461112c85610fec565b8301826110d3565b50505b505050565b600082821c905092915050565b600061115a6000198460080261113c565b1980831691505092915050565b60006111738383611149565b9150826002028217905092915050565b61118c826109d0565b67ffffffffffffffff8111156111a5576111a4610ce8565b5b6111af8254610fa6565b6111ba8282856110f6565b600060209050601f8311600181146111ed57600084156111db578287015190505b6111e58582611167565b86555061124d565b601f1984166111fb86610fd7565b60005b82811015611223578489015182556001820191506020850194506020810190506111fe565b86831015611240578489015161123c601f891682611149565b8355505b6001600288020188555050505b50505050505056fea2646970667358221220e8c0859e4348b52e26535722dece78b35879591cd74ea9bcf8d55376262f4d4a64736f6c63430008130033",
  "immutableReferences": {},
  "source": "// SPDX-License-Identifier: MIT\r\npragma solidity ^0.8.19;\r\n\r\ncontract Enrollment {\r\n    struct student {\r\n        string name;\r\n        uint age;\r\n        uint rollno;\r\n        string[] previousExamCID;\r\n    }\r\n\r\n    struct examiner {\r\n        string name;\r\n        uint age;\r\n        string organization;\r\n    }\r\n\r\n    mapping(address => student) public students;\r\n    mapping(address => examiner) public examiners;\r\n\r\n    function enrollStudent(\r\n        string memory _name,\r\n        uint _age,\r\n        uint _rollno // string memory _cid\r\n    ) public {\r\n        address _address = msg.sender;\r\n        string[] memory emptyArray;\r\n        student memory newStudent = student(_name, _age, _rollno, emptyArray);\r\n        students[_address] = newStudent;\r\n    }\r\n\r\n    function enrollExaminer(\r\n        string memory _name,\r\n        uint _age,\r\n        string memory organization\r\n    ) public {\r\n        address _address = msg.sender;\r\n        examiner memory newExaminer = examiner(_name, _age, organization);\r\n        examiners[_address] = newExaminer;\r\n    }\r\n\r\n    function getStudent(address add) public view returns (student memory) {\r\n        return students[add];\r\n    }\r\n\r\n    function getExaminer(address add) public view returns (examiner memory) {\r\n        return examiners[add];\r\n    }\r\n}\r\n",
  "sourcePath": "D:\\Web3 Examination Portal\\contracts\\Enrollment.sol",
  "compiler": {
    "name": "solc",
    "version": "0.8.19+commit.7dd6d404.Emscripten.clang"
  },
  "schemaVersion": "3.4.16",
  "updatedAt": "2024-08-19T07:37:28.914Z",
  "networkType": "ethereum",
  "devdoc": {
    "kind": "dev",
    "methods": {},
    "version": 1
  },
  "userdoc": {
    "kind": "user",
    "methods": {},
    "version": 1
  }
}