{
  "contractName": "Enrollment",
  "abi": [
    {
      "inputs": [
        {
          "internalType": "address",
          "name": "",
          "type": "address"
        }
      ],
      "name": "examiners",
      "outputs": [
        {
          "internalType": "string",
          "name": "name",
          "type": "string"
        },
        {
          "internalType": "uint256",
          "name": "age",
          "type": "uint256"
        },
        {
          "internalType": "string",
          "name": "organization",
          "type": "string"
        }
      ],
      "stateMutability": "view",
      "type": "function",
      "constant": true
    },
    {
      "inputs": [
        {
          "internalType": "address",
          "name": "",
          "type": "address"
        }
      ],
      "name": "students",
      "outputs": [
        {
          "internalType": "string",
          "name": "name",
          "type": "string"
        },
        {
          "internalType": "uint256",
          "name": "age",
          "type": "uint256"
        },
        {
          "internalType": "uint256",
          "name": "rollno",
          "type": "uint256"
        }
      ],
      "stateMutability": "view",
      "type": "function",
      "constant": true
    },
    {
      "inputs": [
        {
          "internalType": "string",
          "name": "_name",
          "type": "string"
        },
        {
          "internalType": "uint256",
          "name": "_age",
          "type": "uint256"
        },
        {
          "internalType": "uint256",
          "name": "_rollno",
          "type": "uint256"
        }
      ],
      "name": "enrollStudent",
      "outputs": [],
      "stateMutability": "nonpayable",
      "type": "function"
    },
    {
      "inputs": [
        {
          "internalType": "string",
          "name": "_name",
          "type": "string"
        },
        {
          "internalType": "uint256",
          "name": "_age",
          "type": "uint256"
        },
        {
          "internalType": "string",
          "name": "organization",
          "type": "string"
        }
      ],
      "name": "enrollExaminer",
      "outputs": [],
      "stateMutability": "nonpayable",
      "type": "function"
    }
  ],
  "bytecode": "0x608060405234801561001057600080fd5b50610c4e806100206000396000f3fe608060405234801561001057600080fd5b506004361061004c5760003560e01c80638c0e4063146100515780639694f8cf14610083578063a6c807a91461009f578063e558870a146100d1575b600080fd5b61006b60048036038101906100669190610586565b6100ed565b60405161007a9392919061065c565b60405180910390f35b61009d60048036038101906100989190610802565b610227565b005b6100b960048036038101906100b49190610586565b6102cb565b6040516100c89392919061088d565b60405180910390f35b6100eb60048036038101906100e691906108cb565b61037d565b005b600160205280600052604060002060009150905080600001805461011090610969565b80601f016020809104026020016040519081016040528092919081815260200182805461013c90610969565b80156101895780601f1061015e57610100808354040283529160200191610189565b820191906000526020600020905b81548152906001019060200180831161016c57829003601f168201915b5050505050908060010154908060020180546101a490610969565b80601f01602080910402602001604051908101604052809291908181526020018280546101d090610969565b801561021d5780601f106101f25761010080835404028352916020019161021d565b820191906000526020600020905b81548152906001019060200180831161020057829003601f168201915b5050505050905083565b60003390506000604051806060016040528086815260200185815260200184815250905080600160008473ffffffffffffffffffffffffffffffffffffffff1673ffffffffffffffffffffffffffffffffffffffff16815260200190815260200160002060008201518160000190816102a09190610b46565b506020820151816001015560408201518160020190816102c09190610b46565b509050505050505050565b60006020528060005260406000206000915090508060000180546102ee90610969565b80601f016020809104026020016040519081016040528092919081815260200182805461031a90610969565b80156103675780601f1061033c57610100808354040283529160200191610367565b820191906000526020600020905b81548152906001019060200180831161034a57829003601f168201915b5050505050908060010154908060020154905083565b6000339050606060006040518060800160405280878152602001868152602001858152602001838152509050806000808573ffffffffffffffffffffffffffffffffffffffff1673ffffffffffffffffffffffffffffffffffffffff16815260200190815260200160002060008201518160000190816103fd9190610b46565b506020820151816001015560408201518160020155606082015181600301908051906020019061042e92919061043a565b50905050505050505050565b828054828255906000526020600020908101928215610482579160200282015b828111156104815782518290816104719190610b46565b509160200191906001019061045a565b5b50905061048f9190610493565b5090565b5b808211156104b357600081816104aa91906104b7565b50600101610494565b5090565b5080546104c390610969565b6000825580601f106104d557506104f4565b601f0160209004906000526020600020908101906104f391906104f7565b5b50565b5b808211156105105760008160009055506001016104f8565b5090565b6000604051905090565b600080fd5b600080fd5b600073ffffffffffffffffffffffffffffffffffffffff82169050919050565b600061055382610528565b9050919050565b61056381610548565b811461056e57600080fd5b50565b6000813590506105808161055a565b92915050565b60006020828403121561059c5761059b61051e565b5b60006105aa84828501610571565b91505092915050565b600081519050919050565b600082825260208201905092915050565b60005b838110156105ed5780820151818401526020810190506105d2565b60008484015250505050565b6000601f19601f8301169050919050565b6000610615826105b3565b61061f81856105be565b935061062f8185602086016105cf565b610638816105f9565b840191505092915050565b6000819050919050565b61065681610643565b82525050565b60006060820190508181036000830152610676818661060a565b9050610685602083018561064d565b8181036040830152610697818461060a565b9050949350505050565b600080fd5b600080fd5b7f4e487b7100000000000000000000000000000000000000000000000000000000600052604160045260246000fd5b6106e3826105f9565b810181811067ffffffffffffffff82111715610702576107016106ab565b5b80604052505050565b6000610715610514565b905061072182826106da565b919050565b600067ffffffffffffffff821115610741576107406106ab565b5b61074a826105f9565b9050602081019050919050565b82818337600083830152505050565b600061077961077484610726565b61070b565b905082815260208101848484011115610795576107946106a6565b5b6107a0848285610757565b509392505050565b600082601f8301126107bd576107bc6106a1565b5b81356107cd848260208601610766565b91505092915050565b6107df81610643565b81146107ea57600080fd5b50565b6000813590506107fc816107d6565b92915050565b60008060006060848603121561081b5761081a61051e565b5b600084013567ffffffffffffffff81111561083957610838610523565b5b610845868287016107a8565b9350506020610856868287016107ed565b925050604084013567ffffffffffffffff81111561087757610876610523565b5b610883868287016107a8565b9150509250925092565b600060608201905081810360008301526108a7818661060a565b90506108b6602083018561064d565b6108c3604083018461064d565b949350505050565b6000806000606084860312156108e4576108e361051e565b5b600084013567ffffffffffffffff81111561090257610901610523565b5b61090e868287016107a8565b935050602061091f868287016107ed565b9250506040610930868287016107ed565b9150509250925092565b7f4e487b7100000000000000000000000000000000000000000000000000000000600052602260045260246000fd5b6000600282049050600182168061098157607f821691505b6020821081036109945761099361093a565b5b50919050565b60008190508160005260206000209050919050565b60006020601f8301049050919050565b600082821b905092915050565b6000600883026109fc7fffffffffffffffffffffffffffffffffffffffffffffffffffffffffffffffff826109bf565b610a0686836109bf565b95508019841693508086168417925050509392505050565b6000819050919050565b6000610a43610a3e610a3984610643565b610a1e565b610643565b9050919050565b6000819050919050565b610a5d83610a28565b610a71610a6982610a4a565b8484546109cc565b825550505050565b600090565b610a86610a79565b610a91818484610a54565b505050565b5b81811015610ab557610aaa600082610a7e565b600181019050610a97565b5050565b601f821115610afa57610acb8161099a565b610ad4846109af565b81016020851015610ae3578190505b610af7610aef856109af565b830182610a96565b50505b505050565b600082821c905092915050565b6000610b1d60001984600802610aff565b1980831691505092915050565b6000610b368383610b0c565b9150826002028217905092915050565b610b4f826105b3565b67ffffffffffffffff811115610b6857610b676106ab565b5b610b728254610969565b610b7d828285610ab9565b600060209050601f831160018114610bb05760008415610b9e578287015190505b610ba88582610b2a565b865550610c10565b601f198416610bbe8661099a565b60005b82811015610be657848901518255600182019150602085019450602081019050610bc1565b86831015610c035784890151610bff601f891682610b0c565b8355505b6001600288020188555050505b50505050505056fea2646970667358221220bfa755f2b0c41fffae622d08f23ff0cc20d0f31f5ee4ee6022a447bfdd7bd4b964736f6c63430008130033",
  "immutableReferences": {},
  "source": "// SPDX-License-Identifier: MIT\r\npragma solidity ^0.8.19;\r\n\r\ncontract Enrollment {\r\n    struct student {\r\n        string name;\r\n        uint age;\r\n        uint rollno;\r\n        string[] previousExamCID;\r\n    }\r\n\r\n    struct examiner {\r\n        string name;\r\n        uint age;\r\n        string organization;\r\n    }\r\n\r\n    mapping(address => student) public students;\r\n    mapping(address => examiner) public examiners;\r\n\r\n    function enrollStudent(\r\n        string memory _name,\r\n        uint _age,\r\n        uint _rollno // string memory _cid\r\n    ) public {\r\n        address _address = msg.sender;\r\n        string[] memory emptyArray;\r\n        student memory newStudent = student(_name, _age, _rollno, emptyArray);\r\n        students[_address] = newStudent;\r\n    }\r\n\r\n    function enrollExaminer(\r\n        string memory _name,\r\n        uint _age,\r\n        string memory organization\r\n    ) public {\r\n        address _address = msg.sender;\r\n        examiner memory newExaminer = examiner(_name, _age, organization);\r\n        examiners[_address] = newExaminer;\r\n    }\r\n\r\n    // function getStudentData(address addr) public {}\r\n}\r\n",
  "sourcePath": "D:\\Web3 Examination Portal\\contracts\\Enrollment.sol",
  "compiler": {
    "name": "solc",
    "version": "0.8.19+commit.7dd6d404.Emscripten.clang"
  },
  "schemaVersion": "3.4.16",
  "updatedAt": "2024-08-17T11:37:58.745Z",
  "networkType": "ethereum",
  "devdoc": {
    "kind": "dev",
    "methods": {},
    "version": 1
  },
  "userdoc": {
    "kind": "user",
    "methods": {},
    "version": 1
  }
}