{
  "contractName": "ExamEnrollment",
  "abi": [
    {
      "inputs": [
        {
          "internalType": "string",
          "name": "",
          "type": "string"
        },
        {
          "internalType": "uint256",
          "name": "",
          "type": "uint256"
        }
      ],
      "name": "enrolledStudents",
      "outputs": [
        {
          "internalType": "address",
          "name": "",
          "type": "address"
        }
      ],
      "stateMutability": "view",
      "type": "function"
    },
    {
      "inputs": [
        {
          "internalType": "string",
          "name": "",
          "type": "string"
        },
        {
          "internalType": "address",
          "name": "",
          "type": "address"
        }
      ],
      "name": "examEnrollments",
      "outputs": [
        {
          "internalType": "bool",
          "name": "",
          "type": "bool"
        }
      ],
      "stateMutability": "view",
      "type": "function"
    },
    {
      "inputs": [
        {
          "internalType": "string",
          "name": "examHash",
          "type": "string"
        }
      ],
      "name": "enroll",
      "outputs": [],
      "stateMutability": "nonpayable",
      "type": "function"
    },
    {
      "inputs": [
        {
          "internalType": "string",
          "name": "examHash",
          "type": "string"
        }
      ],
      "name": "getEnrolledStudents",
      "outputs": [
        {
          "internalType": "address[]",
          "name": "",
          "type": "address[]"
        }
      ],
      "stateMutability": "view",
      "type": "function"
    },
    {
      "inputs": [
        {
          "internalType": "string",
          "name": "examHash",
          "type": "string"
        }
      ],
      "name": "checkEnrollment",
      "outputs": [
        {
          "internalType": "bool",
          "name": "",
          "type": "bool"
        }
      ],
      "stateMutability": "view",
      "type": "function"
    },
    {
      "inputs": [
        {
          "internalType": "string",
          "name": "examHash",
          "type": "string"
        }
      ],
      "name": "createExam",
      "outputs": [],
      "stateMutability": "nonpayable",
      "type": "function"
    }
  ],
  "bytecode": "0x608060405234801561001057600080fd5b50610aa5806100206000396000f3fe608060405234801561001057600080fd5b50600436106100625760003560e01c80630bbc6ea9146100675780631fe7104a1461009757806325821d61146100c757806367b09cdb146100f7578063944bda6314610113578063b9e464d81461012f575b600080fd5b610081600480360381019061007c91906106f3565b61015f565b60405161008e919061076a565b60405180910390f35b6100b160048036038101906100ac9190610785565b6101a4565b6040516100be919061088c565b60405180910390f35b6100e160048036038101906100dc9190610785565b610250565b6040516100ee919061076a565b60405180910390f35b610111600480360381019061010c9190610785565b6102c1565b005b61012d60048036038101906101289190610785565b610460565b005b610149600480360381019061014491906108e4565b6104d7565b604051610156919061094f565b60405180910390f35b6000828051602081018201805184825260208301602085012081835280955050505050506020528060005260406000206000915091509054906101000a900460ff1681565b60606001826040516101b691906109db565b908152602001604051809103902080548060200260200160405190810160405280929190818152602001828054801561024457602002820191906000526020600020905b8160009054906101000a900473ffffffffffffffffffffffffffffffffffffffff1673ffffffffffffffffffffffffffffffffffffffff16815260200190600101908083116101fa575b50505050509050919050565b6000808260405161026191906109db565b908152602001604051809103902060003373ffffffffffffffffffffffffffffffffffffffff1673ffffffffffffffffffffffffffffffffffffffff16815260200190815260200160002060009054906101000a900460ff169050919050565b6000816040516102d191906109db565b908152602001604051809103902060003373ffffffffffffffffffffffffffffffffffffffff1673ffffffffffffffffffffffffffffffffffffffff16815260200190815260200160002060009054906101000a900460ff161561036a576040517f08c379a000000000000000000000000000000000000000000000000000000000815260040161036190610a4f565b60405180910390fd5b600160008260405161037c91906109db565b908152602001604051809103902060003373ffffffffffffffffffffffffffffffffffffffff1673ffffffffffffffffffffffffffffffffffffffff16815260200190815260200160002060006101000a81548160ff0219169083151502179055506001816040516103ee91906109db565b9081526020016040518091039020339080600181540180825580915050600190039060005260206000200160009091909190916101000a81548173ffffffffffffffffffffffffffffffffffffffff021916908373ffffffffffffffffffffffffffffffffffffffff16021790555050565b600160008260405161047291906109db565b908152602001604051809103902060003373ffffffffffffffffffffffffffffffffffffffff1673ffffffffffffffffffffffffffffffffffffffff16815260200190815260200160002060006101000a81548160ff02191690831515021790555050565b600182805160208101820180518482526020830160208501208183528095505050505050818154811061050957600080fd5b906000526020600020016000915091509054906101000a900473ffffffffffffffffffffffffffffffffffffffff1681565b6000604051905090565b600080fd5b600080fd5b600080fd5b600080fd5b6000601f19601f8301169050919050565b7f4e487b7100000000000000000000000000000000000000000000000000000000600052604160045260246000fd5b6105a282610559565b810181811067ffffffffffffffff821117156105c1576105c061056a565b5b80604052505050565b60006105d461053b565b90506105e08282610599565b919050565b600067ffffffffffffffff821115610600576105ff61056a565b5b61060982610559565b9050602081019050919050565b82818337600083830152505050565b6000610638610633846105e5565b6105ca565b90508281526020810184848401111561065457610653610554565b5b61065f848285610616565b509392505050565b600082601f83011261067c5761067b61054f565b5b813561068c848260208601610625565b91505092915050565b600073ffffffffffffffffffffffffffffffffffffffff82169050919050565b60006106c082610695565b9050919050565b6106d0816106b5565b81146106db57600080fd5b50565b6000813590506106ed816106c7565b92915050565b6000806040838503121561070a57610709610545565b5b600083013567ffffffffffffffff8111156107285761072761054a565b5b61073485828601610667565b9250506020610745858286016106de565b9150509250929050565b60008115159050919050565b6107648161074f565b82525050565b600060208201905061077f600083018461075b565b92915050565b60006020828403121561079b5761079a610545565b5b600082013567ffffffffffffffff8111156107b9576107b861054a565b5b6107c584828501610667565b91505092915050565b600081519050919050565b600082825260208201905092915050565b6000819050602082019050919050565b610803816106b5565b82525050565b600061081583836107fa565b60208301905092915050565b6000602082019050919050565b6000610839826107ce565b61084381856107d9565b935061084e836107ea565b8060005b8381101561087f5781516108668882610809565b975061087183610821565b925050600181019050610852565b5085935050505092915050565b600060208201905081810360008301526108a6818461082e565b905092915050565b6000819050919050565b6108c1816108ae565b81146108cc57600080fd5b50565b6000813590506108de816108b8565b92915050565b600080604083850312156108fb576108fa610545565b5b600083013567ffffffffffffffff8111156109195761091861054a565b5b61092585828601610667565b9250506020610936858286016108cf565b9150509250929050565b610949816106b5565b82525050565b60006020820190506109646000830184610940565b92915050565b600081519050919050565b600081905092915050565b60005b8381101561099e578082015181840152602081019050610983565b60008484015250505050565b60006109b58261096a565b6109bf8185610975565b93506109cf818560208601610980565b80840191505092915050565b60006109e782846109aa565b915081905092915050565b600082825260208201905092915050565b7f596f75206861766520616c726561647920656e726f6c6c656400000000000000600082015250565b6000610a396019836109f2565b9150610a4482610a03565b602082019050919050565b60006020820190508181036000830152610a6881610a2c565b905091905056fea2646970667358221220c5f380330f5e33ce8bbafbc31ed2572d556f0e41771cdc2b7edf4714f8bf091664736f6c63430008130033",
  "immutableReferences": {},
  "source": "// SPDX-License-Identifier: MIT\r\npragma solidity ^0.8.19;\r\n\r\ncontract ExamEnrollment {\r\n\r\n    // Mapping to track exam enrollments for each exam\r\n    // examHash => mapping(student address => bool)\r\n    mapping(string => mapping(address => bool)) public examEnrollments;\r\n\r\n    // Array to store the list of students who have enrolled in each exam (optional)\r\n    mapping(string => address[]) public enrolledStudents;\r\n\r\n    function enroll(string memory examHash) public {\r\n        // Check if the student has already enrolled using the mapping\r\n        require(!examEnrollments[examHash][msg.sender], \"You have already enrolled\");\r\n\r\n        // Mark the student as enrolled\r\n        examEnrollments[examHash][msg.sender] = true;\r\n\r\n        // Optionally, store the student's address for listing purposes\r\n        enrolledStudents[examHash].push(msg.sender);\r\n    }\r\n\r\n    // Function to retrieve the list of students who enrolled in a specific exam\r\n    function getEnrolledStudents(string memory examHash) public view returns (address[] memory) {\r\n        return enrolledStudents[examHash];\r\n    }\r\n\r\n    function checkEnrollment(string memory examHash) public view returns (bool) {\r\n        return examEnrollments[examHash][msg.sender];\r\n    }\r\n\r\n    function createExam(string memory examHash) public {\r\n        examEnrollments[examHash][msg.sender] = true; // examiner access given\r\n    }\r\n\r\n    \r\n}",
  "sourcePath": "C:\\Users\\ASUS\\OneDrive\\Desktop\\New Projects\\Web3 Examination Portal\\web3-Examination-App\\contracts\\ExamEnrollment.sol",
  "compiler": {
    "name": "solc",
    "version": "0.8.19+commit.7dd6d404.Emscripten.clang"
  },
  "schemaVersion": "3.4.16",
  "updatedAt": "2024-10-20T09:39:36.532Z",
  "devdoc": {
    "kind": "dev",
    "methods": {},
    "version": 1
  },
  "userdoc": {
    "kind": "user",
    "methods": {},
    "version": 1
  }
}