{
  "contractName": "Exam",
  "abi": [
    {
      "inputs": [
        {
          "internalType": "address",
          "name": "_owner",
          "type": "address"
        },
        {
          "internalType": "string",
          "name": "_name",
          "type": "string"
        },
        {
          "internalType": "string",
          "name": "_date",
          "type": "string"
        },
        {
          "internalType": "string",
          "name": "_lastEnrollmentDate",
          "type": "string"
        },
        {
          "internalType": "uint256",
          "name": "_examDuration",
          "type": "uint256"
        },
        {
          "internalType": "uint256",
          "name": "_examCreationTime",
          "type": "uint256"
        }
      ],
      "stateMutability": "nonpayable",
      "type": "constructor"
    },
    {
      "inputs": [],
      "name": "creationTime",
      "outputs": [
        {
          "internalType": "uint256",
          "name": "",
          "type": "uint256"
        }
      ],
      "stateMutability": "view",
      "type": "function",
      "constant": true
    },
    {
      "inputs": [],
      "name": "date",
      "outputs": [
        {
          "internalType": "string",
          "name": "",
          "type": "string"
        }
      ],
      "stateMutability": "view",
      "type": "function",
      "constant": true
    },
    {
      "inputs": [],
      "name": "duration",
      "outputs": [
        {
          "internalType": "uint256",
          "name": "",
          "type": "uint256"
        }
      ],
      "stateMutability": "view",
      "type": "function",
      "constant": true
    },
    {
      "inputs": [
        {
          "internalType": "address",
          "name": "",
          "type": "address"
        }
      ],
      "name": "enrolledStudents",
      "outputs": [
        {
          "internalType": "string",
          "name": "name",
          "type": "string"
        },
        {
          "internalType": "string",
          "name": "govermentDocument",
          "type": "string"
        },
        {
          "internalType": "string",
          "name": "marksheet",
          "type": "string"
        },
        {
          "internalType": "bool",
          "name": "isVerified",
          "type": "bool"
        },
        {
          "internalType": "bool",
          "name": "isEnrolled",
          "type": "bool"
        },
        {
          "internalType": "address",
          "name": "studentAddress",
          "type": "address"
        }
      ],
      "stateMutability": "view",
      "type": "function",
      "constant": true
    },
    {
      "inputs": [
        {
          "internalType": "uint256",
          "name": "",
          "type": "uint256"
        }
      ],
      "name": "enrolledStudentsArray",
      "outputs": [
        {
          "internalType": "address",
          "name": "",
          "type": "address"
        }
      ],
      "stateMutability": "view",
      "type": "function",
      "constant": true
    },
    {
      "inputs": [],
      "name": "lastEnrollmentDate",
      "outputs": [
        {
          "internalType": "string",
          "name": "",
          "type": "string"
        }
      ],
      "stateMutability": "view",
      "type": "function",
      "constant": true
    },
    {
      "inputs": [],
      "name": "name",
      "outputs": [
        {
          "internalType": "string",
          "name": "",
          "type": "string"
        }
      ],
      "stateMutability": "view",
      "type": "function",
      "constant": true
    },
    {
      "inputs": [
        {
          "internalType": "address",
          "name": "",
          "type": "address"
        }
      ],
      "name": "verifiers",
      "outputs": [
        {
          "internalType": "bool",
          "name": "",
          "type": "bool"
        }
      ],
      "stateMutability": "view",
      "type": "function",
      "constant": true
    },
    {
      "inputs": [
        {
          "internalType": "string",
          "name": "_name",
          "type": "string"
        },
        {
          "internalType": "string",
          "name": "_govermentDocument",
          "type": "string"
        },
        {
          "internalType": "string",
          "name": "_marksheet",
          "type": "string"
        }
      ],
      "name": "enrollStudent",
      "outputs": [],
      "stateMutability": "nonpayable",
      "type": "function"
    },
    {
      "inputs": [],
      "name": "getAllStudents",
      "outputs": [
        {
          "components": [
            {
              "internalType": "string",
              "name": "name",
              "type": "string"
            },
            {
              "internalType": "string",
              "name": "govermentDocument",
              "type": "string"
            },
            {
              "internalType": "string",
              "name": "marksheet",
              "type": "string"
            },
            {
              "internalType": "bool",
              "name": "isVerified",
              "type": "bool"
            },
            {
              "internalType": "bool",
              "name": "isEnrolled",
              "type": "bool"
            },
            {
              "internalType": "address",
              "name": "studentAddress",
              "type": "address"
            }
          ],
          "internalType": "struct Exam.student[]",
          "name": "",
          "type": "tuple[]"
        }
      ],
      "stateMutability": "view",
      "type": "function",
      "constant": true
    },
    {
      "inputs": [
        {
          "internalType": "address",
          "name": "_verifier",
          "type": "address"
        }
      ],
      "name": "addVerifier",
      "outputs": [],
      "stateMutability": "nonpayable",
      "type": "function"
    },
    {
      "inputs": [
        {
          "internalType": "address",
          "name": "_verifier",
          "type": "address"
        }
      ],
      "name": "removeVerifier",
      "outputs": [],
      "stateMutability": "nonpayable",
      "type": "function"
    },
    {
      "inputs": [
        {
          "internalType": "address",
          "name": "_studentAddress",
          "type": "address"
        }
      ],
      "name": "verifyStudent",
      "outputs": [],
      "stateMutability": "nonpayable",
      "type": "function"
    },
    {
      "inputs": [
        {
          "internalType": "address",
          "name": "_studentAddress",
          "type": "address"
        }
      ],
      "name": "isStudentVerified",
      "outputs": [
        {
          "internalType": "bool",
          "name": "",
          "type": "bool"
        }
      ],
      "stateMutability": "view",
      "type": "function",
      "constant": true
    },
    {
      "inputs": [
        {
          "internalType": "string",
          "name": "_questionsCID",
          "type": "string"
        },
        {
          "internalType": "string",
          "name": "_answersCID",
          "type": "string"
        }
      ],
      "name": "createExam",
      "outputs": [],
      "stateMutability": "nonpayable",
      "type": "function"
    },
    {
      "inputs": [],
      "name": "getExamCID",
      "outputs": [
        {
          "internalType": "string",
          "name": "",
          "type": "string"
        }
      ],
      "stateMutability": "view",
      "type": "function",
      "constant": true
    },
    {
      "inputs": [],
      "name": "getAnswersCID",
      "outputs": [
        {
          "internalType": "string",
          "name": "",
          "type": "string"
        }
      ],
      "stateMutability": "view",
      "type": "function",
      "constant": true
    }
  ],
  "bytecode": "0x60806040526000600660006101000a81548160ff0219169083151502179055503480156200002c57600080fd5b50604051620028223803806200282283398181016040528101906200005291906200036d565b856000806101000a81548173ffffffffffffffffffffffffffffffffffffffff021916908373ffffffffffffffffffffffffffffffffffffffff1602179055508460019081620000a39190620006a7565b508360029081620000b59190620006a7565b508260039081620000c79190620006a7565b50816004819055506001600b60008873ffffffffffffffffffffffffffffffffffffffff1673ffffffffffffffffffffffffffffffffffffffff16815260200190815260200160002060006101000a81548160ff021916908315150217905550806005819055505050505050506200078e565b6000604051905090565b600080fd5b600080fd5b600073ffffffffffffffffffffffffffffffffffffffff82169050919050565b60006200017b826200014e565b9050919050565b6200018d816200016e565b81146200019957600080fd5b50565b600081519050620001ad8162000182565b92915050565b600080fd5b600080fd5b6000601f19601f8301169050919050565b7f4e487b7100000000000000000000000000000000000000000000000000000000600052604160045260246000fd5b6200020882620001bd565b810181811067ffffffffffffffff821117156200022a5762000229620001ce565b5b80604052505050565b60006200023f6200013a565b90506200024d8282620001fd565b919050565b600067ffffffffffffffff82111562000270576200026f620001ce565b5b6200027b82620001bd565b9050602081019050919050565b60005b83811015620002a85780820151818401526020810190506200028b565b60008484015250505050565b6000620002cb620002c58462000252565b62000233565b905082815260208101848484011115620002ea57620002e9620001b8565b5b620002f784828562000288565b509392505050565b600082601f830112620003175762000316620001b3565b5b815162000329848260208601620002b4565b91505092915050565b6000819050919050565b620003478162000332565b81146200035357600080fd5b50565b60008151905062000367816200033c565b92915050565b60008060008060008060c087890312156200038d576200038c62000144565b5b60006200039d89828a016200019c565b965050602087015167ffffffffffffffff811115620003c157620003c062000149565b5b620003cf89828a01620002ff565b955050604087015167ffffffffffffffff811115620003f357620003f262000149565b5b6200040189828a01620002ff565b945050606087015167ffffffffffffffff81111562000425576200042462000149565b5b6200043389828a01620002ff565b93505060806200044689828a0162000356565b92505060a06200045989828a0162000356565b9150509295509295509295565b600081519050919050565b7f4e487b7100000000000000000000000000000000000000000000000000000000600052602260045260246000fd5b60006002820490506001821680620004b957607f821691505b602082108103620004cf57620004ce62000471565b5b50919050565b60008190508160005260206000209050919050565b60006020601f8301049050919050565b600082821b905092915050565b600060088302620005397fffffffffffffffffffffffffffffffffffffffffffffffffffffffffffffffff82620004fa565b620005458683620004fa565b95508019841693508086168417925050509392505050565b6000819050919050565b600062000588620005826200057c8462000332565b6200055d565b62000332565b9050919050565b6000819050919050565b620005a48362000567565b620005bc620005b3826200058f565b84845462000507565b825550505050565b600090565b620005d3620005c4565b620005e081848462000599565b505050565b5b818110156200060857620005fc600082620005c9565b600181019050620005e6565b5050565b601f82111562000657576200062181620004d5565b6200062c84620004ea565b810160208510156200063c578190505b620006546200064b85620004ea565b830182620005e5565b50505b505050565b600082821c905092915050565b60006200067c600019846008026200065c565b1980831691505092915050565b600062000697838362000669565b9150826002028217905092915050565b620006b28262000466565b67ffffffffffffffff811115620006ce57620006cd620001ce565b5b620006da8254620004a0565b620006e78282856200060c565b600060209050601f8311600181146200071f57600084156200070a578287015190505b62000716858262000689565b86555062000786565b601f1984166200072f86620004d5565b60005b82811015620007595784890151825560018201915060208501945060208101905062000732565b8683101562000779578489015162000775601f89168262000669565b8355505b6001600288020188555050505b505050505050565b612084806200079e6000396000f3fe608060405234801561001057600080fd5b506004361061010b5760003560e01c80636e570403116100a2578063b32dece111610071578063b32dece1146102bf578063c9b5901d146102dd578063ca2dfd0a146102f9578063d8270dce14610315578063e9e30927146103335761010b565b80636e57040314610236578063729d1dcb146102525780639000b3d61461028757806398378bfe146102a35761010b565b8063323046b1116100de578063323046b11461019a5780633878622e146101b85780634e6cc3c1146101e85780636c824487146102065761010b565b806306fdde03146101105780630fb5a6b41461012e57806319839df81461014c5780632ebcfc131461016a575b600080fd5b610118610351565b6040516101259190611375565b60405180910390f35b6101366103df565b60405161014391906113b0565b60405180910390f35b6101546103e5565b6040516101619190611375565b60405180910390f35b610184600480360381019061017f919061140b565b610473565b6040516101919190611479565b60405180910390f35b6101a26104b2565b6040516101af9190611375565b60405180910390f35b6101d260048036038101906101cd91906114c0565b610540565b6040516101df9190611508565b60405180910390f35b6101f0610599565b6040516101fd9190611375565b60405180910390f35b610220600480360381019061021b91906114c0565b61062b565b60405161022d9190611508565b60405180910390f35b610250600480360381019061024b9190611658565b61064b565b005b61026c600480360381019061026791906114c0565b610768565b60405161027e969594939291906116d0565b60405180910390f35b6102a1600480360381019061029c91906114c0565b610976565b005b6102bd60048036038101906102b89190611746565b610a5f565b005b6102c7610cb7565b6040516102d49190611375565b60405180910390f35b6102f760048036038101906102f291906114c0565b610d49565b005b610313600480360381019061030e91906114c0565b610e33565b005b61031d610f1c565b60405161032a91906113b0565b60405180910390f35b61033b610f22565b60405161034891906119ae565b60405180910390f35b6001805461035e906119ff565b80601f016020809104026020016040519081016040528092919081815260200182805461038a906119ff565b80156103d75780601f106103ac576101008083540402835291602001916103d7565b820191906000526020600020905b8154815290600101906020018083116103ba57829003601f168201915b505050505081565b60045481565b600380546103f2906119ff565b80601f016020809104026020016040519081016040528092919081815260200182805461041e906119ff565b801561046b5780601f106104405761010080835404028352916020019161046b565b820191906000526020600020905b81548152906001019060200180831161044e57829003601f168201915b505050505081565b600a818154811061048357600080fd5b906000526020600020016000915054906101000a900473ffffffffffffffffffffffffffffffffffffffff1681565b600280546104bf906119ff565b80601f01602080910402602001604051908101604052809291908181526020018280546104eb906119ff565b80156105385780601f1061050d57610100808354040283529160200191610538565b820191906000526020600020905b81548152906001019060200180831161051b57829003601f168201915b505050505081565b6000600960008373ffffffffffffffffffffffffffffffffffffffff1673ffffffffffffffffffffffffffffffffffffffff16815260200190815260200160002060030160009054906101000a900460ff169050919050565b6060600880546105a8906119ff565b80601f01602080910402602001604051908101604052809291908181526020018280546105d4906119ff565b80156106215780601f106105f657610100808354040283529160200191610621565b820191906000526020600020905b81548152906001019060200180831161060457829003601f168201915b5050505050905090565b600b6020528060005260406000206000915054906101000a900460ff1681565b3373ffffffffffffffffffffffffffffffffffffffff1660008054906101000a900473ffffffffffffffffffffffffffffffffffffffff1673ffffffffffffffffffffffffffffffffffffffff16146106d9576040517f08c379a00000000000000000000000000000000000000000000000000000000081526004016106d090611aa2565b60405180910390fd5b600660009054906101000a900460ff1615610729576040517f08c379a000000000000000000000000000000000000000000000000000000000815260040161072090611b0e565b60405180910390fd5b81600790816107389190611cda565b5080600890816107489190611cda565b506001600660006101000a81548160ff0219169083151502179055505050565b600960205280600052604060002060009150905080600001805461078b906119ff565b80601f01602080910402602001604051908101604052809291908181526020018280546107b7906119ff565b80156108045780601f106107d957610100808354040283529160200191610804565b820191906000526020600020905b8154815290600101906020018083116107e757829003601f168201915b505050505090806001018054610819906119ff565b80601f0160208091040260200160405190810160405280929190818152602001828054610845906119ff565b80156108925780601f1061086757610100808354040283529160200191610892565b820191906000526020600020905b81548152906001019060200180831161087557829003601f168201915b5050505050908060020180546108a7906119ff565b80601f01602080910402602001604051908101604052809291908181526020018280546108d3906119ff565b80156109205780601f106108f557610100808354040283529160200191610920565b820191906000526020600020905b81548152906001019060200180831161090357829003601f168201915b5050505050908060030160009054906101000a900460ff16908060030160019054906101000a900460ff16908060030160029054906101000a900473ffffffffffffffffffffffffffffffffffffffff16905086565b3373ffffffffffffffffffffffffffffffffffffffff1660008054906101000a900473ffffffffffffffffffffffffffffffffffffffff1673ffffffffffffffffffffffffffffffffffffffff1614610a04576040517f08c379a00000000000000000000000000000000000000000000000000000000081526004016109fb90611e1e565b60405180910390fd5b6001600b60008373ffffffffffffffffffffffffffffffffffffffff1673ffffffffffffffffffffffffffffffffffffffff16815260200190815260200160002060006101000a81548160ff02191690831515021790555050565b600960003373ffffffffffffffffffffffffffffffffffffffff1673ffffffffffffffffffffffffffffffffffffffff16815260200190815260200160002060030160019054906101000a900460ff1615610aef576040517f08c379a0000000000000000000000000000000000000000000000000000000008152600401610ae690611e8a565b60405180910390fd5b600033905060006040518060c001604052808681526020018581526020018481526020016000151581526020016001151581526020018373ffffffffffffffffffffffffffffffffffffffff16815250905080600960008473ffffffffffffffffffffffffffffffffffffffff1673ffffffffffffffffffffffffffffffffffffffff1681526020019081526020016000206000820151816000019081610b969190611cda565b506020820151816001019081610bac9190611cda565b506040820151816002019081610bc29190611cda565b5060608201518160030160006101000a81548160ff02191690831515021790555060808201518160030160016101000a81548160ff02191690831515021790555060a08201518160030160026101000a81548173ffffffffffffffffffffffffffffffffffffffff021916908373ffffffffffffffffffffffffffffffffffffffff160217905550905050600a829080600181540180825580915050600190039060005260206000200160009091909190916101000a81548173ffffffffffffffffffffffffffffffffffffffff021916908373ffffffffffffffffffffffffffffffffffffffff1602179055505050505050565b606060078054610cc6906119ff565b80601f0160208091040260200160405190810160405280929190818152602001828054610cf2906119ff565b8015610d3f5780601f10610d1457610100808354040283529160200191610d3f565b820191906000526020600020905b815481529060010190602001808311610d2257829003601f168201915b5050505050905090565b600b60003373ffffffffffffffffffffffffffffffffffffffff1673ffffffffffffffffffffffffffffffffffffffff16815260200190815260200160002060009054906101000a900460ff16610dd5576040517f08c379a0000000000000000000000000000000000000000000000000000000008152600401610dcc90611ef6565b60405180910390fd5b6001600960008373ffffffffffffffffffffffffffffffffffffffff1673ffffffffffffffffffffffffffffffffffffffff16815260200190815260200160002060030160006101000a81548160ff02191690831515021790555050565b3373ffffffffffffffffffffffffffffffffffffffff1660008054906101000a900473ffffffffffffffffffffffffffffffffffffffff1673ffffffffffffffffffffffffffffffffffffffff1614610ec1576040517f08c379a0000000000000000000000000000000000000000000000000000000008152600401610eb890611f88565b60405180910390fd5b6000600b60008373ffffffffffffffffffffffffffffffffffffffff1673ffffffffffffffffffffffffffffffffffffffff16815260200190815260200160002060006101000a81548160ff02191690831515021790555050565b60055481565b60606000600a80549050905060008167ffffffffffffffff811115610f4a57610f4961152d565b5b604051908082528060200260200182016040528015610f8357816020015b610f70611295565b815260200190600190039081610f685790505b50905060005b8281101561128c5760096000600a8381548110610fa957610fa8611fa8565b5b9060005260206000200160009054906101000a900473ffffffffffffffffffffffffffffffffffffffff1673ffffffffffffffffffffffffffffffffffffffff1673ffffffffffffffffffffffffffffffffffffffff1681526020019081526020016000206040518060c0016040529081600082018054611029906119ff565b80601f0160208091040260200160405190810160405280929190818152602001828054611055906119ff565b80156110a25780601f10611077576101008083540402835291602001916110a2565b820191906000526020600020905b81548152906001019060200180831161108557829003601f168201915b505050505081526020016001820180546110bb906119ff565b80601f01602080910402602001604051908101604052809291908181526020018280546110e7906119ff565b80156111345780601f1061110957610100808354040283529160200191611134565b820191906000526020600020905b81548152906001019060200180831161111757829003601f168201915b5050505050815260200160028201805461114d906119ff565b80601f0160208091040260200160405190810160405280929190818152602001828054611179906119ff565b80156111c65780601f1061119b576101008083540402835291602001916111c6565b820191906000526020600020905b8154815290600101906020018083116111a957829003601f168201915b505050505081526020016003820160009054906101000a900460ff161515151581526020016003820160019054906101000a900460ff161515151581526020016003820160029054906101000a900473ffffffffffffffffffffffffffffffffffffffff1673ffffffffffffffffffffffffffffffffffffffff1673ffffffffffffffffffffffffffffffffffffffff168152505082828151811061126e5761126d611fa8565b5b6020026020010181905250808061128490612006565b915050610f89565b50809250505090565b6040518060c00160405280606081526020016060815260200160608152602001600015158152602001600015158152602001600073ffffffffffffffffffffffffffffffffffffffff1681525090565b600081519050919050565b600082825260208201905092915050565b60005b8381101561131f578082015181840152602081019050611304565b60008484015250505050565b6000601f19601f8301169050919050565b6000611347826112e5565b61135181856112f0565b9350611361818560208601611301565b61136a8161132b565b840191505092915050565b6000602082019050818103600083015261138f818461133c565b905092915050565b6000819050919050565b6113aa81611397565b82525050565b60006020820190506113c560008301846113a1565b92915050565b6000604051905090565b600080fd5b600080fd5b6113e881611397565b81146113f357600080fd5b50565b600081359050611405816113df565b92915050565b600060208284031215611421576114206113d5565b5b600061142f848285016113f6565b91505092915050565b600073ffffffffffffffffffffffffffffffffffffffff82169050919050565b600061146382611438565b9050919050565b61147381611458565b82525050565b600060208201905061148e600083018461146a565b92915050565b61149d81611458565b81146114a857600080fd5b50565b6000813590506114ba81611494565b92915050565b6000602082840312156114d6576114d56113d5565b5b60006114e4848285016114ab565b91505092915050565b60008115159050919050565b611502816114ed565b82525050565b600060208201905061151d60008301846114f9565b92915050565b600080fd5b600080fd5b7f4e487b7100000000000000000000000000000000000000000000000000000000600052604160045260246000fd5b6115658261132b565b810181811067ffffffffffffffff821117156115845761158361152d565b5b80604052505050565b60006115976113cb565b90506115a3828261155c565b919050565b600067ffffffffffffffff8211156115c3576115c261152d565b5b6115cc8261132b565b9050602081019050919050565b82818337600083830152505050565b60006115fb6115f6846115a8565b61158d565b90508281526020810184848401111561161757611616611528565b5b6116228482856115d9565b509392505050565b600082601f83011261163f5761163e611523565b5b813561164f8482602086016115e8565b91505092915050565b6000806040838503121561166f5761166e6113d5565b5b600083013567ffffffffffffffff81111561168d5761168c6113da565b5b6116998582860161162a565b925050602083013567ffffffffffffffff8111156116ba576116b96113da565b5b6116c68582860161162a565b9150509250929050565b600060c08201905081810360008301526116ea818961133c565b905081810360208301526116fe818861133c565b90508181036040830152611712818761133c565b905061172160608301866114f9565b61172e60808301856114f9565b61173b60a083018461146a565b979650505050505050565b60008060006060848603121561175f5761175e6113d5565b5b600084013567ffffffffffffffff81111561177d5761177c6113da565b5b6117898682870161162a565b935050602084013567ffffffffffffffff8111156117aa576117a96113da565b5b6117b68682870161162a565b925050604084013567ffffffffffffffff8111156117d7576117d66113da565b5b6117e38682870161162a565b9150509250925092565b600081519050919050565b600082825260208201905092915050565b6000819050602082019050919050565b600082825260208201905092915050565b6000611835826112e5565b61183f8185611819565b935061184f818560208601611301565b6118588161132b565b840191505092915050565b61186c816114ed565b82525050565b61187b81611458565b82525050565b600060c083016000830151848203600086015261189e828261182a565b915050602083015184820360208601526118b8828261182a565b915050604083015184820360408601526118d2828261182a565b91505060608301516118e76060860182611863565b5060808301516118fa6080860182611863565b5060a083015161190d60a0860182611872565b508091505092915050565b60006119248383611881565b905092915050565b6000602082019050919050565b6000611944826117ed565b61194e81856117f8565b93508360208202850161196085611809565b8060005b8581101561199c578484038952815161197d8582611918565b94506119888361192c565b925060208a01995050600181019050611964565b50829750879550505050505092915050565b600060208201905081810360008301526119c88184611939565b905092915050565b7f4e487b7100000000000000000000000000000000000000000000000000000000600052602260045260246000fd5b60006002820490506001821680611a1757607f821691505b602082108103611a2a57611a296119d0565b5b50919050565b7f596f7520617265206e6f7420617574686f72697a656420746f2063726561746560008201527f206578616d000000000000000000000000000000000000000000000000000000602082015250565b6000611a8c6025836112f0565b9150611a9782611a30565b604082019050919050565b60006020820190508181036000830152611abb81611a7f565b9050919050565b7f4578616d20697320616c72656164792063726561746564000000000000000000600082015250565b6000611af86017836112f0565b9150611b0382611ac2565b602082019050919050565b60006020820190508181036000830152611b2781611aeb565b9050919050565b60008190508160005260206000209050919050565b60006020601f8301049050919050565b600082821b905092915050565b600060088302611b907fffffffffffffffffffffffffffffffffffffffffffffffffffffffffffffffff82611b53565b611b9a8683611b53565b95508019841693508086168417925050509392505050565b6000819050919050565b6000611bd7611bd2611bcd84611397565b611bb2565b611397565b9050919050565b6000819050919050565b611bf183611bbc565b611c05611bfd82611bde565b848454611b60565b825550505050565b600090565b611c1a611c0d565b611c25818484611be8565b505050565b5b81811015611c4957611c3e600082611c12565b600181019050611c2b565b5050565b601f821115611c8e57611c5f81611b2e565b611c6884611b43565b81016020851015611c77578190505b611c8b611c8385611b43565b830182611c2a565b50505b505050565b600082821c905092915050565b6000611cb160001984600802611c93565b1980831691505092915050565b6000611cca8383611ca0565b9150826002028217905092915050565b611ce3826112e5565b67ffffffffffffffff811115611cfc57611cfb61152d565b5b611d0682546119ff565b611d11828285611c4d565b600060209050601f831160018114611d445760008415611d32578287015190505b611d3c8582611cbe565b865550611da4565b601f198416611d5286611b2e565b60005b82811015611d7a57848901518255600182019150602085019450602081019050611d55565b86831015611d975784890151611d93601f891682611ca0565b8355505b6001600288020188555050505b505050505050565b7f596f7520617265206e6f7420617574686f72697a656420746f2061646420766560008201527f7269666965720000000000000000000000000000000000000000000000000000602082015250565b6000611e086026836112f0565b9150611e1382611dac565b604082019050919050565b60006020820190508181036000830152611e3781611dfb565b9050919050565b7f596f752061726520616c726561647920656e726f6c6c65640000000000000000600082015250565b6000611e746018836112f0565b9150611e7f82611e3e565b602082019050919050565b60006020820190508181036000830152611ea381611e67565b9050919050565b7f596f7520617265206e6f7420617574686f72697a656420746f20766572696679600082015250565b6000611ee06020836112f0565b9150611eeb82611eaa565b602082019050919050565b60006020820190508181036000830152611f0f81611ed3565b9050919050565b7f596f7520617265206e6f7420617574686f72697a656420746f2072656d6f766560008201527f2076657269666965720000000000000000000000000000000000000000000000602082015250565b6000611f726029836112f0565b9150611f7d82611f16565b604082019050919050565b60006020820190508181036000830152611fa181611f65565b9050919050565b7f4e487b7100000000000000000000000000000000000000000000000000000000600052603260045260246000fd5b7f4e487b7100000000000000000000000000000000000000000000000000000000600052601160045260246000fd5b600061201182611397565b91507fffffffffffffffffffffffffffffffffffffffffffffffffffffffffffffffff820361204357612042611fd7565b5b60018201905091905056fea2646970667358221220251ea224d131e1536a7c2a0ed0c20da547705215776f182dc3c7c4c605c84a3d64736f6c63430008130033",
  "immutableReferences": {},
  "source": "// SPDX-License-Identifier: MIT\r\npragma solidity ^0.8.19;\r\n\r\ncontract Exam {\r\n    address private owner;\r\n    string public name;\r\n    string public date;\r\n    string public lastEnrollmentDate;\r\n    uint public duration;\r\n    uint public creationTime;\r\n\r\n    bool isExamCreated = false;\r\n    string private questionsCID;\r\n    string private answersCID;\r\n\r\n    struct student {\r\n        string name;\r\n        string govermentDocument;\r\n        string marksheet;\r\n        bool isVerified;\r\n        bool isEnrolled;\r\n        address studentAddress;\r\n    }\r\n    mapping(address => student) public enrolledStudents;\r\n    address[] public enrolledStudentsArray;\r\n    mapping(address => bool) public verifiers;\r\n    // constructor takes all the exam data and stores them in state variables.\r\n    constructor(\r\n        address _owner,\r\n        string memory _name,\r\n        string memory _date,\r\n        string memory _lastEnrollmentDate,\r\n        uint _examDuration,\r\n        uint _examCreationTime\r\n    ) {\r\n        owner = _owner;\r\n        name = _name;\r\n        date = _date;\r\n        lastEnrollmentDate = _lastEnrollmentDate;\r\n        duration = _examDuration;\r\n        verifiers[_owner] = true;\r\n        creationTime = _examCreationTime;\r\n    }\r\n\r\n    // Function for the students to Enroll to a perticular exam\r\n    function enrollStudent(\r\n        string memory _name,\r\n        string memory _govermentDocument,\r\n        string memory _marksheet\r\n    ) public {\r\n        require(\r\n            !enrolledStudents[msg.sender].isEnrolled,\r\n            \"You are already enrolled\"\r\n        );\r\n        address _address = msg.sender;\r\n        student memory newStudent = student(\r\n            _name,\r\n            _govermentDocument,\r\n            _marksheet,\r\n            false,\r\n            true,\r\n            _address\r\n        );\r\n        enrolledStudents[_address] = newStudent;\r\n        enrolledStudentsArray.push(_address);\r\n    }\r\n\r\n    // Get all the students who enrolled in the exam\r\n    function getAllStudents() public view returns (student[] memory) {\r\n        uint256 arrayLength = enrolledStudentsArray.length;\r\n        student[] memory studentArray = new student[](arrayLength);\r\n        for (uint256 i = 0; i < arrayLength; i++) {\r\n            studentArray[i] = enrolledStudents[enrolledStudentsArray[i]];\r\n        }\r\n        return studentArray;\r\n    }\r\n\r\n    // Function to add new _verifier\r\n    function addVerifier(address _verifier) public {\r\n        require(owner == msg.sender, \"You are not authorized to add verifier\");\r\n        verifiers[_verifier] = true;\r\n    }\r\n\r\n    // Function to remove the verifier\r\n    function removeVerifier(address _verifier) public {\r\n        require(\r\n            owner == msg.sender,\r\n            \"You are not authorized to remove verifier\"\r\n        );\r\n        verifiers[_verifier] = false;\r\n    }\r\n\r\n    // Function for the verifiers to verify the students\r\n    function verifyStudent(address _studentAddress) public {\r\n        require(verifiers[msg.sender], \"You are not authorized to verify\");\r\n        enrolledStudents[_studentAddress].isVerified = true;\r\n    }\r\n\r\n    // Function to check if the student is verified or not\r\n    function isStudentVerified(\r\n        address _studentAddress\r\n    ) public view returns (bool) {\r\n        return enrolledStudents[_studentAddress].isVerified;\r\n    }\r\n\r\n    // Function to create exam\r\n    function createExam(\r\n        string memory _questionsCID,\r\n        string memory _answersCID\r\n    ) public {\r\n        require(owner == msg.sender, \"You are not authorized to create exam\");\r\n        require(!isExamCreated, \"Exam is already created\");\r\n\r\n        questionsCID = _questionsCID;\r\n        answersCID = _answersCID;\r\n        isExamCreated = true;\r\n    }\r\n\r\n    // Function to get the questions CID\r\n    function getExamCID() public view returns (string memory) {\r\n        return questionsCID;\r\n    }\r\n\r\n    // Function to get the exam answers CID\r\n    function getAnswersCID() public view returns (string memory) {\r\n        return answersCID;\r\n    }\r\n}\r\n",
  "sourcePath": "D:\\Web3 Examination Portal\\contracts\\Exam.sol",
  "compiler": {
    "name": "solc",
    "version": "0.8.19+commit.7dd6d404.Emscripten.clang"
  },
  "schemaVersion": "3.4.16",
  "updatedAt": "2024-10-20T10:44:48.940Z",
  "networkType": "ethereum",
  "devdoc": {
    "kind": "dev",
    "methods": {},
    "version": 1
  },
  "userdoc": {
    "kind": "user",
    "methods": {},
    "version": 1
  }
}