{
  "contractName": "Exam",
  "abi": [
    {
      "inputs": [
        {
          "internalType": "address",
          "name": "_owner",
          "type": "address"
        },
        {
          "internalType": "string",
          "name": "_name",
          "type": "string"
        },
        {
          "internalType": "string",
          "name": "_date",
          "type": "string"
        },
        {
          "internalType": "string",
          "name": "_lastEnrollmentDate",
          "type": "string"
        },
        {
          "internalType": "uint256",
          "name": "_examDuration",
          "type": "uint256"
        },
        {
          "internalType": "uint256",
          "name": "_examCreationTime",
          "type": "uint256"
        },
        {
          "internalType": "string",
          "name": "_examHash",
          "type": "string"
        }
      ],
      "stateMutability": "nonpayable",
      "type": "constructor"
    },
    {
      "inputs": [],
      "name": "creationTime",
      "outputs": [
        {
          "internalType": "uint256",
          "name": "",
          "type": "uint256"
        }
      ],
      "stateMutability": "view",
      "type": "function",
      "constant": true
    },
    {
      "inputs": [],
      "name": "date",
      "outputs": [
        {
          "internalType": "string",
          "name": "",
          "type": "string"
        }
      ],
      "stateMutability": "view",
      "type": "function",
      "constant": true
    },
    {
      "inputs": [],
      "name": "duration",
      "outputs": [
        {
          "internalType": "uint256",
          "name": "",
          "type": "uint256"
        }
      ],
      "stateMutability": "view",
      "type": "function",
      "constant": true
    },
    {
      "inputs": [
        {
          "internalType": "address",
          "name": "",
          "type": "address"
        }
      ],
      "name": "enrolledStudents",
      "outputs": [
        {
          "internalType": "string",
          "name": "name",
          "type": "string"
        },
        {
          "internalType": "string",
          "name": "govermentDocument",
          "type": "string"
        },
        {
          "internalType": "string",
          "name": "marksheet",
          "type": "string"
        },
        {
          "internalType": "bool",
          "name": "isVerified",
          "type": "bool"
        },
        {
          "internalType": "bool",
          "name": "isEnrolled",
          "type": "bool"
        },
        {
          "internalType": "address",
          "name": "studentAddress",
          "type": "address"
        },
        {
          "internalType": "bool",
          "name": "hasExamGiven",
          "type": "bool"
        },
        {
          "internalType": "string",
          "name": "encryptedMarks",
          "type": "string"
        }
      ],
      "stateMutability": "view",
      "type": "function",
      "constant": true
    },
    {
      "inputs": [
        {
          "internalType": "uint256",
          "name": "",
          "type": "uint256"
        }
      ],
      "name": "enrolledStudentsArray",
      "outputs": [
        {
          "internalType": "address",
          "name": "",
          "type": "address"
        }
      ],
      "stateMutability": "view",
      "type": "function",
      "constant": true
    },
    {
      "inputs": [],
      "name": "examHash",
      "outputs": [
        {
          "internalType": "string",
          "name": "",
          "type": "string"
        }
      ],
      "stateMutability": "view",
      "type": "function",
      "constant": true
    },
    {
      "inputs": [],
      "name": "isExamCreated",
      "outputs": [
        {
          "internalType": "bool",
          "name": "",
          "type": "bool"
        }
      ],
      "stateMutability": "view",
      "type": "function",
      "constant": true
    },
    {
      "inputs": [],
      "name": "lastEnrollmentDate",
      "outputs": [
        {
          "internalType": "string",
          "name": "",
          "type": "string"
        }
      ],
      "stateMutability": "view",
      "type": "function",
      "constant": true
    },
    {
      "inputs": [],
      "name": "name",
      "outputs": [
        {
          "internalType": "string",
          "name": "",
          "type": "string"
        }
      ],
      "stateMutability": "view",
      "type": "function",
      "constant": true
    },
    {
      "inputs": [
        {
          "internalType": "address",
          "name": "",
          "type": "address"
        }
      ],
      "name": "verifiers",
      "outputs": [
        {
          "internalType": "bool",
          "name": "",
          "type": "bool"
        }
      ],
      "stateMutability": "view",
      "type": "function",
      "constant": true
    },
    {
      "inputs": [
        {
          "internalType": "string",
          "name": "_name",
          "type": "string"
        },
        {
          "internalType": "string",
          "name": "_govermentDocument",
          "type": "string"
        },
        {
          "internalType": "string",
          "name": "_marksheet",
          "type": "string"
        }
      ],
      "name": "enrollStudent",
      "outputs": [],
      "stateMutability": "nonpayable",
      "type": "function"
    },
    {
      "inputs": [],
      "name": "getAllStudents",
      "outputs": [
        {
          "components": [
            {
              "internalType": "string",
              "name": "name",
              "type": "string"
            },
            {
              "internalType": "string",
              "name": "govermentDocument",
              "type": "string"
            },
            {
              "internalType": "string",
              "name": "marksheet",
              "type": "string"
            },
            {
              "internalType": "bool",
              "name": "isVerified",
              "type": "bool"
            },
            {
              "internalType": "bool",
              "name": "isEnrolled",
              "type": "bool"
            },
            {
              "internalType": "address",
              "name": "studentAddress",
              "type": "address"
            },
            {
              "internalType": "bool",
              "name": "hasExamGiven",
              "type": "bool"
            },
            {
              "internalType": "string",
              "name": "encryptedMarks",
              "type": "string"
            }
          ],
          "internalType": "struct Exam.student[]",
          "name": "",
          "type": "tuple[]"
        }
      ],
      "stateMutability": "view",
      "type": "function",
      "constant": true
    },
    {
      "inputs": [
        {
          "internalType": "address",
          "name": "_verifier",
          "type": "address"
        }
      ],
      "name": "addVerifier",
      "outputs": [],
      "stateMutability": "nonpayable",
      "type": "function"
    },
    {
      "inputs": [
        {
          "internalType": "address",
          "name": "_verifier",
          "type": "address"
        }
      ],
      "name": "removeVerifier",
      "outputs": [],
      "stateMutability": "nonpayable",
      "type": "function"
    },
    {
      "inputs": [
        {
          "internalType": "address",
          "name": "_studentAddress",
          "type": "address"
        }
      ],
      "name": "verifyStudent",
      "outputs": [],
      "stateMutability": "nonpayable",
      "type": "function"
    },
    {
      "inputs": [
        {
          "internalType": "address",
          "name": "_studentAddress",
          "type": "address"
        }
      ],
      "name": "isStudentEnrolled",
      "outputs": [
        {
          "internalType": "bool",
          "name": "",
          "type": "bool"
        }
      ],
      "stateMutability": "view",
      "type": "function",
      "constant": true
    },
    {
      "inputs": [
        {
          "internalType": "address",
          "name": "_studentAddress",
          "type": "address"
        }
      ],
      "name": "isStudentVerified",
      "outputs": [
        {
          "internalType": "bool",
          "name": "",
          "type": "bool"
        }
      ],
      "stateMutability": "view",
      "type": "function",
      "constant": true
    },
    {
      "inputs": [
        {
          "internalType": "string",
          "name": "_questionsCID",
          "type": "string"
        },
        {
          "internalType": "string",
          "name": "_answersCID",
          "type": "string"
        }
      ],
      "name": "createExam",
      "outputs": [],
      "stateMutability": "nonpayable",
      "type": "function"
    },
    {
      "inputs": [],
      "name": "getExamCID",
      "outputs": [
        {
          "internalType": "string",
          "name": "",
          "type": "string"
        }
      ],
      "stateMutability": "view",
      "type": "function",
      "constant": true
    },
    {
      "inputs": [],
      "name": "getAnswersCID",
      "outputs": [
        {
          "internalType": "string",
          "name": "",
          "type": "string"
        }
      ],
      "stateMutability": "view",
      "type": "function",
      "constant": true
    },
    {
      "inputs": [
        {
          "internalType": "string",
          "name": "marks",
          "type": "string"
        }
      ],
      "name": "gradeStudent",
      "outputs": [],
      "stateMutability": "nonpayable",
      "type": "function"
    },
    {
      "inputs": [],
      "name": "getStudent",
      "outputs": [
        {
          "components": [
            {
              "internalType": "string",
              "name": "name",
              "type": "string"
            },
            {
              "internalType": "string",
              "name": "govermentDocument",
              "type": "string"
            },
            {
              "internalType": "string",
              "name": "marksheet",
              "type": "string"
            },
            {
              "internalType": "bool",
              "name": "isVerified",
              "type": "bool"
            },
            {
              "internalType": "bool",
              "name": "isEnrolled",
              "type": "bool"
            },
            {
              "internalType": "address",
              "name": "studentAddress",
              "type": "address"
            },
            {
              "internalType": "bool",
              "name": "hasExamGiven",
              "type": "bool"
            },
            {
              "internalType": "string",
              "name": "encryptedMarks",
              "type": "string"
            }
          ],
          "internalType": "struct Exam.student",
          "name": "",
          "type": "tuple"
        }
      ],
      "stateMutability": "view",
      "type": "function",
      "constant": true
    }
  ],
  "bytecode": "0x60806040526000600760006101000a81548160ff0219169083151502179055503480156200002c57600080fd5b506040516200319638038062003196833981810160405281019062000052919062000380565b866000806101000a81548173ffffffffffffffffffffffffffffffffffffffff021916908373ffffffffffffffffffffffffffffffffffffffff1602179055508560019081620000a39190620006f0565b508460029081620000b59190620006f0565b508360039081620000c79190620006f0565b50826004819055506001600c60008973ffffffffffffffffffffffffffffffffffffffff1673ffffffffffffffffffffffffffffffffffffffff16815260200190815260200160002060006101000a81548160ff0219169083151502179055508160058190555080600690816200013f9190620006f0565b5050505050505050620007d7565b6000604051905090565b600080fd5b600080fd5b600073ffffffffffffffffffffffffffffffffffffffff82169050919050565b60006200018e8262000161565b9050919050565b620001a08162000181565b8114620001ac57600080fd5b50565b600081519050620001c08162000195565b92915050565b600080fd5b600080fd5b6000601f19601f8301169050919050565b7f4e487b7100000000000000000000000000000000000000000000000000000000600052604160045260246000fd5b6200021b82620001d0565b810181811067ffffffffffffffff821117156200023d576200023c620001e1565b5b80604052505050565b6000620002526200014d565b905062000260828262000210565b919050565b600067ffffffffffffffff821115620002835762000282620001e1565b5b6200028e82620001d0565b9050602081019050919050565b60005b83811015620002bb5780820151818401526020810190506200029e565b60008484015250505050565b6000620002de620002d88462000265565b62000246565b905082815260208101848484011115620002fd57620002fc620001cb565b5b6200030a8482856200029b565b509392505050565b600082601f8301126200032a5762000329620001c6565b5b81516200033c848260208601620002c7565b91505092915050565b6000819050919050565b6200035a8162000345565b81146200036657600080fd5b50565b6000815190506200037a816200034f565b92915050565b600080600080600080600060e0888a031215620003a257620003a162000157565b5b6000620003b28a828b01620001af565b975050602088015167ffffffffffffffff811115620003d657620003d56200015c565b5b620003e48a828b0162000312565b965050604088015167ffffffffffffffff8111156200040857620004076200015c565b5b620004168a828b0162000312565b955050606088015167ffffffffffffffff8111156200043a57620004396200015c565b5b620004488a828b0162000312565b94505060806200045b8a828b0162000369565b93505060a06200046e8a828b0162000369565b92505060c088015167ffffffffffffffff8111156200049257620004916200015c565b5b620004a08a828b0162000312565b91505092959891949750929550565b600081519050919050565b7f4e487b7100000000000000000000000000000000000000000000000000000000600052602260045260246000fd5b600060028204905060018216806200050257607f821691505b602082108103620005185762000517620004ba565b5b50919050565b60008190508160005260206000209050919050565b60006020601f8301049050919050565b600082821b905092915050565b600060088302620005827fffffffffffffffffffffffffffffffffffffffffffffffffffffffffffffffff8262000543565b6200058e868362000543565b95508019841693508086168417925050509392505050565b6000819050919050565b6000620005d1620005cb620005c58462000345565b620005a6565b62000345565b9050919050565b6000819050919050565b620005ed83620005b0565b62000605620005fc82620005d8565b84845462000550565b825550505050565b600090565b6200061c6200060d565b62000629818484620005e2565b505050565b5b8181101562000651576200064560008262000612565b6001810190506200062f565b5050565b601f821115620006a0576200066a816200051e565b620006758462000533565b8101602085101562000685578190505b6200069d620006948562000533565b8301826200062e565b50505b505050565b600082821c905092915050565b6000620006c560001984600802620006a5565b1980831691505092915050565b6000620006e08383620006b2565b9150826002028217905092915050565b620006fb82620004af565b67ffffffffffffffff811115620007175762000716620001e1565b5b620007238254620004e9565b6200073082828562000655565b600060209050601f83116001811462000768576000841562000753578287015190505b6200075f8582620006d2565b865550620007cf565b601f19841662000778866200051e565b60005b82811015620007a2578489015182556001820191506020850194506020810190506200077b565b86831015620007c25784890151620007be601f891682620006b2565b8355505b6001600288020188555050505b505050505050565b6129af80620007e76000396000f3fe608060405234801561001057600080fd5b50600436106101425760003560e01c80639000b3d6116100b8578063c7f8ffe41161007c578063c7f8ffe41461036e578063c9b5901d1461038c578063ca2dfd0a146103a8578063ce3d6aa9146103c4578063d8270dce146103f4578063e9e309271461041257610142565b80639000b3d6146102de57806398378bfe146102fa578063ad13c04414610316578063b32dece114610332578063b439548d1461035057610142565b8063323046b11161010a578063323046b1146101ef5780633878622e1461020d5780634e6cc3c11461023d5780636c8244871461025b5780636e5704031461028b578063729d1dcb146102a757610142565b806306fdde03146101475780630fb5a6b41461016557806319839df814610183578063267fd225146101a15780632ebcfc13146101bf575b600080fd5b61014f610430565b60405161015c9190611b1e565b60405180910390f35b61016d6104be565b60405161017a9190611b59565b60405180910390f35b61018b6104c4565b6040516101989190611b1e565b60405180910390f35b6101a9610552565b6040516101b69190611b1e565b60405180910390f35b6101d960048036038101906101d49190611bb4565b6105e0565b6040516101e69190611c22565b60405180910390f35b6101f761061f565b6040516102049190611b1e565b60405180910390f35b61022760048036038101906102229190611c69565b6106ad565b6040516102349190611cb1565b60405180910390f35b610245610706565b6040516102529190611b1e565b60405180910390f35b61027560048036038101906102709190611c69565b610798565b6040516102829190611cb1565b60405180910390f35b6102a560048036038101906102a09190611e01565b6107b8565b005b6102c160048036038101906102bc9190611c69565b6108d5565b6040516102d5989796959493929190611e79565b60405180910390f35b6102f860048036038101906102f39190611c69565b610b84565b005b610314600480360381019061030f9190611f13565b610c6d565b005b610330600480360381019061032b9190611fba565b610f40565b005b61033a610fee565b6040516103479190611b1e565b60405180910390f35b610358611080565b6040516103659190612130565b60405180910390f35b6103766113c7565b6040516103839190611cb1565b60405180910390f35b6103a660048036038101906103a19190611c69565b6113da565b005b6103c260048036038101906103bd9190611c69565b6114c4565b005b6103de60048036038101906103d99190611c69565b6115ad565b6040516103eb9190611cb1565b60405180910390f35b6103fc611606565b6040516104099190611b59565b60405180910390f35b61041a61160c565b60405161042791906122d9565b60405180910390f35b6001805461043d9061232a565b80601f01602080910402602001604051908101604052809291908181526020018280546104699061232a565b80156104b65780601f1061048b576101008083540402835291602001916104b6565b820191906000526020600020905b81548152906001019060200180831161049957829003601f168201915b505050505081565b60045481565b600380546104d19061232a565b80601f01602080910402602001604051908101604052809291908181526020018280546104fd9061232a565b801561054a5780601f1061051f5761010080835404028352916020019161054a565b820191906000526020600020905b81548152906001019060200180831161052d57829003601f168201915b505050505081565b6006805461055f9061232a565b80601f016020809104026020016040519081016040528092919081815260200182805461058b9061232a565b80156105d85780601f106105ad576101008083540402835291602001916105d8565b820191906000526020600020905b8154815290600101906020018083116105bb57829003601f168201915b505050505081565b600b81815481106105f057600080fd5b906000526020600020016000915054906101000a900473ffffffffffffffffffffffffffffffffffffffff1681565b6002805461062c9061232a565b80601f01602080910402602001604051908101604052809291908181526020018280546106589061232a565b80156106a55780601f1061067a576101008083540402835291602001916106a5565b820191906000526020600020905b81548152906001019060200180831161068857829003601f168201915b505050505081565b6000600a60008373ffffffffffffffffffffffffffffffffffffffff1673ffffffffffffffffffffffffffffffffffffffff16815260200190815260200160002060030160009054906101000a900460ff169050919050565b6060600980546107159061232a565b80601f01602080910402602001604051908101604052809291908181526020018280546107419061232a565b801561078e5780601f106107635761010080835404028352916020019161078e565b820191906000526020600020905b81548152906001019060200180831161077157829003601f168201915b5050505050905090565b600c6020528060005260406000206000915054906101000a900460ff1681565b3373ffffffffffffffffffffffffffffffffffffffff1660008054906101000a900473ffffffffffffffffffffffffffffffffffffffff1673ffffffffffffffffffffffffffffffffffffffff1614610846576040517f08c379a000000000000000000000000000000000000000000000000000000000815260040161083d906123cd565b60405180910390fd5b600760009054906101000a900460ff1615610896576040517f08c379a000000000000000000000000000000000000000000000000000000000815260040161088d90612439565b60405180910390fd5b81600890816108a59190612605565b5080600990816108b59190612605565b506001600760006101000a81548160ff0219169083151502179055505050565b600a6020528060005260406000206000915090508060000180546108f89061232a565b80601f01602080910402602001604051908101604052809291908181526020018280546109249061232a565b80156109715780601f1061094657610100808354040283529160200191610971565b820191906000526020600020905b81548152906001019060200180831161095457829003601f168201915b5050505050908060010180546109869061232a565b80601f01602080910402602001604051908101604052809291908181526020018280546109b29061232a565b80156109ff5780601f106109d4576101008083540402835291602001916109ff565b820191906000526020600020905b8154815290600101906020018083116109e257829003601f168201915b505050505090806002018054610a149061232a565b80601f0160208091040260200160405190810160405280929190818152602001828054610a409061232a565b8015610a8d5780601f10610a6257610100808354040283529160200191610a8d565b820191906000526020600020905b815481529060010190602001808311610a7057829003601f168201915b5050505050908060030160009054906101000a900460ff16908060030160019054906101000a900460ff16908060030160029054906101000a900473ffffffffffffffffffffffffffffffffffffffff16908060030160169054906101000a900460ff1690806004018054610b019061232a565b80601f0160208091040260200160405190810160405280929190818152602001828054610b2d9061232a565b8015610b7a5780601f10610b4f57610100808354040283529160200191610b7a565b820191906000526020600020905b815481529060010190602001808311610b5d57829003601f168201915b5050505050905088565b3373ffffffffffffffffffffffffffffffffffffffff1660008054906101000a900473ffffffffffffffffffffffffffffffffffffffff1673ffffffffffffffffffffffffffffffffffffffff1614610c12576040517f08c379a0000000000000000000000000000000000000000000000000000000008152600401610c0990612749565b60405180910390fd5b6001600c60008373ffffffffffffffffffffffffffffffffffffffff1673ffffffffffffffffffffffffffffffffffffffff16815260200190815260200160002060006101000a81548160ff02191690831515021790555050565b600a60003373ffffffffffffffffffffffffffffffffffffffff1673ffffffffffffffffffffffffffffffffffffffff16815260200190815260200160002060030160019054906101000a900460ff1615610cfd576040517f08c379a0000000000000000000000000000000000000000000000000000000008152600401610cf4906127b5565b60405180910390fd5b600033905060006040518061010001604052808681526020018581526020018481526020016000151581526020016001151581526020018373ffffffffffffffffffffffffffffffffffffffff1681526020016000151581526020016040518060400160405280600281526020017f4e41000000000000000000000000000000000000000000000000000000000000815250815250905080600a60008473ffffffffffffffffffffffffffffffffffffffff1673ffffffffffffffffffffffffffffffffffffffff1681526020019081526020016000206000820151816000019081610de99190612605565b506020820151816001019081610dff9190612605565b506040820151816002019081610e159190612605565b5060608201518160030160006101000a81548160ff02191690831515021790555060808201518160030160016101000a81548160ff02191690831515021790555060a08201518160030160026101000a81548173ffffffffffffffffffffffffffffffffffffffff021916908373ffffffffffffffffffffffffffffffffffffffff16021790555060c08201518160030160166101000a81548160ff02191690831515021790555060e0820151816004019081610ed29190612605565b50905050600b829080600181540180825580915050600190039060005260206000200160009091909190916101000a81548173ffffffffffffffffffffffffffffffffffffffff021916908373ffffffffffffffffffffffffffffffffffffffff1602179055505050505050565b80600a60003373ffffffffffffffffffffffffffffffffffffffff1673ffffffffffffffffffffffffffffffffffffffff1681526020019081526020016000206004019081610f8f9190612605565b506001600a60003373ffffffffffffffffffffffffffffffffffffffff1673ffffffffffffffffffffffffffffffffffffffff16815260200190815260200160002060030160166101000a81548160ff02191690831515021790555050565b606060088054610ffd9061232a565b80601f01602080910402602001604051908101604052809291908181526020018280546110299061232a565b80156110765780601f1061104b57610100808354040283529160200191611076565b820191906000526020600020905b81548152906001019060200180831161105957829003601f168201915b5050505050905090565b611088611a2d565b600a60003373ffffffffffffffffffffffffffffffffffffffff1673ffffffffffffffffffffffffffffffffffffffff168152602001908152602001600020604051806101000160405290816000820180546110e39061232a565b80601f016020809104026020016040519081016040528092919081815260200182805461110f9061232a565b801561115c5780601f106111315761010080835404028352916020019161115c565b820191906000526020600020905b81548152906001019060200180831161113f57829003601f168201915b505050505081526020016001820180546111759061232a565b80601f01602080910402602001604051908101604052809291908181526020018280546111a19061232a565b80156111ee5780601f106111c3576101008083540402835291602001916111ee565b820191906000526020600020905b8154815290600101906020018083116111d157829003601f168201915b505050505081526020016002820180546112079061232a565b80601f01602080910402602001604051908101604052809291908181526020018280546112339061232a565b80156112805780601f1061125557610100808354040283529160200191611280565b820191906000526020600020905b81548152906001019060200180831161126357829003601f168201915b505050505081526020016003820160009054906101000a900460ff161515151581526020016003820160019054906101000a900460ff161515151581526020016003820160029054906101000a900473ffffffffffffffffffffffffffffffffffffffff1673ffffffffffffffffffffffffffffffffffffffff1673ffffffffffffffffffffffffffffffffffffffff1681526020016003820160169054906101000a900460ff161515151581526020016004820180546113409061232a565b80601f016020809104026020016040519081016040528092919081815260200182805461136c9061232a565b80156113b95780601f1061138e576101008083540402835291602001916113b9565b820191906000526020600020905b81548152906001019060200180831161139c57829003601f168201915b505050505081525050905090565b600760009054906101000a900460ff1681565b600c60003373ffffffffffffffffffffffffffffffffffffffff1673ffffffffffffffffffffffffffffffffffffffff16815260200190815260200160002060009054906101000a900460ff16611466576040517f08c379a000000000000000000000000000000000000000000000000000000000815260040161145d90612821565b60405180910390fd5b6001600a60008373ffffffffffffffffffffffffffffffffffffffff1673ffffffffffffffffffffffffffffffffffffffff16815260200190815260200160002060030160006101000a81548160ff02191690831515021790555050565b3373ffffffffffffffffffffffffffffffffffffffff1660008054906101000a900473ffffffffffffffffffffffffffffffffffffffff1673ffffffffffffffffffffffffffffffffffffffff1614611552576040517f08c379a0000000000000000000000000000000000000000000000000000000008152600401611549906128b3565b60405180910390fd5b6000600c60008373ffffffffffffffffffffffffffffffffffffffff1673ffffffffffffffffffffffffffffffffffffffff16815260200190815260200160002060006101000a81548160ff02191690831515021790555050565b6000600a60008373ffffffffffffffffffffffffffffffffffffffff1673ffffffffffffffffffffffffffffffffffffffff16815260200190815260200160002060030160019054906101000a900460ff169050919050565b60055481565b60606000600b80549050905060008167ffffffffffffffff81111561163457611633611cd6565b5b60405190808252806020026020018201604052801561166d57816020015b61165a611a2d565b8152602001906001900390816116525790505b50905060005b82811015611a2457600a6000600b8381548110611693576116926128d3565b5b9060005260206000200160009054906101000a900473ffffffffffffffffffffffffffffffffffffffff1673ffffffffffffffffffffffffffffffffffffffff1673ffffffffffffffffffffffffffffffffffffffff168152602001908152602001600020604051806101000160405290816000820180546117149061232a565b80601f01602080910402602001604051908101604052809291908181526020018280546117409061232a565b801561178d5780601f106117625761010080835404028352916020019161178d565b820191906000526020600020905b81548152906001019060200180831161177057829003601f168201915b505050505081526020016001820180546117a69061232a565b80601f01602080910402602001604051908101604052809291908181526020018280546117d29061232a565b801561181f5780601f106117f45761010080835404028352916020019161181f565b820191906000526020600020905b81548152906001019060200180831161180257829003601f168201915b505050505081526020016002820180546118389061232a565b80601f01602080910402602001604051908101604052809291908181526020018280546118649061232a565b80156118b15780601f10611886576101008083540402835291602001916118b1565b820191906000526020600020905b81548152906001019060200180831161189457829003601f168201915b505050505081526020016003820160009054906101000a900460ff161515151581526020016003820160019054906101000a900460ff161515151581526020016003820160029054906101000a900473ffffffffffffffffffffffffffffffffffffffff1673ffffffffffffffffffffffffffffffffffffffff1673ffffffffffffffffffffffffffffffffffffffff1681526020016003820160169054906101000a900460ff161515151581526020016004820180546119719061232a565b80601f016020809104026020016040519081016040528092919081815260200182805461199d9061232a565b80156119ea5780601f106119bf576101008083540402835291602001916119ea565b820191906000526020600020905b8154815290600101906020018083116119cd57829003601f168201915b505050505081525050828281518110611a0657611a056128d3565b5b60200260200101819052508080611a1c90612931565b915050611673565b50809250505090565b604051806101000160405280606081526020016060815260200160608152602001600015158152602001600015158152602001600073ffffffffffffffffffffffffffffffffffffffff168152602001600015158152602001606081525090565b600081519050919050565b600082825260208201905092915050565b60005b83811015611ac8578082015181840152602081019050611aad565b60008484015250505050565b6000601f19601f8301169050919050565b6000611af082611a8e565b611afa8185611a99565b9350611b0a818560208601611aaa565b611b1381611ad4565b840191505092915050565b60006020820190508181036000830152611b388184611ae5565b905092915050565b6000819050919050565b611b5381611b40565b82525050565b6000602082019050611b6e6000830184611b4a565b92915050565b6000604051905090565b600080fd5b600080fd5b611b9181611b40565b8114611b9c57600080fd5b50565b600081359050611bae81611b88565b92915050565b600060208284031215611bca57611bc9611b7e565b5b6000611bd884828501611b9f565b91505092915050565b600073ffffffffffffffffffffffffffffffffffffffff82169050919050565b6000611c0c82611be1565b9050919050565b611c1c81611c01565b82525050565b6000602082019050611c376000830184611c13565b92915050565b611c4681611c01565b8114611c5157600080fd5b50565b600081359050611c6381611c3d565b92915050565b600060208284031215611c7f57611c7e611b7e565b5b6000611c8d84828501611c54565b91505092915050565b60008115159050919050565b611cab81611c96565b82525050565b6000602082019050611cc66000830184611ca2565b92915050565b600080fd5b600080fd5b7f4e487b7100000000000000000000000000000000000000000000000000000000600052604160045260246000fd5b611d0e82611ad4565b810181811067ffffffffffffffff82111715611d2d57611d2c611cd6565b5b80604052505050565b6000611d40611b74565b9050611d4c8282611d05565b919050565b600067ffffffffffffffff821115611d6c57611d6b611cd6565b5b611d7582611ad4565b9050602081019050919050565b82818337600083830152505050565b6000611da4611d9f84611d51565b611d36565b905082815260208101848484011115611dc057611dbf611cd1565b5b611dcb848285611d82565b509392505050565b600082601f830112611de857611de7611ccc565b5b8135611df8848260208601611d91565b91505092915050565b60008060408385031215611e1857611e17611b7e565b5b600083013567ffffffffffffffff811115611e3657611e35611b83565b5b611e4285828601611dd3565b925050602083013567ffffffffffffffff811115611e6357611e62611b83565b5b611e6f85828601611dd3565b9150509250929050565b6000610100820190508181036000830152611e94818b611ae5565b90508181036020830152611ea8818a611ae5565b90508181036040830152611ebc8189611ae5565b9050611ecb6060830188611ca2565b611ed86080830187611ca2565b611ee560a0830186611c13565b611ef260c0830185611ca2565b81810360e0830152611f048184611ae5565b90509998505050505050505050565b600080600060608486031215611f2c57611f2b611b7e565b5b600084013567ffffffffffffffff811115611f4a57611f49611b83565b5b611f5686828701611dd3565b935050602084013567ffffffffffffffff811115611f7757611f76611b83565b5b611f8386828701611dd3565b925050604084013567ffffffffffffffff811115611fa457611fa3611b83565b5b611fb086828701611dd3565b9150509250925092565b600060208284031215611fd057611fcf611b7e565b5b600082013567ffffffffffffffff811115611fee57611fed611b83565b5b611ffa84828501611dd3565b91505092915050565b600082825260208201905092915050565b600061201f82611a8e565b6120298185612003565b9350612039818560208601611aaa565b61204281611ad4565b840191505092915050565b61205681611c96565b82525050565b61206581611c01565b82525050565b60006101008301600083015184820360008601526120898282612014565b915050602083015184820360208601526120a38282612014565b915050604083015184820360408601526120bd8282612014565b91505060608301516120d2606086018261204d565b5060808301516120e5608086018261204d565b5060a08301516120f860a086018261205c565b5060c083015161210b60c086018261204d565b5060e083015184820360e08601526121238282612014565b9150508091505092915050565b6000602082019050818103600083015261214a818461206b565b905092915050565b600081519050919050565b600082825260208201905092915050565b6000819050602082019050919050565b600061010083016000830151848203600086015261219c8282612014565b915050602083015184820360208601526121b68282612014565b915050604083015184820360408601526121d08282612014565b91505060608301516121e5606086018261204d565b5060808301516121f8608086018261204d565b5060a083015161220b60a086018261205c565b5060c083015161221e60c086018261204d565b5060e083015184820360e08601526122368282612014565b9150508091505092915050565b600061224f838361217e565b905092915050565b6000602082019050919050565b600061226f82612152565b612279818561215d565b93508360208202850161228b8561216e565b8060005b858110156122c757848403895281516122a88582612243565b94506122b383612257565b925060208a0199505060018101905061228f565b50829750879550505050505092915050565b600060208201905081810360008301526122f38184612264565b905092915050565b7f4e487b7100000000000000000000000000000000000000000000000000000000600052602260045260246000fd5b6000600282049050600182168061234257607f821691505b602082108103612355576123546122fb565b5b50919050565b7f596f7520617265206e6f7420617574686f72697a656420746f2063726561746560008201527f206578616d000000000000000000000000000000000000000000000000000000602082015250565b60006123b7602583611a99565b91506123c28261235b565b604082019050919050565b600060208201905081810360008301526123e6816123aa565b9050919050565b7f4578616d20697320616c72656164792063726561746564000000000000000000600082015250565b6000612423601783611a99565b915061242e826123ed565b602082019050919050565b6000602082019050818103600083015261245281612416565b9050919050565b60008190508160005260206000209050919050565b60006020601f8301049050919050565b600082821b905092915050565b6000600883026124bb7fffffffffffffffffffffffffffffffffffffffffffffffffffffffffffffffff8261247e565b6124c5868361247e565b95508019841693508086168417925050509392505050565b6000819050919050565b60006125026124fd6124f884611b40565b6124dd565b611b40565b9050919050565b6000819050919050565b61251c836124e7565b61253061252882612509565b84845461248b565b825550505050565b600090565b612545612538565b612550818484612513565b505050565b5b818110156125745761256960008261253d565b600181019050612556565b5050565b601f8211156125b95761258a81612459565b6125938461246e565b810160208510156125a2578190505b6125b66125ae8561246e565b830182612555565b50505b505050565b600082821c905092915050565b60006125dc600019846008026125be565b1980831691505092915050565b60006125f583836125cb565b9150826002028217905092915050565b61260e82611a8e565b67ffffffffffffffff81111561262757612626611cd6565b5b612631825461232a565b61263c828285612578565b600060209050601f83116001811461266f576000841561265d578287015190505b61266785826125e9565b8655506126cf565b601f19841661267d86612459565b60005b828110156126a557848901518255600182019150602085019450602081019050612680565b868310156126c257848901516126be601f8916826125cb565b8355505b6001600288020188555050505b505050505050565b7f596f7520617265206e6f7420617574686f72697a656420746f2061646420766560008201527f7269666965720000000000000000000000000000000000000000000000000000602082015250565b6000612733602683611a99565b915061273e826126d7565b604082019050919050565b6000602082019050818103600083015261276281612726565b9050919050565b7f596f752061726520616c726561647920656e726f6c6c65640000000000000000600082015250565b600061279f601883611a99565b91506127aa82612769565b602082019050919050565b600060208201905081810360008301526127ce81612792565b9050919050565b7f596f7520617265206e6f7420617574686f72697a656420746f20766572696679600082015250565b600061280b602083611a99565b9150612816826127d5565b602082019050919050565b6000602082019050818103600083015261283a816127fe565b9050919050565b7f596f7520617265206e6f7420617574686f72697a656420746f2072656d6f766560008201527f2076657269666965720000000000000000000000000000000000000000000000602082015250565b600061289d602983611a99565b91506128a882612841565b604082019050919050565b600060208201905081810360008301526128cc81612890565b9050919050565b7f4e487b7100000000000000000000000000000000000000000000000000000000600052603260045260246000fd5b7f4e487b7100000000000000000000000000000000000000000000000000000000600052601160045260246000fd5b600061293c82611b40565b91507fffffffffffffffffffffffffffffffffffffffffffffffffffffffffffffffff820361296e5761296d612902565b5b60018201905091905056fea264697066735822122026ec316b2a040844fdc2428d490213419119b8adcac089b01676527787ff180464736f6c63430008130033",
  "immutableReferences": {},
  "source": "// SPDX-License-Identifier: MIT\r\npragma solidity ^0.8.19;\r\nimport \"@openzeppelin/contracts/utils/cryptography/ECDSA.sol\";\r\n\r\ncontract Exam {\r\n    address private owner;\r\n    string public name;\r\n    string public date;\r\n    string public lastEnrollmentDate;\r\n    uint public duration;\r\n    uint public creationTime;\r\n    string public examHash;\r\n\r\n    bool public isExamCreated = false;\r\n    string private questionsCID;\r\n    string private answersCID;\r\n\r\n    struct student {\r\n        string name;\r\n        string govermentDocument;\r\n        string marksheet;\r\n        bool isVerified;\r\n        bool isEnrolled;\r\n        address studentAddress;\r\n        bool hasExamGiven;\r\n        string encryptedMarks;\r\n    }\r\n    mapping(address => student) public enrolledStudents;\r\n    address[] public enrolledStudentsArray;\r\n    mapping(address => bool) public verifiers;\r\n    // constructor takes all the exam data and stores them in state variables.\r\n    constructor(\r\n        address _owner,\r\n        string memory _name,\r\n        string memory _date,\r\n        string memory _lastEnrollmentDate,\r\n        uint _examDuration,\r\n        uint _examCreationTime,\r\n        string memory _examHash\r\n    ) {\r\n        owner = _owner;\r\n        name = _name;\r\n        date = _date;\r\n        lastEnrollmentDate = _lastEnrollmentDate;\r\n        duration = _examDuration;\r\n        verifiers[_owner] = true;\r\n        creationTime = _examCreationTime;\r\n        examHash = _examHash;\r\n    }\r\n\r\n    // Function for the students to Enroll to a perticular exam\r\n    function enrollStudent(\r\n        string memory _name,\r\n        string memory _govermentDocument,\r\n        string memory _marksheet\r\n    ) public {\r\n        require(\r\n            !enrolledStudents[msg.sender].isEnrolled,\r\n            \"You are already enrolled\"\r\n        );\r\n        address _address = msg.sender;\r\n        student memory newStudent = student(\r\n            _name,\r\n            _govermentDocument,\r\n            _marksheet,\r\n            false,\r\n            true,\r\n            _address,\r\n            false,\r\n            \"NA\"\r\n        );\r\n        enrolledStudents[_address] = newStudent;\r\n        enrolledStudentsArray.push(_address);\r\n    }\r\n\r\n    // Get all the students who enrolled in the exam\r\n    function getAllStudents() public view returns (student[] memory) {\r\n        uint256 arrayLength = enrolledStudentsArray.length;\r\n        student[] memory studentArray = new student[](arrayLength);\r\n        for (uint256 i = 0; i < arrayLength; i++) {\r\n            studentArray[i] = enrolledStudents[enrolledStudentsArray[i]];\r\n        }\r\n        return studentArray;\r\n    }\r\n\r\n    // Function to add new _verifier\r\n    function addVerifier(address _verifier) public {\r\n        require(owner == msg.sender, \"You are not authorized to add verifier\");\r\n        verifiers[_verifier] = true;\r\n    }\r\n\r\n    // Function to remove the verifier\r\n    function removeVerifier(address _verifier) public {\r\n        require(\r\n            owner == msg.sender,\r\n            \"You are not authorized to remove verifier\"\r\n        );\r\n        verifiers[_verifier] = false;\r\n    }\r\n\r\n    // Function for the verifiers to verify the students\r\n    function verifyStudent(address _studentAddress) public {\r\n        require(verifiers[msg.sender], \"You are not authorized to verify\");\r\n        enrolledStudents[_studentAddress].isVerified = true;\r\n    }\r\n\r\n    // Function to check if student is enrolled or not\r\n    function isStudentEnrolled(\r\n        address _studentAddress\r\n    ) public view returns (bool) {\r\n        return enrolledStudents[_studentAddress].isEnrolled;\r\n    }\r\n\r\n    // Function to check if the student is verified or not\r\n    function isStudentVerified(\r\n        address _studentAddress\r\n    ) public view returns (bool) {\r\n        return enrolledStudents[_studentAddress].isVerified;\r\n    }\r\n\r\n    // Function to create exam\r\n    function createExam(\r\n        string memory _questionsCID,\r\n        string memory _answersCID\r\n    ) public {\r\n        require(owner == msg.sender, \"You are not authorized to create exam\");\r\n        require(!isExamCreated, \"Exam is already created\");\r\n\r\n        questionsCID = _questionsCID;\r\n        answersCID = _answersCID;\r\n        isExamCreated = true;\r\n    }\r\n\r\n    // Function to get the questions CID\r\n    function getExamCID() public view returns (string memory) {\r\n        return questionsCID;\r\n    }\r\n\r\n    // Function to get the exam answers CID\r\n    function getAnswersCID() public view returns (string memory) {\r\n        return answersCID;\r\n    }\r\n\r\n    function gradeStudent(string memory marks) public {\r\n        enrolledStudents[msg.sender].encryptedMarks = marks;\r\n        enrolledStudents[msg.sender].hasExamGiven = true;\r\n    }\r\n\r\n    function getStudent() public view returns (student memory) {\r\n        return enrolledStudents[msg.sender];\r\n    }\r\n}\r\n",
  "sourcePath": "D:\\Web3 Examination Portal\\contracts\\Exam.sol",
  "compiler": {
    "name": "solc",
    "version": "0.8.19+commit.7dd6d404.Emscripten.clang"
  },
  "schemaVersion": "3.4.16",
  "updatedAt": "2025-02-25T19:30:45.595Z",
  "networkType": "ethereum",
  "devdoc": {
    "kind": "dev",
    "methods": {},
    "version": 1
  },
  "userdoc": {
    "kind": "user",
    "methods": {},
    "version": 1
  }
}