{
  "contractName": "Exam",
  "abi": [
    {
      "inputs": [
        {
          "internalType": "address",
          "name": "_owner",
          "type": "address"
        },
        {
          "internalType": "string",
          "name": "_name",
          "type": "string"
        },
        {
          "internalType": "string",
          "name": "_date",
          "type": "string"
        },
        {
          "internalType": "string",
          "name": "_lastEnrollmentDate",
          "type": "string"
        },
        {
          "internalType": "uint256",
          "name": "_examDuration",
          "type": "uint256"
        },
        {
          "internalType": "uint256",
          "name": "_examCreationTime",
          "type": "uint256"
        },
        {
          "internalType": "string",
          "name": "_examHash",
          "type": "string"
        }
      ],
      "stateMutability": "nonpayable",
      "type": "constructor"
    },
    {
      "inputs": [],
      "name": "creationTime",
      "outputs": [
        {
          "internalType": "uint256",
          "name": "",
          "type": "uint256"
        }
      ],
      "stateMutability": "view",
      "type": "function",
      "constant": true
    },
    {
      "inputs": [],
      "name": "date",
      "outputs": [
        {
          "internalType": "string",
          "name": "",
          "type": "string"
        }
      ],
      "stateMutability": "view",
      "type": "function",
      "constant": true
    },
    {
      "inputs": [],
      "name": "duration",
      "outputs": [
        {
          "internalType": "uint256",
          "name": "",
          "type": "uint256"
        }
      ],
      "stateMutability": "view",
      "type": "function",
      "constant": true
    },
    {
      "inputs": [
        {
          "internalType": "address",
          "name": "",
          "type": "address"
        }
      ],
      "name": "enrolledStudents",
      "outputs": [
        {
          "internalType": "string",
          "name": "name",
          "type": "string"
        },
        {
          "internalType": "string",
          "name": "govermentDocument",
          "type": "string"
        },
        {
          "internalType": "string",
          "name": "marksheet",
          "type": "string"
        },
        {
          "internalType": "bool",
          "name": "isVerified",
          "type": "bool"
        },
        {
          "internalType": "bool",
          "name": "isEnrolled",
          "type": "bool"
        },
        {
          "internalType": "address",
          "name": "studentAddress",
          "type": "address"
        },
        {
          "internalType": "bool",
          "name": "hasExamGiven",
          "type": "bool"
        },
        {
          "internalType": "uint256",
          "name": "marks",
          "type": "uint256"
        }
      ],
      "stateMutability": "view",
      "type": "function",
      "constant": true
    },
    {
      "inputs": [
        {
          "internalType": "uint256",
          "name": "",
          "type": "uint256"
        }
      ],
      "name": "enrolledStudentsArray",
      "outputs": [
        {
          "internalType": "address",
          "name": "",
          "type": "address"
        }
      ],
      "stateMutability": "view",
      "type": "function",
      "constant": true
    },
    {
      "inputs": [],
      "name": "examHash",
      "outputs": [
        {
          "internalType": "string",
          "name": "",
          "type": "string"
        }
      ],
      "stateMutability": "view",
      "type": "function",
      "constant": true
    },
    {
      "inputs": [],
      "name": "isExamCreated",
      "outputs": [
        {
          "internalType": "bool",
          "name": "",
          "type": "bool"
        }
      ],
      "stateMutability": "view",
      "type": "function",
      "constant": true
    },
    {
      "inputs": [],
      "name": "lastEnrollmentDate",
      "outputs": [
        {
          "internalType": "string",
          "name": "",
          "type": "string"
        }
      ],
      "stateMutability": "view",
      "type": "function",
      "constant": true
    },
    {
      "inputs": [],
      "name": "name",
      "outputs": [
        {
          "internalType": "string",
          "name": "",
          "type": "string"
        }
      ],
      "stateMutability": "view",
      "type": "function",
      "constant": true
    },
    {
      "inputs": [
        {
          "internalType": "address",
          "name": "",
          "type": "address"
        }
      ],
      "name": "verifiers",
      "outputs": [
        {
          "internalType": "bool",
          "name": "",
          "type": "bool"
        }
      ],
      "stateMutability": "view",
      "type": "function",
      "constant": true
    },
    {
      "inputs": [
        {
          "internalType": "string",
          "name": "_name",
          "type": "string"
        },
        {
          "internalType": "string",
          "name": "_govermentDocument",
          "type": "string"
        },
        {
          "internalType": "string",
          "name": "_marksheet",
          "type": "string"
        }
      ],
      "name": "enrollStudent",
      "outputs": [],
      "stateMutability": "nonpayable",
      "type": "function"
    },
    {
      "inputs": [],
      "name": "getAllStudents",
      "outputs": [
        {
          "components": [
            {
              "internalType": "string",
              "name": "name",
              "type": "string"
            },
            {
              "internalType": "string",
              "name": "govermentDocument",
              "type": "string"
            },
            {
              "internalType": "string",
              "name": "marksheet",
              "type": "string"
            },
            {
              "internalType": "bool",
              "name": "isVerified",
              "type": "bool"
            },
            {
              "internalType": "bool",
              "name": "isEnrolled",
              "type": "bool"
            },
            {
              "internalType": "address",
              "name": "studentAddress",
              "type": "address"
            },
            {
              "internalType": "bool",
              "name": "hasExamGiven",
              "type": "bool"
            },
            {
              "internalType": "uint256",
              "name": "marks",
              "type": "uint256"
            }
          ],
          "internalType": "struct Exam.student[]",
          "name": "",
          "type": "tuple[]"
        }
      ],
      "stateMutability": "view",
      "type": "function",
      "constant": true
    },
    {
      "inputs": [
        {
          "internalType": "address",
          "name": "_verifier",
          "type": "address"
        }
      ],
      "name": "addVerifier",
      "outputs": [],
      "stateMutability": "nonpayable",
      "type": "function"
    },
    {
      "inputs": [
        {
          "internalType": "address",
          "name": "_verifier",
          "type": "address"
        }
      ],
      "name": "removeVerifier",
      "outputs": [],
      "stateMutability": "nonpayable",
      "type": "function"
    },
    {
      "inputs": [
        {
          "internalType": "address",
          "name": "_studentAddress",
          "type": "address"
        }
      ],
      "name": "verifyStudent",
      "outputs": [],
      "stateMutability": "nonpayable",
      "type": "function"
    },
    {
      "inputs": [
        {
          "internalType": "address",
          "name": "_studentAddress",
          "type": "address"
        }
      ],
      "name": "isStudentEnrolled",
      "outputs": [
        {
          "internalType": "bool",
          "name": "",
          "type": "bool"
        }
      ],
      "stateMutability": "view",
      "type": "function",
      "constant": true
    },
    {
      "inputs": [
        {
          "internalType": "address",
          "name": "_studentAddress",
          "type": "address"
        }
      ],
      "name": "isStudentVerified",
      "outputs": [
        {
          "internalType": "bool",
          "name": "",
          "type": "bool"
        }
      ],
      "stateMutability": "view",
      "type": "function",
      "constant": true
    },
    {
      "inputs": [
        {
          "internalType": "string",
          "name": "_questionsCID",
          "type": "string"
        },
        {
          "internalType": "string",
          "name": "_answersCID",
          "type": "string"
        }
      ],
      "name": "createExam",
      "outputs": [],
      "stateMutability": "nonpayable",
      "type": "function"
    },
    {
      "inputs": [],
      "name": "getExamCID",
      "outputs": [
        {
          "internalType": "string",
          "name": "",
          "type": "string"
        }
      ],
      "stateMutability": "view",
      "type": "function",
      "constant": true
    },
    {
      "inputs": [],
      "name": "getAnswersCID",
      "outputs": [
        {
          "internalType": "string",
          "name": "",
          "type": "string"
        }
      ],
      "stateMutability": "view",
      "type": "function",
      "constant": true
    },
    {
      "inputs": [
        {
          "internalType": "uint256",
          "name": "marks",
          "type": "uint256"
        }
      ],
      "name": "gradeStudent",
      "outputs": [],
      "stateMutability": "nonpayable",
      "type": "function"
    },
    {
      "inputs": [],
      "name": "getStudent",
      "outputs": [
        {
          "components": [
            {
              "internalType": "string",
              "name": "name",
              "type": "string"
            },
            {
              "internalType": "string",
              "name": "govermentDocument",
              "type": "string"
            },
            {
              "internalType": "string",
              "name": "marksheet",
              "type": "string"
            },
            {
              "internalType": "bool",
              "name": "isVerified",
              "type": "bool"
            },
            {
              "internalType": "bool",
              "name": "isEnrolled",
              "type": "bool"
            },
            {
              "internalType": "address",
              "name": "studentAddress",
              "type": "address"
            },
            {
              "internalType": "bool",
              "name": "hasExamGiven",
              "type": "bool"
            },
            {
              "internalType": "uint256",
              "name": "marks",
              "type": "uint256"
            }
          ],
          "internalType": "struct Exam.student",
          "name": "",
          "type": "tuple"
        }
      ],
      "stateMutability": "view",
      "type": "function",
      "constant": true
    }
  ],
  "bytecode": "0x60806040526000600760006101000a81548160ff0219169083151502179055503480156200002c57600080fd5b5060405162002f6638038062002f66833981810160405281019062000052919062000380565b866000806101000a81548173ffffffffffffffffffffffffffffffffffffffff021916908373ffffffffffffffffffffffffffffffffffffffff1602179055508560019081620000a39190620006f0565b508460029081620000b59190620006f0565b508360039081620000c79190620006f0565b50826004819055506001600c60008973ffffffffffffffffffffffffffffffffffffffff1673ffffffffffffffffffffffffffffffffffffffff16815260200190815260200160002060006101000a81548160ff0219169083151502179055508160058190555080600690816200013f9190620006f0565b5050505050505050620007d7565b6000604051905090565b600080fd5b600080fd5b600073ffffffffffffffffffffffffffffffffffffffff82169050919050565b60006200018e8262000161565b9050919050565b620001a08162000181565b8114620001ac57600080fd5b50565b600081519050620001c08162000195565b92915050565b600080fd5b600080fd5b6000601f19601f8301169050919050565b7f4e487b7100000000000000000000000000000000000000000000000000000000600052604160045260246000fd5b6200021b82620001d0565b810181811067ffffffffffffffff821117156200023d576200023c620001e1565b5b80604052505050565b6000620002526200014d565b905062000260828262000210565b919050565b600067ffffffffffffffff821115620002835762000282620001e1565b5b6200028e82620001d0565b9050602081019050919050565b60005b83811015620002bb5780820151818401526020810190506200029e565b60008484015250505050565b6000620002de620002d88462000265565b62000246565b905082815260208101848484011115620002fd57620002fc620001cb565b5b6200030a8482856200029b565b509392505050565b600082601f8301126200032a5762000329620001c6565b5b81516200033c848260208601620002c7565b91505092915050565b6000819050919050565b6200035a8162000345565b81146200036657600080fd5b50565b6000815190506200037a816200034f565b92915050565b600080600080600080600060e0888a031215620003a257620003a162000157565b5b6000620003b28a828b01620001af565b975050602088015167ffffffffffffffff811115620003d657620003d56200015c565b5b620003e48a828b0162000312565b965050604088015167ffffffffffffffff8111156200040857620004076200015c565b5b620004168a828b0162000312565b955050606088015167ffffffffffffffff8111156200043a57620004396200015c565b5b620004488a828b0162000312565b94505060806200045b8a828b0162000369565b93505060a06200046e8a828b0162000369565b92505060c088015167ffffffffffffffff8111156200049257620004916200015c565b5b620004a08a828b0162000312565b91505092959891949750929550565b600081519050919050565b7f4e487b7100000000000000000000000000000000000000000000000000000000600052602260045260246000fd5b600060028204905060018216806200050257607f821691505b602082108103620005185762000517620004ba565b5b50919050565b60008190508160005260206000209050919050565b60006020601f8301049050919050565b600082821b905092915050565b600060088302620005827fffffffffffffffffffffffffffffffffffffffffffffffffffffffffffffffff8262000543565b6200058e868362000543565b95508019841693508086168417925050509392505050565b6000819050919050565b6000620005d1620005cb620005c58462000345565b620005a6565b62000345565b9050919050565b6000819050919050565b620005ed83620005b0565b62000605620005fc82620005d8565b84845462000550565b825550505050565b600090565b6200061c6200060d565b62000629818484620005e2565b505050565b5b8181101562000651576200064560008262000612565b6001810190506200062f565b5050565b601f821115620006a0576200066a816200051e565b620006758462000533565b8101602085101562000685578190505b6200069d620006948562000533565b8301826200062e565b50505b505050565b600082821c905092915050565b6000620006c560001984600802620006a5565b1980831691505092915050565b6000620006e08383620006b2565b9150826002028217905092915050565b620006fb82620004af565b67ffffffffffffffff811115620007175762000716620001e1565b5b620007238254620004e9565b6200073082828562000655565b600060209050601f83116001811462000768576000841562000753578287015190505b6200075f8582620006d2565b865550620007cf565b601f19841662000778866200051e565b60005b82811015620007a2578489015182556001820191506020850194506020810190506200077b565b86831015620007c25784890151620007be601f891682620006b2565b8355505b6001600288020188555050505b505050505050565b61277f80620007e76000396000f3fe608060405234801561001057600080fd5b50600436106101425760003560e01c80639000b3d6116100b8578063c9b5901d1161007c578063c9b5901d14610370578063ca2dfd0a1461038c578063ce3d6aa9146103a8578063d8270dce146103d8578063e7b8981f146103f6578063e9e309271461041257610142565b80639000b3d6146102de57806398378bfe146102fa578063b32dece114610316578063b439548d14610334578063c7f8ffe41461035257610142565b8063323046b11161010a578063323046b1146101ef5780633878622e1461020d5780634e6cc3c11461023d5780636c8244871461025b5780636e5704031461028b578063729d1dcb146102a757610142565b806306fdde03146101475780630fb5a6b41461016557806319839df814610183578063267fd225146101a15780632ebcfc13146101bf575b600080fd5b61014f610430565b60405161015c919061193d565b60405180910390f35b61016d6104be565b60405161017a9190611978565b60405180910390f35b61018b6104c4565b604051610198919061193d565b60405180910390f35b6101a9610552565b6040516101b6919061193d565b60405180910390f35b6101d960048036038101906101d491906119d3565b6105e0565b6040516101e69190611a41565b60405180910390f35b6101f761061f565b604051610204919061193d565b60405180910390f35b61022760048036038101906102229190611a88565b6106ad565b6040516102349190611ad0565b60405180910390f35b610245610706565b604051610252919061193d565b60405180910390f35b61027560048036038101906102709190611a88565b610798565b6040516102829190611ad0565b60405180910390f35b6102a560048036038101906102a09190611c20565b6107b8565b005b6102c160048036038101906102bc9190611a88565b6108d5565b6040516102d5989796959493929190611c98565b60405180910390f35b6102f860048036038101906102f39190611a88565b610afc565b005b610314600480360381019061030f9190611d2b565b610be5565b005b61031e610e78565b60405161032b919061193d565b60405180910390f35b61033c610f0a565b6040516103499190611f07565b60405180910390f35b61035a6111c9565b6040516103679190611ad0565b60405180910390f35b61038a60048036038101906103859190611a88565b6111dc565b005b6103a660048036038101906103a19190611a88565b6112c6565b005b6103c260048036038101906103bd9190611a88565b6113af565b6040516103cf9190611ad0565b60405180910390f35b6103e0611408565b6040516103ed9190611978565b60405180910390f35b610410600480360381019061040b91906119d3565b61140e565b005b61041a6114b3565b60405161042791906120a9565b60405180910390f35b6001805461043d906120fa565b80601f0160208091040260200160405190810160405280929190818152602001828054610469906120fa565b80156104b65780601f1061048b576101008083540402835291602001916104b6565b820191906000526020600020905b81548152906001019060200180831161049957829003601f168201915b505050505081565b60045481565b600380546104d1906120fa565b80601f01602080910402602001604051908101604052809291908181526020018280546104fd906120fa565b801561054a5780601f1061051f5761010080835404028352916020019161054a565b820191906000526020600020905b81548152906001019060200180831161052d57829003601f168201915b505050505081565b6006805461055f906120fa565b80601f016020809104026020016040519081016040528092919081815260200182805461058b906120fa565b80156105d85780601f106105ad576101008083540402835291602001916105d8565b820191906000526020600020905b8154815290600101906020018083116105bb57829003601f168201915b505050505081565b600b81815481106105f057600080fd5b906000526020600020016000915054906101000a900473ffffffffffffffffffffffffffffffffffffffff1681565b6002805461062c906120fa565b80601f0160208091040260200160405190810160405280929190818152602001828054610658906120fa565b80156106a55780601f1061067a576101008083540402835291602001916106a5565b820191906000526020600020905b81548152906001019060200180831161068857829003601f168201915b505050505081565b6000600a60008373ffffffffffffffffffffffffffffffffffffffff1673ffffffffffffffffffffffffffffffffffffffff16815260200190815260200160002060030160009054906101000a900460ff169050919050565b606060098054610715906120fa565b80601f0160208091040260200160405190810160405280929190818152602001828054610741906120fa565b801561078e5780601f106107635761010080835404028352916020019161078e565b820191906000526020600020905b81548152906001019060200180831161077157829003601f168201915b5050505050905090565b600c6020528060005260406000206000915054906101000a900460ff1681565b3373ffffffffffffffffffffffffffffffffffffffff1660008054906101000a900473ffffffffffffffffffffffffffffffffffffffff1673ffffffffffffffffffffffffffffffffffffffff1614610846576040517f08c379a000000000000000000000000000000000000000000000000000000000815260040161083d9061219d565b60405180910390fd5b600760009054906101000a900460ff1615610896576040517f08c379a000000000000000000000000000000000000000000000000000000000815260040161088d90612209565b60405180910390fd5b81600890816108a591906123d5565b5080600990816108b591906123d5565b506001600760006101000a81548160ff0219169083151502179055505050565b600a6020528060005260406000206000915090508060000180546108f8906120fa565b80601f0160208091040260200160405190810160405280929190818152602001828054610924906120fa565b80156109715780601f1061094657610100808354040283529160200191610971565b820191906000526020600020905b81548152906001019060200180831161095457829003601f168201915b505050505090806001018054610986906120fa565b80601f01602080910402602001604051908101604052809291908181526020018280546109b2906120fa565b80156109ff5780601f106109d4576101008083540402835291602001916109ff565b820191906000526020600020905b8154815290600101906020018083116109e257829003601f168201915b505050505090806002018054610a14906120fa565b80601f0160208091040260200160405190810160405280929190818152602001828054610a40906120fa565b8015610a8d5780601f10610a6257610100808354040283529160200191610a8d565b820191906000526020600020905b815481529060010190602001808311610a7057829003601f168201915b5050505050908060030160009054906101000a900460ff16908060030160019054906101000a900460ff16908060030160029054906101000a900473ffffffffffffffffffffffffffffffffffffffff16908060030160169054906101000a900460ff16908060040154905088565b3373ffffffffffffffffffffffffffffffffffffffff1660008054906101000a900473ffffffffffffffffffffffffffffffffffffffff1673ffffffffffffffffffffffffffffffffffffffff1614610b8a576040517f08c379a0000000000000000000000000000000000000000000000000000000008152600401610b8190612519565b60405180910390fd5b6001600c60008373ffffffffffffffffffffffffffffffffffffffff1673ffffffffffffffffffffffffffffffffffffffff16815260200190815260200160002060006101000a81548160ff02191690831515021790555050565b600a60003373ffffffffffffffffffffffffffffffffffffffff1673ffffffffffffffffffffffffffffffffffffffff16815260200190815260200160002060030160019054906101000a900460ff1615610c75576040517f08c379a0000000000000000000000000000000000000000000000000000000008152600401610c6c90612585565b60405180910390fd5b600033905060006040518061010001604052808681526020018581526020018481526020016000151581526020016001151581526020018373ffffffffffffffffffffffffffffffffffffffff1681526020016000151581526020016000815250905080600a60008473ffffffffffffffffffffffffffffffffffffffff1673ffffffffffffffffffffffffffffffffffffffff1681526020019081526020016000206000820151816000019081610d2d91906123d5565b506020820151816001019081610d4391906123d5565b506040820151816002019081610d5991906123d5565b5060608201518160030160006101000a81548160ff02191690831515021790555060808201518160030160016101000a81548160ff02191690831515021790555060a08201518160030160026101000a81548173ffffffffffffffffffffffffffffffffffffffff021916908373ffffffffffffffffffffffffffffffffffffffff16021790555060c08201518160030160166101000a81548160ff02191690831515021790555060e08201518160040155905050600b829080600181540180825580915050600190039060005260206000200160009091909190916101000a81548173ffffffffffffffffffffffffffffffffffffffff021916908373ffffffffffffffffffffffffffffffffffffffff1602179055505050505050565b606060088054610e87906120fa565b80601f0160208091040260200160405190810160405280929190818152602001828054610eb3906120fa565b8015610f005780601f10610ed557610100808354040283529160200191610f00565b820191906000526020600020905b815481529060010190602001808311610ee357829003601f168201915b5050505050905090565b610f1261184c565b600a60003373ffffffffffffffffffffffffffffffffffffffff1673ffffffffffffffffffffffffffffffffffffffff16815260200190815260200160002060405180610100016040529081600082018054610f6d906120fa565b80601f0160208091040260200160405190810160405280929190818152602001828054610f99906120fa565b8015610fe65780601f10610fbb57610100808354040283529160200191610fe6565b820191906000526020600020905b815481529060010190602001808311610fc957829003601f168201915b50505050508152602001600182018054610fff906120fa565b80601f016020809104026020016040519081016040528092919081815260200182805461102b906120fa565b80156110785780601f1061104d57610100808354040283529160200191611078565b820191906000526020600020905b81548152906001019060200180831161105b57829003601f168201915b50505050508152602001600282018054611091906120fa565b80601f01602080910402602001604051908101604052809291908181526020018280546110bd906120fa565b801561110a5780601f106110df5761010080835404028352916020019161110a565b820191906000526020600020905b8154815290600101906020018083116110ed57829003601f168201915b505050505081526020016003820160009054906101000a900460ff161515151581526020016003820160019054906101000a900460ff161515151581526020016003820160029054906101000a900473ffffffffffffffffffffffffffffffffffffffff1673ffffffffffffffffffffffffffffffffffffffff1673ffffffffffffffffffffffffffffffffffffffff1681526020016003820160169054906101000a900460ff16151515158152602001600482015481525050905090565b600760009054906101000a900460ff1681565b600c60003373ffffffffffffffffffffffffffffffffffffffff1673ffffffffffffffffffffffffffffffffffffffff16815260200190815260200160002060009054906101000a900460ff16611268576040517f08c379a000000000000000000000000000000000000000000000000000000000815260040161125f906125f1565b60405180910390fd5b6001600a60008373ffffffffffffffffffffffffffffffffffffffff1673ffffffffffffffffffffffffffffffffffffffff16815260200190815260200160002060030160006101000a81548160ff02191690831515021790555050565b3373ffffffffffffffffffffffffffffffffffffffff1660008054906101000a900473ffffffffffffffffffffffffffffffffffffffff1673ffffffffffffffffffffffffffffffffffffffff1614611354576040517f08c379a000000000000000000000000000000000000000000000000000000000815260040161134b90612683565b60405180910390fd5b6000600c60008373ffffffffffffffffffffffffffffffffffffffff1673ffffffffffffffffffffffffffffffffffffffff16815260200190815260200160002060006101000a81548160ff02191690831515021790555050565b6000600a60008373ffffffffffffffffffffffffffffffffffffffff1673ffffffffffffffffffffffffffffffffffffffff16815260200190815260200160002060030160019054906101000a900460ff169050919050565b60055481565b80600a60003373ffffffffffffffffffffffffffffffffffffffff1673ffffffffffffffffffffffffffffffffffffffff168152602001908152602001600020600401819055506001600a60003373ffffffffffffffffffffffffffffffffffffffff1673ffffffffffffffffffffffffffffffffffffffff16815260200190815260200160002060030160166101000a81548160ff02191690831515021790555050565b60606000600b80549050905060008167ffffffffffffffff8111156114db576114da611af5565b5b60405190808252806020026020018201604052801561151457816020015b61150161184c565b8152602001906001900390816114f95790505b50905060005b8281101561184357600a6000600b838154811061153a576115396126a3565b5b9060005260206000200160009054906101000a900473ffffffffffffffffffffffffffffffffffffffff1673ffffffffffffffffffffffffffffffffffffffff1673ffffffffffffffffffffffffffffffffffffffff168152602001908152602001600020604051806101000160405290816000820180546115bb906120fa565b80601f01602080910402602001604051908101604052809291908181526020018280546115e7906120fa565b80156116345780601f1061160957610100808354040283529160200191611634565b820191906000526020600020905b81548152906001019060200180831161161757829003601f168201915b5050505050815260200160018201805461164d906120fa565b80601f0160208091040260200160405190810160405280929190818152602001828054611679906120fa565b80156116c65780601f1061169b576101008083540402835291602001916116c6565b820191906000526020600020905b8154815290600101906020018083116116a957829003601f168201915b505050505081526020016002820180546116df906120fa565b80601f016020809104026020016040519081016040528092919081815260200182805461170b906120fa565b80156117585780601f1061172d57610100808354040283529160200191611758565b820191906000526020600020905b81548152906001019060200180831161173b57829003601f168201915b505050505081526020016003820160009054906101000a900460ff161515151581526020016003820160019054906101000a900460ff161515151581526020016003820160029054906101000a900473ffffffffffffffffffffffffffffffffffffffff1673ffffffffffffffffffffffffffffffffffffffff1673ffffffffffffffffffffffffffffffffffffffff1681526020016003820160169054906101000a900460ff16151515158152602001600482015481525050828281518110611825576118246126a3565b5b6020026020010181905250808061183b90612701565b91505061151a565b50809250505090565b604051806101000160405280606081526020016060815260200160608152602001600015158152602001600015158152602001600073ffffffffffffffffffffffffffffffffffffffff168152602001600015158152602001600081525090565b600081519050919050565b600082825260208201905092915050565b60005b838110156118e75780820151818401526020810190506118cc565b60008484015250505050565b6000601f19601f8301169050919050565b600061190f826118ad565b61191981856118b8565b93506119298185602086016118c9565b611932816118f3565b840191505092915050565b600060208201905081810360008301526119578184611904565b905092915050565b6000819050919050565b6119728161195f565b82525050565b600060208201905061198d6000830184611969565b92915050565b6000604051905090565b600080fd5b600080fd5b6119b08161195f565b81146119bb57600080fd5b50565b6000813590506119cd816119a7565b92915050565b6000602082840312156119e9576119e861199d565b5b60006119f7848285016119be565b91505092915050565b600073ffffffffffffffffffffffffffffffffffffffff82169050919050565b6000611a2b82611a00565b9050919050565b611a3b81611a20565b82525050565b6000602082019050611a566000830184611a32565b92915050565b611a6581611a20565b8114611a7057600080fd5b50565b600081359050611a8281611a5c565b92915050565b600060208284031215611a9e57611a9d61199d565b5b6000611aac84828501611a73565b91505092915050565b60008115159050919050565b611aca81611ab5565b82525050565b6000602082019050611ae56000830184611ac1565b92915050565b600080fd5b600080fd5b7f4e487b7100000000000000000000000000000000000000000000000000000000600052604160045260246000fd5b611b2d826118f3565b810181811067ffffffffffffffff82111715611b4c57611b4b611af5565b5b80604052505050565b6000611b5f611993565b9050611b6b8282611b24565b919050565b600067ffffffffffffffff821115611b8b57611b8a611af5565b5b611b94826118f3565b9050602081019050919050565b82818337600083830152505050565b6000611bc3611bbe84611b70565b611b55565b905082815260208101848484011115611bdf57611bde611af0565b5b611bea848285611ba1565b509392505050565b600082601f830112611c0757611c06611aeb565b5b8135611c17848260208601611bb0565b91505092915050565b60008060408385031215611c3757611c3661199d565b5b600083013567ffffffffffffffff811115611c5557611c546119a2565b5b611c6185828601611bf2565b925050602083013567ffffffffffffffff811115611c8257611c816119a2565b5b611c8e85828601611bf2565b9150509250929050565b6000610100820190508181036000830152611cb3818b611904565b90508181036020830152611cc7818a611904565b90508181036040830152611cdb8189611904565b9050611cea6060830188611ac1565b611cf76080830187611ac1565b611d0460a0830186611a32565b611d1160c0830185611ac1565b611d1e60e0830184611969565b9998505050505050505050565b600080600060608486031215611d4457611d4361199d565b5b600084013567ffffffffffffffff811115611d6257611d616119a2565b5b611d6e86828701611bf2565b935050602084013567ffffffffffffffff811115611d8f57611d8e6119a2565b5b611d9b86828701611bf2565b925050604084013567ffffffffffffffff811115611dbc57611dbb6119a2565b5b611dc886828701611bf2565b9150509250925092565b600082825260208201905092915050565b6000611dee826118ad565b611df88185611dd2565b9350611e088185602086016118c9565b611e11816118f3565b840191505092915050565b611e2581611ab5565b82525050565b611e3481611a20565b82525050565b611e438161195f565b82525050565b6000610100830160008301518482036000860152611e678282611de3565b91505060208301518482036020860152611e818282611de3565b91505060408301518482036040860152611e9b8282611de3565b9150506060830151611eb06060860182611e1c565b506080830151611ec36080860182611e1c565b5060a0830151611ed660a0860182611e2b565b5060c0830151611ee960c0860182611e1c565b5060e0830151611efc60e0860182611e3a565b508091505092915050565b60006020820190508181036000830152611f218184611e49565b905092915050565b600081519050919050565b600082825260208201905092915050565b6000819050602082019050919050565b6000610100830160008301518482036000860152611f738282611de3565b91505060208301518482036020860152611f8d8282611de3565b91505060408301518482036040860152611fa78282611de3565b9150506060830151611fbc6060860182611e1c565b506080830151611fcf6080860182611e1c565b5060a0830151611fe260a0860182611e2b565b5060c0830151611ff560c0860182611e1c565b5060e083015161200860e0860182611e3a565b508091505092915050565b600061201f8383611f55565b905092915050565b6000602082019050919050565b600061203f82611f29565b6120498185611f34565b93508360208202850161205b85611f45565b8060005b8581101561209757848403895281516120788582612013565b945061208383612027565b925060208a0199505060018101905061205f565b50829750879550505050505092915050565b600060208201905081810360008301526120c38184612034565b905092915050565b7f4e487b7100000000000000000000000000000000000000000000000000000000600052602260045260246000fd5b6000600282049050600182168061211257607f821691505b602082108103612125576121246120cb565b5b50919050565b7f596f7520617265206e6f7420617574686f72697a656420746f2063726561746560008201527f206578616d000000000000000000000000000000000000000000000000000000602082015250565b60006121876025836118b8565b91506121928261212b565b604082019050919050565b600060208201905081810360008301526121b68161217a565b9050919050565b7f4578616d20697320616c72656164792063726561746564000000000000000000600082015250565b60006121f36017836118b8565b91506121fe826121bd565b602082019050919050565b60006020820190508181036000830152612222816121e6565b9050919050565b60008190508160005260206000209050919050565b60006020601f8301049050919050565b600082821b905092915050565b60006008830261228b7fffffffffffffffffffffffffffffffffffffffffffffffffffffffffffffffff8261224e565b612295868361224e565b95508019841693508086168417925050509392505050565b6000819050919050565b60006122d26122cd6122c88461195f565b6122ad565b61195f565b9050919050565b6000819050919050565b6122ec836122b7565b6123006122f8826122d9565b84845461225b565b825550505050565b600090565b612315612308565b6123208184846122e3565b505050565b5b818110156123445761233960008261230d565b600181019050612326565b5050565b601f8211156123895761235a81612229565b6123638461223e565b81016020851015612372578190505b61238661237e8561223e565b830182612325565b50505b505050565b600082821c905092915050565b60006123ac6000198460080261238e565b1980831691505092915050565b60006123c5838361239b565b9150826002028217905092915050565b6123de826118ad565b67ffffffffffffffff8111156123f7576123f6611af5565b5b61240182546120fa565b61240c828285612348565b600060209050601f83116001811461243f576000841561242d578287015190505b61243785826123b9565b86555061249f565b601f19841661244d86612229565b60005b8281101561247557848901518255600182019150602085019450602081019050612450565b86831015612492578489015161248e601f89168261239b565b8355505b6001600288020188555050505b505050505050565b7f596f7520617265206e6f7420617574686f72697a656420746f2061646420766560008201527f7269666965720000000000000000000000000000000000000000000000000000602082015250565b60006125036026836118b8565b915061250e826124a7565b604082019050919050565b60006020820190508181036000830152612532816124f6565b9050919050565b7f596f752061726520616c726561647920656e726f6c6c65640000000000000000600082015250565b600061256f6018836118b8565b915061257a82612539565b602082019050919050565b6000602082019050818103600083015261259e81612562565b9050919050565b7f596f7520617265206e6f7420617574686f72697a656420746f20766572696679600082015250565b60006125db6020836118b8565b91506125e6826125a5565b602082019050919050565b6000602082019050818103600083015261260a816125ce565b9050919050565b7f596f7520617265206e6f7420617574686f72697a656420746f2072656d6f766560008201527f2076657269666965720000000000000000000000000000000000000000000000602082015250565b600061266d6029836118b8565b915061267882612611565b604082019050919050565b6000602082019050818103600083015261269c81612660565b9050919050565b7f4e487b7100000000000000000000000000000000000000000000000000000000600052603260045260246000fd5b7f4e487b7100000000000000000000000000000000000000000000000000000000600052601160045260246000fd5b600061270c8261195f565b91507fffffffffffffffffffffffffffffffffffffffffffffffffffffffffffffffff820361273e5761273d6126d2565b5b60018201905091905056fea264697066735822122085b7893ffb384fdfa70a8c849363095e4b545ae9d7485375ca242410b788d2bb64736f6c63430008130033",
  "immutableReferences": {},
  "source": "// SPDX-License-Identifier: MIT\r\npragma solidity ^0.8.19;\r\n\r\ncontract Exam {\r\n    address private owner;\r\n    string public name;\r\n    string public date;\r\n    string public lastEnrollmentDate;\r\n    uint public duration;\r\n    uint public creationTime;\r\n    string public examHash;\r\n\r\n    bool public isExamCreated = false;\r\n    string private questionsCID;\r\n    string private answersCID;\r\n\r\n    struct student {\r\n        string name;\r\n        string govermentDocument;\r\n        string marksheet;\r\n        bool isVerified;\r\n        bool isEnrolled;\r\n        address studentAddress;\r\n        bool hasExamGiven;\r\n        uint marks;\r\n    }\r\n    mapping(address => student) public enrolledStudents;\r\n    address[] public enrolledStudentsArray;\r\n    mapping(address => bool) public verifiers;\r\n    // constructor takes all the exam data and stores them in state variables.\r\n    constructor(\r\n        address _owner,\r\n        string memory _name,\r\n        string memory _date,\r\n        string memory _lastEnrollmentDate,\r\n        uint _examDuration,\r\n        uint _examCreationTime,\r\n        string memory _examHash\r\n    ) {\r\n        owner = _owner;\r\n        name = _name;\r\n        date = _date;\r\n        lastEnrollmentDate = _lastEnrollmentDate;\r\n        duration = _examDuration;\r\n        verifiers[_owner] = true;\r\n        creationTime = _examCreationTime;\r\n        examHash = _examHash;\r\n    }\r\n\r\n    // Function for the students to Enroll to a perticular exam\r\n    function enrollStudent(\r\n        string memory _name,\r\n        string memory _govermentDocument,\r\n        string memory _marksheet\r\n    ) public {\r\n        require(\r\n            !enrolledStudents[msg.sender].isEnrolled,\r\n            \"You are already enrolled\"\r\n        );\r\n        address _address = msg.sender;\r\n        student memory newStudent = student(\r\n            _name,\r\n            _govermentDocument,\r\n            _marksheet,\r\n            false,\r\n            true,\r\n            _address,\r\n            false,\r\n            0\r\n        );\r\n        enrolledStudents[_address] = newStudent;\r\n        enrolledStudentsArray.push(_address);\r\n    }\r\n\r\n    // Get all the students who enrolled in the exam\r\n    function getAllStudents() public view returns (student[] memory) {\r\n        uint256 arrayLength = enrolledStudentsArray.length;\r\n        student[] memory studentArray = new student[](arrayLength);\r\n        for (uint256 i = 0; i < arrayLength; i++) {\r\n            studentArray[i] = enrolledStudents[enrolledStudentsArray[i]];\r\n        }\r\n        return studentArray;\r\n    }\r\n\r\n    // Function to add new _verifier\r\n    function addVerifier(address _verifier) public {\r\n        require(owner == msg.sender, \"You are not authorized to add verifier\");\r\n        verifiers[_verifier] = true;\r\n    }\r\n\r\n    // Function to remove the verifier\r\n    function removeVerifier(address _verifier) public {\r\n        require(\r\n            owner == msg.sender,\r\n            \"You are not authorized to remove verifier\"\r\n        );\r\n        verifiers[_verifier] = false;\r\n    }\r\n\r\n    // Function for the verifiers to verify the students\r\n    function verifyStudent(address _studentAddress) public {\r\n        require(verifiers[msg.sender], \"You are not authorized to verify\");\r\n        enrolledStudents[_studentAddress].isVerified = true;\r\n    }\r\n\r\n    // Function to check if student is enrolled or not\r\n    function isStudentEnrolled(\r\n        address _studentAddress\r\n    ) public view returns (bool) {\r\n        return enrolledStudents[_studentAddress].isEnrolled;\r\n    }\r\n\r\n    // Function to check if the student is verified or not\r\n    function isStudentVerified(\r\n        address _studentAddress\r\n    ) public view returns (bool) {\r\n        return enrolledStudents[_studentAddress].isVerified;\r\n    }\r\n\r\n    // Function to create exam\r\n    function createExam(\r\n        string memory _questionsCID,\r\n        string memory _answersCID\r\n    ) public {\r\n        require(owner == msg.sender, \"You are not authorized to create exam\");\r\n        require(!isExamCreated, \"Exam is already created\");\r\n\r\n        questionsCID = _questionsCID;\r\n        answersCID = _answersCID;\r\n        isExamCreated = true;\r\n    }\r\n\r\n    // Function to get the questions CID\r\n    function getExamCID() public view returns (string memory) {\r\n        return questionsCID;\r\n    }\r\n\r\n    // Function to get the exam answers CID\r\n    function getAnswersCID() public view returns (string memory) {\r\n        return answersCID;\r\n    }\r\n\r\n    function gradeStudent(uint marks) public {\r\n        enrolledStudents[msg.sender].marks = marks;\r\n        enrolledStudents[msg.sender].hasExamGiven = true;\r\n    }\r\n\r\n    function getStudent() public view returns (student memory) {\r\n        return enrolledStudents[msg.sender];\r\n    }\r\n}\r\n",
  "sourcePath": "D:\\Web3 Examination Portal\\contracts\\Exam.sol",
  "compiler": {
    "name": "solc",
    "version": "0.8.19+commit.7dd6d404.Emscripten.clang"
  },
  "schemaVersion": "3.4.16",
  "updatedAt": "2024-10-22T14:57:46.234Z",
  "networkType": "ethereum",
  "devdoc": {
    "kind": "dev",
    "methods": {},
    "version": 1
  },
  "userdoc": {
    "kind": "user",
    "methods": {},
    "version": 1
  }
}