{
  "contractName": "Examiner",
  "abi": [
    {
      "inputs": [
        {
          "internalType": "string",
          "name": "",
          "type": "string"
        }
      ],
      "name": "exams",
      "outputs": [
        {
          "internalType": "string",
          "name": "questions",
          "type": "string"
        },
        {
          "internalType": "string",
          "name": "answers",
          "type": "string"
        },
        {
          "internalType": "string",
          "name": "date",
          "type": "string"
        },
        {
          "internalType": "string",
          "name": "start_time",
          "type": "string"
        },
        {
          "internalType": "string",
          "name": "duration",
          "type": "string"
        },
        {
          "internalType": "string",
          "name": "name",
          "type": "string"
        }
      ],
      "stateMutability": "view",
      "type": "function"
    },
    {
      "inputs": [
        {
          "internalType": "uint256",
          "name": "",
          "type": "uint256"
        }
      ],
      "name": "keys",
      "outputs": [
        {
          "internalType": "string",
          "name": "",
          "type": "string"
        }
      ],
      "stateMutability": "view",
      "type": "function"
    },
    {
      "inputs": [
        {
          "internalType": "string",
          "name": "_exam_hash",
          "type": "string"
        },
        {
          "internalType": "string",
          "name": "_questions",
          "type": "string"
        },
        {
          "internalType": "string",
          "name": "_answers",
          "type": "string"
        },
        {
          "internalType": "string",
          "name": "date",
          "type": "string"
        },
        {
          "internalType": "string",
          "name": "start_time",
          "type": "string"
        },
        {
          "internalType": "string",
          "name": "duration",
          "type": "string"
        },
        {
          "internalType": "string",
          "name": "name",
          "type": "string"
        }
      ],
      "name": "createExam",
      "outputs": [],
      "stateMutability": "nonpayable",
      "type": "function"
    },
    {
      "inputs": [],
      "name": "getAllExams",
      "outputs": [
        {
          "components": [
            {
              "internalType": "string",
              "name": "name",
              "type": "string"
            },
            {
              "internalType": "string",
              "name": "examHash",
              "type": "string"
            }
          ],
          "internalType": "struct Examiner.displayExam[]",
          "name": "",
          "type": "tuple[]"
        }
      ],
      "stateMutability": "view",
      "type": "function"
    },
    {
      "inputs": [
        {
          "internalType": "string",
          "name": "examHash",
          "type": "string"
        }
      ],
      "name": "getExam",
      "outputs": [
        {
          "components": [
            {
              "internalType": "string",
              "name": "questions",
              "type": "string"
            },
            {
              "internalType": "string",
              "name": "date",
              "type": "string"
            },
            {
              "internalType": "string",
              "name": "start_time",
              "type": "string"
            },
            {
              "internalType": "string",
              "name": "duration",
              "type": "string"
            },
            {
              "internalType": "string",
              "name": "name",
              "type": "string"
            }
          ],
          "internalType": "struct Examiner.examReturn",
          "name": "",
          "type": "tuple"
        }
      ],
      "stateMutability": "view",
      "type": "function"
    },
    {
      "inputs": [
        {
          "internalType": "string",
          "name": "examHash",
          "type": "string"
        }
      ],
      "name": "getExamWithAnswers",
      "outputs": [
        {
          "components": [
            {
              "internalType": "string",
              "name": "questions",
              "type": "string"
            },
            {
              "internalType": "string",
              "name": "answers",
              "type": "string"
            },
            {
              "internalType": "string",
              "name": "date",
              "type": "string"
            },
            {
              "internalType": "string",
              "name": "start_time",
              "type": "string"
            },
            {
              "internalType": "string",
              "name": "duration",
              "type": "string"
            },
            {
              "internalType": "string",
              "name": "name",
              "type": "string"
            }
          ],
          "internalType": "struct Examiner.exam",
          "name": "",
          "type": "tuple"
        }
      ],
      "stateMutability": "view",
      "type": "function"
    }
  ],
  "bytecode": "0x608060405234801561001057600080fd5b50611d26806100206000396000f3fe608060405234801561001057600080fd5b50600436106100625760003560e01c80630cb6aaf1146100675780633df8fcf01461009757806361afcc7b146100c7578063795994d9146100f7578063b8b1415b14610115578063f587dd5514610131575b600080fd5b610081600480360381019061007c919061113d565b610166565b60405161008e91906111fa565b60405180910390f35b6100b160048036038101906100ac9190611351565b610212565b6040516100be9190611490565b60405180910390f35b6100e160048036038101906100dc9190611351565b6105b6565b6040516100ee9190611544565b60405180910390f35b6100ff61099f565b60405161010c919061166c565b60405180910390f35b61012f600480360381019061012a919061168e565b610bdc565b005b61014b60048036038101906101469190611351565b610cf2565b60405161015d969594939291906117f4565b60405180910390f35b6001818154811061017657600080fd5b906000526020600020016000915090508054610191906118ae565b80601f01602080910402602001604051908101604052809291908181526020018280546101bd906118ae565b801561020a5780601f106101df5761010080835404028352916020019161020a565b820191906000526020600020905b8154815290600101906020018083116101ed57829003601f168201915b505050505081565b61021a611074565b60008260405161022a919061191b565b90815260200160405180910390206040518060c0016040529081600082018054610253906118ae565b80601f016020809104026020016040519081016040528092919081815260200182805461027f906118ae565b80156102cc5780601f106102a1576101008083540402835291602001916102cc565b820191906000526020600020905b8154815290600101906020018083116102af57829003601f168201915b505050505081526020016001820180546102e5906118ae565b80601f0160208091040260200160405190810160405280929190818152602001828054610311906118ae565b801561035e5780601f106103335761010080835404028352916020019161035e565b820191906000526020600020905b81548152906001019060200180831161034157829003601f168201915b50505050508152602001600282018054610377906118ae565b80601f01602080910402602001604051908101604052809291908181526020018280546103a3906118ae565b80156103f05780601f106103c5576101008083540402835291602001916103f0565b820191906000526020600020905b8154815290600101906020018083116103d357829003601f168201915b50505050508152602001600382018054610409906118ae565b80601f0160208091040260200160405190810160405280929190818152602001828054610435906118ae565b80156104825780601f1061045757610100808354040283529160200191610482565b820191906000526020600020905b81548152906001019060200180831161046557829003601f168201915b5050505050815260200160048201805461049b906118ae565b80601f01602080910402602001604051908101604052809291908181526020018280546104c7906118ae565b80156105145780601f106104e957610100808354040283529160200191610514565b820191906000526020600020905b8154815290600101906020018083116104f757829003601f168201915b5050505050815260200160058201805461052d906118ae565b80601f0160208091040260200160405190810160405280929190818152602001828054610559906118ae565b80156105a65780601f1061057b576101008083540402835291602001916105a6565b820191906000526020600020905b81548152906001019060200180831161058957829003601f168201915b5050505050815250509050919050565b6105be6110aa565b600080836040516105cf919061191b565b90815260200160405180910390206040518060c00160405290816000820180546105f8906118ae565b80601f0160208091040260200160405190810160405280929190818152602001828054610624906118ae565b80156106715780601f1061064657610100808354040283529160200191610671565b820191906000526020600020905b81548152906001019060200180831161065457829003601f168201915b5050505050815260200160018201805461068a906118ae565b80601f01602080910402602001604051908101604052809291908181526020018280546106b6906118ae565b80156107035780601f106106d857610100808354040283529160200191610703565b820191906000526020600020905b8154815290600101906020018083116106e657829003601f168201915b5050505050815260200160028201805461071c906118ae565b80601f0160208091040260200160405190810160405280929190818152602001828054610748906118ae565b80156107955780601f1061076a57610100808354040283529160200191610795565b820191906000526020600020905b81548152906001019060200180831161077857829003601f168201915b505050505081526020016003820180546107ae906118ae565b80601f01602080910402602001604051908101604052809291908181526020018280546107da906118ae565b80156108275780601f106107fc57610100808354040283529160200191610827565b820191906000526020600020905b81548152906001019060200180831161080a57829003601f168201915b50505050508152602001600482018054610840906118ae565b80601f016020809104026020016040519081016040528092919081815260200182805461086c906118ae565b80156108b95780601f1061088e576101008083540402835291602001916108b9565b820191906000526020600020905b81548152906001019060200180831161089c57829003601f168201915b505050505081526020016005820180546108d2906118ae565b80601f01602080910402602001604051908101604052809291908181526020018280546108fe906118ae565b801561094b5780601f106109205761010080835404028352916020019161094b565b820191906000526020600020905b81548152906001019060200180831161092e57829003601f168201915b505050505081525050905060006040518060a00160405280836000015181526020018360400151815260200183606001518152602001836080015181526020018360a0015181525090508092505050919050565b60606000600180549050905060008167ffffffffffffffff8111156109c7576109c6611226565b5b604051908082528060200260200182016040528015610a0057816020015b6109ed6110d9565b8152602001906001900390816109e55790505b50905060005b82811015610bd357600060018281548110610a2457610a23611932565b5b90600052602060002001604051610a3b91906119f9565b90815260200160405180910390206005018054610a57906118ae565b80601f0160208091040260200160405190810160405280929190818152602001828054610a83906118ae565b8015610ad05780601f10610aa557610100808354040283529160200191610ad0565b820191906000526020600020905b815481529060010190602001808311610ab357829003601f168201915b5050505050828281518110610ae857610ae7611932565b5b60200260200101516000018190525060018181548110610b0b57610b0a611932565b5b906000526020600020018054610b20906118ae565b80601f0160208091040260200160405190810160405280929190818152602001828054610b4c906118ae565b8015610b995780601f10610b6e57610100808354040283529160200191610b99565b820191906000526020600020905b815481529060010190602001808311610b7c57829003601f168201915b5050505050828281518110610bb157610bb0611932565b5b6020026020010151602001819052508080610bcb90611a3f565b915050610a06565b50809250505090565b60006040518060c0016040528088815260200187815260200186815260200185815260200184815260200183815250905080600089604051610c1e919061191b565b90815260200160405180910390206000820151816000019081610c419190611c1e565b506020820151816001019081610c579190611c1e565b506040820151816002019081610c6d9190611c1e565b506060820151816003019081610c839190611c1e565b506080820151816004019081610c999190611c1e565b5060a0820151816005019081610caf9190611c1e565b50905050600188908060018154018082558091505060019003906000526020600020016000909190919091509081610ce79190611c1e565b505050505050505050565b600081805160208101820180518482526020830160208501208183528095505050505050600091509050806000018054610d2b906118ae565b80601f0160208091040260200160405190810160405280929190818152602001828054610d57906118ae565b8015610da45780601f10610d7957610100808354040283529160200191610da4565b820191906000526020600020905b815481529060010190602001808311610d8757829003601f168201915b505050505090806001018054610db9906118ae565b80601f0160208091040260200160405190810160405280929190818152602001828054610de5906118ae565b8015610e325780601f10610e0757610100808354040283529160200191610e32565b820191906000526020600020905b815481529060010190602001808311610e1557829003601f168201915b505050505090806002018054610e47906118ae565b80601f0160208091040260200160405190810160405280929190818152602001828054610e73906118ae565b8015610ec05780601f10610e9557610100808354040283529160200191610ec0565b820191906000526020600020905b815481529060010190602001808311610ea357829003601f168201915b505050505090806003018054610ed5906118ae565b80601f0160208091040260200160405190810160405280929190818152602001828054610f01906118ae565b8015610f4e5780601f10610f2357610100808354040283529160200191610f4e565b820191906000526020600020905b815481529060010190602001808311610f3157829003601f168201915b505050505090806004018054610f63906118ae565b80601f0160208091040260200160405190810160405280929190818152602001828054610f8f906118ae565b8015610fdc5780601f10610fb157610100808354040283529160200191610fdc565b820191906000526020600020905b815481529060010190602001808311610fbf57829003601f168201915b505050505090806005018054610ff1906118ae565b80601f016020809104026020016040519081016040528092919081815260200182805461101d906118ae565b801561106a5780601f1061103f5761010080835404028352916020019161106a565b820191906000526020600020905b81548152906001019060200180831161104d57829003601f168201915b5050505050905086565b6040518060c001604052806060815260200160608152602001606081526020016060815260200160608152602001606081525090565b6040518060a0016040528060608152602001606081526020016060815260200160608152602001606081525090565b604051806040016040528060608152602001606081525090565b6000604051905090565b600080fd5b600080fd5b6000819050919050565b61111a81611107565b811461112557600080fd5b50565b60008135905061113781611111565b92915050565b600060208284031215611153576111526110fd565b5b600061116184828501611128565b91505092915050565b600081519050919050565b600082825260208201905092915050565b60005b838110156111a4578082015181840152602081019050611189565b60008484015250505050565b6000601f19601f8301169050919050565b60006111cc8261116a565b6111d68185611175565b93506111e6818560208601611186565b6111ef816111b0565b840191505092915050565b6000602082019050818103600083015261121481846111c1565b905092915050565b600080fd5b600080fd5b7f4e487b7100000000000000000000000000000000000000000000000000000000600052604160045260246000fd5b61125e826111b0565b810181811067ffffffffffffffff8211171561127d5761127c611226565b5b80604052505050565b60006112906110f3565b905061129c8282611255565b919050565b600067ffffffffffffffff8211156112bc576112bb611226565b5b6112c5826111b0565b9050602081019050919050565b82818337600083830152505050565b60006112f46112ef846112a1565b611286565b9050828152602081018484840111156113105761130f611221565b5b61131b8482856112d2565b509392505050565b600082601f8301126113385761133761121c565b5b81356113488482602086016112e1565b91505092915050565b600060208284031215611367576113666110fd565b5b600082013567ffffffffffffffff81111561138557611384611102565b5b61139184828501611323565b91505092915050565b600082825260208201905092915050565b60006113b68261116a565b6113c0818561139a565b93506113d0818560208601611186565b6113d9816111b0565b840191505092915050565b600060c083016000830151848203600086015261140182826113ab565b9150506020830151848203602086015261141b82826113ab565b9150506040830151848203604086015261143582826113ab565b9150506060830151848203606086015261144f82826113ab565b9150506080830151848203608086015261146982826113ab565b91505060a083015184820360a086015261148382826113ab565b9150508091505092915050565b600060208201905081810360008301526114aa81846113e4565b905092915050565b600060a08301600083015184820360008601526114cf82826113ab565b915050602083015184820360208601526114e982826113ab565b9150506040830151848203604086015261150382826113ab565b9150506060830151848203606086015261151d82826113ab565b9150506080830151848203608086015261153782826113ab565b9150508091505092915050565b6000602082019050818103600083015261155e81846114b2565b905092915050565b600081519050919050565b600082825260208201905092915050565b6000819050602082019050919050565b600060408301600083015184820360008601526115af82826113ab565b915050602083015184820360208601526115c982826113ab565b9150508091505092915050565b60006115e28383611592565b905092915050565b6000602082019050919050565b600061160282611566565b61160c8185611571565b93508360208202850161161e85611582565b8060005b8581101561165a578484038952815161163b85826115d6565b9450611646836115ea565b925060208a01995050600181019050611622565b50829750879550505050505092915050565b6000602082019050818103600083015261168681846115f7565b905092915050565b600080600080600080600060e0888a0312156116ad576116ac6110fd565b5b600088013567ffffffffffffffff8111156116cb576116ca611102565b5b6116d78a828b01611323565b975050602088013567ffffffffffffffff8111156116f8576116f7611102565b5b6117048a828b01611323565b965050604088013567ffffffffffffffff81111561172557611724611102565b5b6117318a828b01611323565b955050606088013567ffffffffffffffff81111561175257611751611102565b5b61175e8a828b01611323565b945050608088013567ffffffffffffffff81111561177f5761177e611102565b5b61178b8a828b01611323565b93505060a088013567ffffffffffffffff8111156117ac576117ab611102565b5b6117b88a828b01611323565b92505060c088013567ffffffffffffffff8111156117d9576117d8611102565b5b6117e58a828b01611323565b91505092959891949750929550565b600060c082019050818103600083015261180e81896111c1565b9050818103602083015261182281886111c1565b9050818103604083015261183681876111c1565b9050818103606083015261184a81866111c1565b9050818103608083015261185e81856111c1565b905081810360a083015261187281846111c1565b9050979650505050505050565b7f4e487b7100000000000000000000000000000000000000000000000000000000600052602260045260246000fd5b600060028204905060018216806118c657607f821691505b6020821081036118d9576118d861187f565b5b50919050565b600081905092915050565b60006118f58261116a565b6118ff81856118df565b935061190f818560208601611186565b80840191505092915050565b600061192782846118ea565b915081905092915050565b7f4e487b7100000000000000000000000000000000000000000000000000000000600052603260045260246000fd5b60008190508160005260206000209050919050565b60008154611983816118ae565b61198d81866118df565b945060018216600081146119a857600181146119bd576119f0565b60ff19831686528115158202860193506119f0565b6119c685611961565b60005b838110156119e8578154818901526001820191506020810190506119c9565b838801955050505b50505092915050565b6000611a058284611976565b915081905092915050565b7f4e487b7100000000000000000000000000000000000000000000000000000000600052601160045260246000fd5b6000611a4a82611107565b91507fffffffffffffffffffffffffffffffffffffffffffffffffffffffffffffffff8203611a7c57611a7b611a10565b5b600182019050919050565b60006020601f8301049050919050565b600082821b905092915050565b600060088302611ad47fffffffffffffffffffffffffffffffffffffffffffffffffffffffffffffffff82611a97565b611ade8683611a97565b95508019841693508086168417925050509392505050565b6000819050919050565b6000611b1b611b16611b1184611107565b611af6565b611107565b9050919050565b6000819050919050565b611b3583611b00565b611b49611b4182611b22565b848454611aa4565b825550505050565b600090565b611b5e611b51565b611b69818484611b2c565b505050565b5b81811015611b8d57611b82600082611b56565b600181019050611b6f565b5050565b601f821115611bd257611ba381611961565b611bac84611a87565b81016020851015611bbb578190505b611bcf611bc785611a87565b830182611b6e565b50505b505050565b600082821c905092915050565b6000611bf560001984600802611bd7565b1980831691505092915050565b6000611c0e8383611be4565b9150826002028217905092915050565b611c278261116a565b67ffffffffffffffff811115611c4057611c3f611226565b5b611c4a82546118ae565b611c55828285611b91565b600060209050601f831160018114611c885760008415611c76578287015190505b611c808582611c02565b865550611ce8565b601f198416611c9686611961565b60005b82811015611cbe57848901518255600182019150602085019450602081019050611c99565b86831015611cdb5784890151611cd7601f891682611be4565b8355505b6001600288020188555050505b50505050505056fea264697066735822122031af06275dd7d274f131c8f3fe0cf57097d8417d4abdb2f845f6507c7b2a8e8564736f6c63430008130033",
  "immutableReferences": {},
  "source": "// SPDX-License-Identifier: MIT\r\npragma solidity ^0.8.19;\r\n\r\ncontract Examiner {\r\n    struct exam {\r\n        string questions;\r\n        string answers;\r\n        string date;\r\n        string start_time;\r\n        string duration;\r\n        string name;\r\n    }\r\n\r\n    struct examReturn {\r\n        string questions;\r\n        string date;\r\n        string start_time;\r\n        string duration;\r\n        string name;\r\n    }\r\n\r\n    struct displayExam {\r\n        string name;\r\n        string examHash;\r\n    }\r\n\r\n    mapping(string => exam) public exams;\r\n    string[] public keys;\r\n    // exam[] public allExams;\r\n\r\n    function createExam(\r\n        string memory _exam_hash,\r\n        string memory _questions,\r\n        string memory _answers,\r\n        string memory date,\r\n        string memory start_time,\r\n        string memory duration,\r\n        string memory name\r\n    ) public {\r\n        exam memory newExam = exam(\r\n            _questions,\r\n            _answers,\r\n            date,\r\n            start_time,\r\n            duration,\r\n            name\r\n        );\r\n        exams[_exam_hash] = newExam;\r\n        keys.push(_exam_hash);\r\n    }\r\n\r\n    function getAllExams() public view returns (displayExam[] memory) {\r\n        uint arrayLength = keys.length;\r\n        displayExam[] memory examArray = new displayExam[](arrayLength);\r\n        for (uint i = 0; i < arrayLength; i++) {\r\n            // allExams.push(exams[keys[i]]);\r\n            examArray[i].name = exams[keys[i]].name;\r\n            examArray[i].examHash = keys[i];\r\n        }\r\n        return examArray;\r\n    }\r\n\r\n    // Function to retrieve the list of students who enrolled in a specific exam without answers\r\n    function getExam(\r\n        string memory examHash\r\n    ) public view returns (examReturn memory) {\r\n        exam memory exam_with_answers = exams[examHash];\r\n        examReturn memory exam_without_answer = examReturn(\r\n            exam_with_answers.questions,\r\n            exam_with_answers.date,\r\n            exam_with_answers.start_time,\r\n            exam_with_answers.duration,\r\n            exam_with_answers.name\r\n        );\r\n        return exam_without_answer;\r\n    }\r\n\r\n    function getExamWithAnswers(\r\n        string memory examHash\r\n    ) public view returns (exam memory) {\r\n        return exams[examHash];\r\n    }\r\n}\r\n",
  "sourcePath": "C:\\Users\\ASUS\\OneDrive\\Desktop\\New Projects\\Web3 Examination Portal\\web3-Examination-App\\contracts\\Examiner.sol",
  "compiler": {
    "name": "solc",
    "version": "0.8.19+commit.7dd6d404.Emscripten.clang"
  },
  "schemaVersion": "3.4.16",
  "updatedAt": "2024-10-20T09:39:36.540Z",
  "devdoc": {
    "kind": "dev",
    "methods": {},
    "version": 1
  },
  "userdoc": {
    "kind": "user",
    "methods": {},
    "version": 1
  }
}