{
  "contractName": "Exam",
  "abi": [
    {
      "inputs": [
        {
          "internalType": "address",
          "name": "_owner",
          "type": "address"
        },
        {
          "internalType": "string",
          "name": "_name",
          "type": "string"
        },
        {
          "internalType": "string",
          "name": "_date",
          "type": "string"
        },
        {
          "internalType": "string",
          "name": "_lastEnrollmentDate",
          "type": "string"
        },
        {
          "internalType": "uint256",
          "name": "_examStartTime",
          "type": "uint256"
        },
        {
          "internalType": "uint256",
          "name": "_examDuration",
          "type": "uint256"
        },
        {
          "internalType": "uint256",
          "name": "_examCreationTime",
          "type": "uint256"
        },
        {
          "internalType": "uint256",
          "name": "_examEnrollmentduration",
          "type": "uint256"
        }
      ],
      "stateMutability": "nonpayable",
      "type": "constructor"
    },
    {
      "inputs": [],
      "name": "creationTime",
      "outputs": [
        {
          "internalType": "uint256",
          "name": "",
          "type": "uint256"
        }
      ],
      "stateMutability": "view",
      "type": "function",
      "constant": true
    },
    {
      "inputs": [],
      "name": "date",
      "outputs": [
        {
          "internalType": "string",
          "name": "",
          "type": "string"
        }
      ],
      "stateMutability": "view",
      "type": "function",
      "constant": true
    },
    {
      "inputs": [],
      "name": "duration",
      "outputs": [
        {
          "internalType": "uint256",
          "name": "",
          "type": "uint256"
        }
      ],
      "stateMutability": "view",
      "type": "function",
      "constant": true
    },
    {
      "inputs": [
        {
          "internalType": "address",
          "name": "",
          "type": "address"
        }
      ],
      "name": "enrolledStudents",
      "outputs": [
        {
          "internalType": "string",
          "name": "name",
          "type": "string"
        },
        {
          "internalType": "string",
          "name": "govermentDocument",
          "type": "string"
        },
        {
          "internalType": "string",
          "name": "marksheet",
          "type": "string"
        },
        {
          "internalType": "bool",
          "name": "isVerified",
          "type": "bool"
        },
        {
          "internalType": "bool",
          "name": "isEnrolled",
          "type": "bool"
        },
        {
          "internalType": "address",
          "name": "studentAddress",
          "type": "address"
        }
      ],
      "stateMutability": "view",
      "type": "function",
      "constant": true
    },
    {
      "inputs": [
        {
          "internalType": "uint256",
          "name": "",
          "type": "uint256"
        }
      ],
      "name": "enrolledStudentsArray",
      "outputs": [
        {
          "internalType": "address",
          "name": "",
          "type": "address"
        }
      ],
      "stateMutability": "view",
      "type": "function",
      "constant": true
    },
    {
      "inputs": [],
      "name": "enrollment_duration",
      "outputs": [
        {
          "internalType": "uint256",
          "name": "",
          "type": "uint256"
        }
      ],
      "stateMutability": "view",
      "type": "function",
      "constant": true
    },
    {
      "inputs": [],
      "name": "lastEnrollmentDate",
      "outputs": [
        {
          "internalType": "string",
          "name": "",
          "type": "string"
        }
      ],
      "stateMutability": "view",
      "type": "function",
      "constant": true
    },
    {
      "inputs": [],
      "name": "name",
      "outputs": [
        {
          "internalType": "string",
          "name": "",
          "type": "string"
        }
      ],
      "stateMutability": "view",
      "type": "function",
      "constant": true
    },
    {
      "inputs": [],
      "name": "start_time",
      "outputs": [
        {
          "internalType": "uint256",
          "name": "",
          "type": "uint256"
        }
      ],
      "stateMutability": "view",
      "type": "function",
      "constant": true
    },
    {
      "inputs": [
        {
          "internalType": "address",
          "name": "",
          "type": "address"
        }
      ],
      "name": "verifiers",
      "outputs": [
        {
          "internalType": "bool",
          "name": "",
          "type": "bool"
        }
      ],
      "stateMutability": "view",
      "type": "function",
      "constant": true
    },
    {
      "inputs": [
        {
          "internalType": "string",
          "name": "_name",
          "type": "string"
        },
        {
          "internalType": "string",
          "name": "_govermentDocument",
          "type": "string"
        },
        {
          "internalType": "string",
          "name": "_marksheet",
          "type": "string"
        }
      ],
      "name": "enrollStudent",
      "outputs": [],
      "stateMutability": "nonpayable",
      "type": "function"
    },
    {
      "inputs": [],
      "name": "getAllStudents",
      "outputs": [
        {
          "components": [
            {
              "internalType": "string",
              "name": "name",
              "type": "string"
            },
            {
              "internalType": "string",
              "name": "govermentDocument",
              "type": "string"
            },
            {
              "internalType": "string",
              "name": "marksheet",
              "type": "string"
            },
            {
              "internalType": "bool",
              "name": "isVerified",
              "type": "bool"
            },
            {
              "internalType": "bool",
              "name": "isEnrolled",
              "type": "bool"
            },
            {
              "internalType": "address",
              "name": "studentAddress",
              "type": "address"
            }
          ],
          "internalType": "struct Exam.student[]",
          "name": "",
          "type": "tuple[]"
        }
      ],
      "stateMutability": "view",
      "type": "function",
      "constant": true
    },
    {
      "inputs": [
        {
          "internalType": "address",
          "name": "_verifier",
          "type": "address"
        }
      ],
      "name": "addVerifier",
      "outputs": [],
      "stateMutability": "nonpayable",
      "type": "function"
    },
    {
      "inputs": [
        {
          "internalType": "address",
          "name": "_verifier",
          "type": "address"
        }
      ],
      "name": "removeVerifier",
      "outputs": [],
      "stateMutability": "nonpayable",
      "type": "function"
    },
    {
      "inputs": [
        {
          "internalType": "address",
          "name": "_studentAddress",
          "type": "address"
        }
      ],
      "name": "verifyStudent",
      "outputs": [],
      "stateMutability": "nonpayable",
      "type": "function"
    },
    {
      "inputs": [
        {
          "internalType": "address",
          "name": "_studentAddress",
          "type": "address"
        }
      ],
      "name": "isStudentVerified",
      "outputs": [
        {
          "internalType": "bool",
          "name": "",
          "type": "bool"
        }
      ],
      "stateMutability": "view",
      "type": "function",
      "constant": true
    },
    {
      "inputs": [
        {
          "internalType": "string",
          "name": "_questionsCID",
          "type": "string"
        },
        {
          "internalType": "string",
          "name": "_answersCID",
          "type": "string"
        }
      ],
      "name": "createExam",
      "outputs": [],
      "stateMutability": "nonpayable",
      "type": "function"
    },
    {
      "inputs": [],
      "name": "getExamCID",
      "outputs": [
        {
          "internalType": "string",
          "name": "",
          "type": "string"
        }
      ],
      "stateMutability": "view",
      "type": "function",
      "constant": true
    },
    {
      "inputs": [],
      "name": "getAnswersCID",
      "outputs": [
        {
          "internalType": "string",
          "name": "",
          "type": "string"
        }
      ],
      "stateMutability": "view",
      "type": "function",
      "constant": true
    }
  ],
  "bytecode": "0x60806040526000600860006101000a81548160ff0219169083151502179055503480156200002c57600080fd5b5060405162002a2538038062002a2583398181016040528101906200005291906200038a565b876000806101000a81548173ffffffffffffffffffffffffffffffffffffffff021916908373ffffffffffffffffffffffffffffffffffffffff1602179055508660019081620000a39190620006f1565b508560029081620000b59190620006f1565b508460039081620000c79190620006f1565b508342620000d6919062000807565b600481905550826005819055506001600d60008a73ffffffffffffffffffffffffffffffffffffffff1673ffffffffffffffffffffffffffffffffffffffff16815260200190815260200160002060006101000a81548160ff0219169083151502179055508160068190555080600781905550505050505050505062000842565b6000604051905090565b600080fd5b600080fd5b600073ffffffffffffffffffffffffffffffffffffffff82169050919050565b600062000198826200016b565b9050919050565b620001aa816200018b565b8114620001b657600080fd5b50565b600081519050620001ca816200019f565b92915050565b600080fd5b600080fd5b6000601f19601f8301169050919050565b7f4e487b7100000000000000000000000000000000000000000000000000000000600052604160045260246000fd5b6200022582620001da565b810181811067ffffffffffffffff82111715620002475762000246620001eb565b5b80604052505050565b60006200025c62000157565b90506200026a82826200021a565b919050565b600067ffffffffffffffff8211156200028d576200028c620001eb565b5b6200029882620001da565b9050602081019050919050565b60005b83811015620002c5578082015181840152602081019050620002a8565b60008484015250505050565b6000620002e8620002e2846200026f565b62000250565b905082815260208101848484011115620003075762000306620001d5565b5b62000314848285620002a5565b509392505050565b600082601f830112620003345762000333620001d0565b5b815162000346848260208601620002d1565b91505092915050565b6000819050919050565b62000364816200034f565b81146200037057600080fd5b50565b600081519050620003848162000359565b92915050565b600080600080600080600080610100898b031215620003ae57620003ad62000161565b5b6000620003be8b828c01620001b9565b985050602089015167ffffffffffffffff811115620003e257620003e162000166565b5b620003f08b828c016200031c565b975050604089015167ffffffffffffffff81111562000414576200041362000166565b5b620004228b828c016200031c565b965050606089015167ffffffffffffffff81111562000446576200044562000166565b5b620004548b828c016200031c565b9550506080620004678b828c0162000373565b94505060a06200047a8b828c0162000373565b93505060c06200048d8b828c0162000373565b92505060e0620004a08b828c0162000373565b9150509295985092959890939650565b600081519050919050565b7f4e487b7100000000000000000000000000000000000000000000000000000000600052602260045260246000fd5b600060028204905060018216806200050357607f821691505b602082108103620005195762000518620004bb565b5b50919050565b60008190508160005260206000209050919050565b60006020601f8301049050919050565b600082821b905092915050565b600060088302620005837fffffffffffffffffffffffffffffffffffffffffffffffffffffffffffffffff8262000544565b6200058f868362000544565b95508019841693508086168417925050509392505050565b6000819050919050565b6000620005d2620005cc620005c6846200034f565b620005a7565b6200034f565b9050919050565b6000819050919050565b620005ee83620005b1565b62000606620005fd82620005d9565b84845462000551565b825550505050565b600090565b6200061d6200060e565b6200062a818484620005e3565b505050565b5b8181101562000652576200064660008262000613565b60018101905062000630565b5050565b601f821115620006a1576200066b816200051f565b620006768462000534565b8101602085101562000686578190505b6200069e620006958562000534565b8301826200062f565b50505b505050565b600082821c905092915050565b6000620006c660001984600802620006a6565b1980831691505092915050565b6000620006e18383620006b3565b9150826002028217905092915050565b620006fc82620004b0565b67ffffffffffffffff811115620007185762000717620001eb565b5b620007248254620004ea565b6200073182828562000656565b600060209050601f83116001811462000769576000841562000754578287015190505b620007608582620006d3565b865550620007d0565b601f19841662000779866200051f565b60005b82811015620007a3578489015182556001820191506020850194506020810190506200077c565b86831015620007c35784890151620007bf601f891682620006b3565b8355505b6001600288020188555050505b505050505050565b7f4e487b7100000000000000000000000000000000000000000000000000000000600052601160045260246000fd5b600062000814826200034f565b915062000821836200034f565b92508282019050808211156200083c576200083b620007d8565b5b92915050565b6121d380620008526000396000f3fe608060405234801561001057600080fd5b50600436106101215760003560e01c8063729d1dcb116100ad578063b32dece111610071578063b32dece114610311578063c9b5901d1461032f578063ca2dfd0a1461034b578063d8270dce14610367578063e9e309271461038557610121565b8063729d1dcb14610268578063834ee4171461029d5780639000b3d6146102bb57806398378bfe146102d75780639e58ba4f146102f357610121565b8063323046b1116100f4578063323046b1146101b05780633878622e146101ce5780634e6cc3c1146101fe5780636c8244871461021c5780636e5704031461024c57610121565b806306fdde03146101265780630fb5a6b41461014457806319839df8146101625780632ebcfc1314610180575b600080fd5b61012e6103a3565b60405161013b9190611424565b60405180910390f35b61014c610431565b604051610159919061145f565b60405180910390f35b61016a610437565b6040516101779190611424565b60405180910390f35b61019a600480360381019061019591906114ba565b6104c5565b6040516101a79190611528565b60405180910390f35b6101b8610504565b6040516101c59190611424565b60405180910390f35b6101e860048036038101906101e3919061156f565b610592565b6040516101f591906115b7565b60405180910390f35b6102066105eb565b6040516102139190611424565b60405180910390f35b6102366004803603810190610231919061156f565b61067d565b60405161024391906115b7565b60405180910390f35b61026660048036038101906102619190611707565b61069d565b005b610282600480360381019061027d919061156f565b6107ba565b6040516102949695949392919061177f565b60405180910390f35b6102a56109c8565b6040516102b2919061145f565b60405180910390f35b6102d560048036038101906102d0919061156f565b6109ce565b005b6102f160048036038101906102ec91906117f5565b610ab7565b005b6102fb610d60565b604051610308919061145f565b60405180910390f35b610319610d66565b6040516103269190611424565b60405180910390f35b6103496004803603810190610344919061156f565b610df8565b005b6103656004803603810190610360919061156f565b610ee2565b005b61036f610fcb565b60405161037c919061145f565b60405180910390f35b61038d610fd1565b60405161039a9190611a5d565b60405180910390f35b600180546103b090611aae565b80601f01602080910402602001604051908101604052809291908181526020018280546103dc90611aae565b80156104295780601f106103fe57610100808354040283529160200191610429565b820191906000526020600020905b81548152906001019060200180831161040c57829003601f168201915b505050505081565b60055481565b6003805461044490611aae565b80601f016020809104026020016040519081016040528092919081815260200182805461047090611aae565b80156104bd5780601f10610492576101008083540402835291602001916104bd565b820191906000526020600020905b8154815290600101906020018083116104a057829003601f168201915b505050505081565b600c81815481106104d557600080fd5b906000526020600020016000915054906101000a900473ffffffffffffffffffffffffffffffffffffffff1681565b6002805461051190611aae565b80601f016020809104026020016040519081016040528092919081815260200182805461053d90611aae565b801561058a5780601f1061055f5761010080835404028352916020019161058a565b820191906000526020600020905b81548152906001019060200180831161056d57829003601f168201915b505050505081565b6000600b60008373ffffffffffffffffffffffffffffffffffffffff1673ffffffffffffffffffffffffffffffffffffffff16815260200190815260200160002060030160009054906101000a900460ff169050919050565b6060600a80546105fa90611aae565b80601f016020809104026020016040519081016040528092919081815260200182805461062690611aae565b80156106735780601f1061064857610100808354040283529160200191610673565b820191906000526020600020905b81548152906001019060200180831161065657829003601f168201915b5050505050905090565b600d6020528060005260406000206000915054906101000a900460ff1681565b3373ffffffffffffffffffffffffffffffffffffffff1660008054906101000a900473ffffffffffffffffffffffffffffffffffffffff1673ffffffffffffffffffffffffffffffffffffffff161461072b576040517f08c379a000000000000000000000000000000000000000000000000000000000815260040161072290611b51565b60405180910390fd5b600860009054906101000a900460ff161561077b576040517f08c379a000000000000000000000000000000000000000000000000000000000815260040161077290611bbd565b60405180910390fd5b816009908161078a9190611d89565b5080600a908161079a9190611d89565b506001600860006101000a81548160ff0219169083151502179055505050565b600b6020528060005260406000206000915090508060000180546107dd90611aae565b80601f016020809104026020016040519081016040528092919081815260200182805461080990611aae565b80156108565780601f1061082b57610100808354040283529160200191610856565b820191906000526020600020905b81548152906001019060200180831161083957829003601f168201915b50505050509080600101805461086b90611aae565b80601f016020809104026020016040519081016040528092919081815260200182805461089790611aae565b80156108e45780601f106108b9576101008083540402835291602001916108e4565b820191906000526020600020905b8154815290600101906020018083116108c757829003601f168201915b5050505050908060020180546108f990611aae565b80601f016020809104026020016040519081016040528092919081815260200182805461092590611aae565b80156109725780601f1061094757610100808354040283529160200191610972565b820191906000526020600020905b81548152906001019060200180831161095557829003601f168201915b5050505050908060030160009054906101000a900460ff16908060030160019054906101000a900460ff16908060030160029054906101000a900473ffffffffffffffffffffffffffffffffffffffff16905086565b60045481565b3373ffffffffffffffffffffffffffffffffffffffff1660008054906101000a900473ffffffffffffffffffffffffffffffffffffffff1673ffffffffffffffffffffffffffffffffffffffff1614610a5c576040517f08c379a0000000000000000000000000000000000000000000000000000000008152600401610a5390611ecd565b60405180910390fd5b6001600d60008373ffffffffffffffffffffffffffffffffffffffff1673ffffffffffffffffffffffffffffffffffffffff16815260200190815260200160002060006101000a81548160ff02191690831515021790555050565b600b60003373ffffffffffffffffffffffffffffffffffffffff1673ffffffffffffffffffffffffffffffffffffffff16815260200190815260200160002060030160019054906101000a900460ff1615610b47576040517f08c379a0000000000000000000000000000000000000000000000000000000008152600401610b3e90611f39565b60405180910390fd5b600754600654610b579190611f88565b4210610b98576040517f08c379a0000000000000000000000000000000000000000000000000000000008152600401610b8f90612008565b60405180910390fd5b600033905060006040518060c001604052808681526020018581526020018481526020016000151581526020016001151581526020018373ffffffffffffffffffffffffffffffffffffffff16815250905080600b60008473ffffffffffffffffffffffffffffffffffffffff1673ffffffffffffffffffffffffffffffffffffffff1681526020019081526020016000206000820151816000019081610c3f9190611d89565b506020820151816001019081610c559190611d89565b506040820151816002019081610c6b9190611d89565b5060608201518160030160006101000a81548160ff02191690831515021790555060808201518160030160016101000a81548160ff02191690831515021790555060a08201518160030160026101000a81548173ffffffffffffffffffffffffffffffffffffffff021916908373ffffffffffffffffffffffffffffffffffffffff160217905550905050600c829080600181540180825580915050600190039060005260206000200160009091909190916101000a81548173ffffffffffffffffffffffffffffffffffffffff021916908373ffffffffffffffffffffffffffffffffffffffff1602179055505050505050565b60075481565b606060098054610d7590611aae565b80601f0160208091040260200160405190810160405280929190818152602001828054610da190611aae565b8015610dee5780601f10610dc357610100808354040283529160200191610dee565b820191906000526020600020905b815481529060010190602001808311610dd157829003601f168201915b5050505050905090565b600d60003373ffffffffffffffffffffffffffffffffffffffff1673ffffffffffffffffffffffffffffffffffffffff16815260200190815260200160002060009054906101000a900460ff16610e84576040517f08c379a0000000000000000000000000000000000000000000000000000000008152600401610e7b90612074565b60405180910390fd5b6001600b60008373ffffffffffffffffffffffffffffffffffffffff1673ffffffffffffffffffffffffffffffffffffffff16815260200190815260200160002060030160006101000a81548160ff02191690831515021790555050565b3373ffffffffffffffffffffffffffffffffffffffff1660008054906101000a900473ffffffffffffffffffffffffffffffffffffffff1673ffffffffffffffffffffffffffffffffffffffff1614610f70576040517f08c379a0000000000000000000000000000000000000000000000000000000008152600401610f6790612106565b60405180910390fd5b6000600d60008373ffffffffffffffffffffffffffffffffffffffff1673ffffffffffffffffffffffffffffffffffffffff16815260200190815260200160002060006101000a81548160ff02191690831515021790555050565b60065481565b60606000600c80549050905060008167ffffffffffffffff811115610ff957610ff86115dc565b5b60405190808252806020026020018201604052801561103257816020015b61101f611344565b8152602001906001900390816110175790505b50905060005b8281101561133b57600b6000600c838154811061105857611057612126565b5b9060005260206000200160009054906101000a900473ffffffffffffffffffffffffffffffffffffffff1673ffffffffffffffffffffffffffffffffffffffff1673ffffffffffffffffffffffffffffffffffffffff1681526020019081526020016000206040518060c00160405290816000820180546110d890611aae565b80601f016020809104026020016040519081016040528092919081815260200182805461110490611aae565b80156111515780601f1061112657610100808354040283529160200191611151565b820191906000526020600020905b81548152906001019060200180831161113457829003601f168201915b5050505050815260200160018201805461116a90611aae565b80601f016020809104026020016040519081016040528092919081815260200182805461119690611aae565b80156111e35780601f106111b8576101008083540402835291602001916111e3565b820191906000526020600020905b8154815290600101906020018083116111c657829003601f168201915b505050505081526020016002820180546111fc90611aae565b80601f016020809104026020016040519081016040528092919081815260200182805461122890611aae565b80156112755780601f1061124a57610100808354040283529160200191611275565b820191906000526020600020905b81548152906001019060200180831161125857829003601f168201915b505050505081526020016003820160009054906101000a900460ff161515151581526020016003820160019054906101000a900460ff161515151581526020016003820160029054906101000a900473ffffffffffffffffffffffffffffffffffffffff1673ffffffffffffffffffffffffffffffffffffffff1673ffffffffffffffffffffffffffffffffffffffff168152505082828151811061131d5761131c612126565b5b6020026020010181905250808061133390612155565b915050611038565b50809250505090565b6040518060c00160405280606081526020016060815260200160608152602001600015158152602001600015158152602001600073ffffffffffffffffffffffffffffffffffffffff1681525090565b600081519050919050565b600082825260208201905092915050565b60005b838110156113ce5780820151818401526020810190506113b3565b60008484015250505050565b6000601f19601f8301169050919050565b60006113f682611394565b611400818561139f565b93506114108185602086016113b0565b611419816113da565b840191505092915050565b6000602082019050818103600083015261143e81846113eb565b905092915050565b6000819050919050565b61145981611446565b82525050565b60006020820190506114746000830184611450565b92915050565b6000604051905090565b600080fd5b600080fd5b61149781611446565b81146114a257600080fd5b50565b6000813590506114b48161148e565b92915050565b6000602082840312156114d0576114cf611484565b5b60006114de848285016114a5565b91505092915050565b600073ffffffffffffffffffffffffffffffffffffffff82169050919050565b6000611512826114e7565b9050919050565b61152281611507565b82525050565b600060208201905061153d6000830184611519565b92915050565b61154c81611507565b811461155757600080fd5b50565b60008135905061156981611543565b92915050565b60006020828403121561158557611584611484565b5b60006115938482850161155a565b91505092915050565b60008115159050919050565b6115b18161159c565b82525050565b60006020820190506115cc60008301846115a8565b92915050565b600080fd5b600080fd5b7f4e487b7100000000000000000000000000000000000000000000000000000000600052604160045260246000fd5b611614826113da565b810181811067ffffffffffffffff82111715611633576116326115dc565b5b80604052505050565b600061164661147a565b9050611652828261160b565b919050565b600067ffffffffffffffff821115611672576116716115dc565b5b61167b826113da565b9050602081019050919050565b82818337600083830152505050565b60006116aa6116a584611657565b61163c565b9050828152602081018484840111156116c6576116c56115d7565b5b6116d1848285611688565b509392505050565b600082601f8301126116ee576116ed6115d2565b5b81356116fe848260208601611697565b91505092915050565b6000806040838503121561171e5761171d611484565b5b600083013567ffffffffffffffff81111561173c5761173b611489565b5b611748858286016116d9565b925050602083013567ffffffffffffffff81111561176957611768611489565b5b611775858286016116d9565b9150509250929050565b600060c082019050818103600083015261179981896113eb565b905081810360208301526117ad81886113eb565b905081810360408301526117c181876113eb565b90506117d060608301866115a8565b6117dd60808301856115a8565b6117ea60a0830184611519565b979650505050505050565b60008060006060848603121561180e5761180d611484565b5b600084013567ffffffffffffffff81111561182c5761182b611489565b5b611838868287016116d9565b935050602084013567ffffffffffffffff81111561185957611858611489565b5b611865868287016116d9565b925050604084013567ffffffffffffffff81111561188657611885611489565b5b611892868287016116d9565b9150509250925092565b600081519050919050565b600082825260208201905092915050565b6000819050602082019050919050565b600082825260208201905092915050565b60006118e482611394565b6118ee81856118c8565b93506118fe8185602086016113b0565b611907816113da565b840191505092915050565b61191b8161159c565b82525050565b61192a81611507565b82525050565b600060c083016000830151848203600086015261194d82826118d9565b9150506020830151848203602086015261196782826118d9565b9150506040830151848203604086015261198182826118d9565b91505060608301516119966060860182611912565b5060808301516119a96080860182611912565b5060a08301516119bc60a0860182611921565b508091505092915050565b60006119d38383611930565b905092915050565b6000602082019050919050565b60006119f38261189c565b6119fd81856118a7565b935083602082028501611a0f856118b8565b8060005b85811015611a4b5784840389528151611a2c85826119c7565b9450611a37836119db565b925060208a01995050600181019050611a13565b50829750879550505050505092915050565b60006020820190508181036000830152611a7781846119e8565b905092915050565b7f4e487b7100000000000000000000000000000000000000000000000000000000600052602260045260246000fd5b60006002820490506001821680611ac657607f821691505b602082108103611ad957611ad8611a7f565b5b50919050565b7f596f7520617265206e6f7420617574686f72697a656420746f2063726561746560008201527f206578616d000000000000000000000000000000000000000000000000000000602082015250565b6000611b3b60258361139f565b9150611b4682611adf565b604082019050919050565b60006020820190508181036000830152611b6a81611b2e565b9050919050565b7f4578616d20697320616c72656164792063726561746564000000000000000000600082015250565b6000611ba760178361139f565b9150611bb282611b71565b602082019050919050565b60006020820190508181036000830152611bd681611b9a565b9050919050565b60008190508160005260206000209050919050565b60006020601f8301049050919050565b600082821b905092915050565b600060088302611c3f7fffffffffffffffffffffffffffffffffffffffffffffffffffffffffffffffff82611c02565b611c498683611c02565b95508019841693508086168417925050509392505050565b6000819050919050565b6000611c86611c81611c7c84611446565b611c61565b611446565b9050919050565b6000819050919050565b611ca083611c6b565b611cb4611cac82611c8d565b848454611c0f565b825550505050565b600090565b611cc9611cbc565b611cd4818484611c97565b505050565b5b81811015611cf857611ced600082611cc1565b600181019050611cda565b5050565b601f821115611d3d57611d0e81611bdd565b611d1784611bf2565b81016020851015611d26578190505b611d3a611d3285611bf2565b830182611cd9565b50505b505050565b600082821c905092915050565b6000611d6060001984600802611d42565b1980831691505092915050565b6000611d798383611d4f565b9150826002028217905092915050565b611d9282611394565b67ffffffffffffffff811115611dab57611daa6115dc565b5b611db58254611aae565b611dc0828285611cfc565b600060209050601f831160018114611df35760008415611de1578287015190505b611deb8582611d6d565b865550611e53565b601f198416611e0186611bdd565b60005b82811015611e2957848901518255600182019150602085019450602081019050611e04565b86831015611e465784890151611e42601f891682611d4f565b8355505b6001600288020188555050505b505050505050565b7f596f7520617265206e6f7420617574686f72697a656420746f2061646420766560008201527f7269666965720000000000000000000000000000000000000000000000000000602082015250565b6000611eb760268361139f565b9150611ec282611e5b565b604082019050919050565b60006020820190508181036000830152611ee681611eaa565b9050919050565b7f596f752061726520616c726561647920656e726f6c6c65640000000000000000600082015250565b6000611f2360188361139f565b9150611f2e82611eed565b602082019050919050565b60006020820190508181036000830152611f5281611f16565b9050919050565b7f4e487b7100000000000000000000000000000000000000000000000000000000600052601160045260246000fd5b6000611f9382611446565b9150611f9e83611446565b9250828201905080821115611fb657611fb5611f59565b5b92915050565b7f456e726f6c6c6d656e742054696d652066696e69736865640000000000000000600082015250565b6000611ff260188361139f565b9150611ffd82611fbc565b602082019050919050565b6000602082019050818103600083015261202181611fe5565b9050919050565b7f596f7520617265206e6f7420617574686f72697a656420746f20766572696679600082015250565b600061205e60208361139f565b915061206982612028565b602082019050919050565b6000602082019050818103600083015261208d81612051565b9050919050565b7f596f7520617265206e6f7420617574686f72697a656420746f2072656d6f766560008201527f2076657269666965720000000000000000000000000000000000000000000000602082015250565b60006120f060298361139f565b91506120fb82612094565b604082019050919050565b6000602082019050818103600083015261211f816120e3565b9050919050565b7f4e487b7100000000000000000000000000000000000000000000000000000000600052603260045260246000fd5b600061216082611446565b91507fffffffffffffffffffffffffffffffffffffffffffffffffffffffffffffffff820361219257612191611f59565b5b60018201905091905056fea26469706673582212200ca4a6e29885303953c192e4e96ca2d7ddaed495d96f595a77fbcefe8d2c957964736f6c63430008130033",
  "immutableReferences": {},
  "source": "// SPDX-License-Identifier: MIT\r\npragma solidity ^0.8.19;\r\n\r\ncontract Exam {\r\n    address private owner;\r\n    string public name;\r\n    string public date;\r\n    string public lastEnrollmentDate;\r\n    uint public start_time;\r\n    uint public duration;\r\n    uint public creationTime;\r\n    uint public enrollment_duration;\r\n\r\n    bool isExamCreated = false;\r\n    string private questionsCID;\r\n    string private answersCID;\r\n\r\n    struct student {\r\n        string name;\r\n        string govermentDocument;\r\n        string marksheet;\r\n        bool isVerified;\r\n        bool isEnrolled;\r\n        address studentAddress;\r\n    }\r\n    mapping(address => student) public enrolledStudents;\r\n    address[] public enrolledStudentsArray;\r\n    mapping(address => bool) public verifiers;\r\n    // constructor takes all the exam data and stores them in state variables.\r\n    constructor(\r\n        address _owner,\r\n        string memory _name,\r\n        string memory _date,\r\n        string memory _lastEnrollmentDate,\r\n        uint _examStartTime,\r\n        uint _examDuration,\r\n        uint _examCreationTime,\r\n        uint _examEnrollmentduration\r\n    ) {\r\n        owner = _owner;\r\n        name = _name;\r\n        date = _date;\r\n        lastEnrollmentDate = _lastEnrollmentDate;\r\n        start_time = block.timestamp + _examStartTime;\r\n        duration = _examDuration;\r\n        verifiers[_owner] = true;\r\n        creationTime = _examCreationTime;\r\n        enrollment_duration = _examEnrollmentduration;\r\n    }\r\n\r\n    // Function for the students to Enroll to a perticular exam\r\n    function enrollStudent(\r\n        string memory _name,\r\n        string memory _govermentDocument,\r\n        string memory _marksheet\r\n    ) public {\r\n        require(\r\n            !enrolledStudents[msg.sender].isEnrolled,\r\n            \"You are already enrolled\"\r\n        );\r\n        require(\r\n            block.timestamp < creationTime + enrollment_duration,\r\n            \"Enrollment Time finished\"\r\n        );\r\n        address _address = msg.sender;\r\n        student memory newStudent = student(\r\n            _name,\r\n            _govermentDocument,\r\n            _marksheet,\r\n            false,\r\n            true,\r\n            _address\r\n        );\r\n        enrolledStudents[_address] = newStudent;\r\n        enrolledStudentsArray.push(_address);\r\n    }\r\n\r\n    // Get all the students who enrolled in the exam\r\n    function getAllStudents() public view returns (student[] memory) {\r\n        uint256 arrayLength = enrolledStudentsArray.length;\r\n        student[] memory studentArray = new student[](arrayLength);\r\n        for (uint256 i = 0; i < arrayLength; i++) {\r\n            studentArray[i] = enrolledStudents[enrolledStudentsArray[i]];\r\n        }\r\n        return studentArray;\r\n    }\r\n\r\n    // Function to add new _verifier\r\n    function addVerifier(address _verifier) public {\r\n        require(owner == msg.sender, \"You are not authorized to add verifier\");\r\n        verifiers[_verifier] = true;\r\n    }\r\n\r\n    // Function to remove the verifier\r\n    function removeVerifier(address _verifier) public {\r\n        require(\r\n            owner == msg.sender,\r\n            \"You are not authorized to remove verifier\"\r\n        );\r\n        verifiers[_verifier] = false;\r\n    }\r\n\r\n    // Function for the verifiers to verify the students\r\n    function verifyStudent(address _studentAddress) public {\r\n        require(verifiers[msg.sender], \"You are not authorized to verify\");\r\n        enrolledStudents[_studentAddress].isVerified = true;\r\n    }\r\n\r\n    // Function to check if the student is verified or not\r\n    function isStudentVerified(\r\n        address _studentAddress\r\n    ) public view returns (bool) {\r\n        return enrolledStudents[_studentAddress].isVerified;\r\n    }\r\n\r\n    // Function to create exam\r\n    function createExam(\r\n        string memory _questionsCID,\r\n        string memory _answersCID\r\n    ) public {\r\n        require(owner == msg.sender, \"You are not authorized to create exam\");\r\n        require(!isExamCreated, \"Exam is already created\");\r\n\r\n        questionsCID = _questionsCID;\r\n        answersCID = _answersCID;\r\n        isExamCreated = true;\r\n    }\r\n\r\n    // Function to get the questions CID\r\n    function getExamCID() public view returns (string memory) {\r\n        return questionsCID;\r\n    }\r\n\r\n    // Function to get the exam answers CID\r\n    function getAnswersCID() public view returns (string memory) {\r\n        return answersCID;\r\n    }\r\n}\r\n",
  "sourcePath": "C:\\Users\\ASUS\\OneDrive\\Desktop\\New Projects\\Web3 Examination Portal\\web3-Examination-App\\contracts\\Exam.sol",
  "compiler": {
    "name": "solc",
    "version": "0.8.19+commit.7dd6d404.Emscripten.clang"
  },
  "schemaVersion": "3.4.16",
  "updatedAt": "2024-10-20T09:39:42.424Z",
  "networkType": "ethereum",
  "devdoc": {
    "kind": "dev",
    "methods": {},
    "version": 1
  },
  "userdoc": {
    "kind": "user",
    "methods": {},
    "version": 1
  }
}